{
  "_format": "hh-sol-artifact-1",
  "contractName": "AddnAttend",
  "sourceName": "contracts/AddnAttend.sol",
  "abi": [
    {
      "inputs": [
        {
          "internalType": "address",
          "name": "_myTokenAddress",
          "type": "address"
        }
      ],
      "stateMutability": "nonpayable",
      "type": "constructor"
    },
    {
      "anonymous": false,
      "inputs": [
        {
          "components": [
            {
              "internalType": "uint256",
              "name": "_id",
              "type": "uint256"
            },
            {
              "internalType": "string",
              "name": "_name",
              "type": "string"
            },
            {
              "internalType": "uint256",
              "name": "_seats",
              "type": "uint256"
            },
            {
              "internalType": "address",
              "name": "_owner",
              "type": "address"
            },
            {
              "internalType": "uint256",
              "name": "_startTime",
              "type": "uint256"
            },
            {
              "internalType": "uint256",
              "name": "_endTime",
              "type": "uint256"
            },
            {
              "internalType": "enum AddnAttend.EventStatus",
              "name": "_status",
              "type": "uint8"
            },
            {
              "components": [
                {
                  "internalType": "address",
                  "name": "userAddress",
                  "type": "address"
                },
                {
                  "internalType": "bool",
                  "name": "attended",
                  "type": "bool"
                }
              ],
              "internalType": "struct AddnAttend.EventAttendance[]",
              "name": "_participants",
              "type": "tuple[]"
            },
            {
              "internalType": "uint256",
              "name": "_tokenRewardAmount",
              "type": "uint256"
            },
            {
              "internalType": "bytes32",
              "name": "eventDomain",
              "type": "bytes32"
            },
            {
              "internalType": "string",
              "name": "_eventDomain",
              "type": "string"
            }
          ],
          "indexed": false,
          "internalType": "struct AddnAttend.Event",
          "name": "_event",
          "type": "tuple"
        }
      ],
      "name": "EventEvent",
      "type": "event"
    },
    {
      "anonymous": false,
      "inputs": [
        {
          "indexed": true,
          "internalType": "address",
          "name": "previousOwner",
          "type": "address"
        },
        {
          "indexed": true,
          "internalType": "address",
          "name": "newOwner",
          "type": "address"
        }
      ],
      "name": "OwnershipTransferred",
      "type": "event"
    },
    {
      "inputs": [
        {
          "internalType": "uint256",
          "name": "_eventId",
          "type": "uint256"
        }
      ],
      "name": "cancelEvent",
      "outputs": [],
      "stateMutability": "nonpayable",
      "type": "function"
    },
    {
      "inputs": [
        {
          "internalType": "uint256",
          "name": "_eventId",
          "type": "uint256"
        },
        {
          "internalType": "address",
          "name": "_userAddress",
          "type": "address"
        }
      ],
      "name": "checkInEventParticipant",
      "outputs": [],
      "stateMutability": "nonpayable",
      "type": "function"
    },
    {
      "inputs": [
        {
          "internalType": "string",
          "name": "_eventDomain",
          "type": "string"
        },
        {
          "internalType": "address",
          "name": "_userAddress",
          "type": "address"
        }
      ],
      "name": "checkInEventParticipant2",
      "outputs": [],
      "stateMutability": "nonpayable",
      "type": "function"
    },
    {
      "inputs": [
        {
          "internalType": "uint256",
          "name": "_eventId",
          "type": "uint256"
        }
      ],
      "name": "closeEvent",
      "outputs": [],
      "stateMutability": "nonpayable",
      "type": "function"
    },
    {
      "inputs": [
        {
          "internalType": "string",
          "name": "_name",
          "type": "string"
        },
        {
          "internalType": "uint256",
          "name": "_seats",
          "type": "uint256"
        },
        {
          "internalType": "uint256",
          "name": "_startTime",
          "type": "uint256"
        },
        {
          "internalType": "uint256",
          "name": "_endTime",
          "type": "uint256"
        },
        {
          "internalType": "uint256",
          "name": "_tokenRewardAmount",
          "type": "uint256"
        },
        {
          "internalType": "string",
          "name": "_eventDomain",
          "type": "string"
        }
      ],
      "name": "createEvent",
      "outputs": [],
      "stateMutability": "nonpayable",
      "type": "function"
    },
    {
      "inputs": [
        {
          "internalType": "uint256",
          "name": "",
          "type": "uint256"
        }
      ],
      "name": "events",
      "outputs": [
        {
          "internalType": "uint256",
          "name": "_id",
          "type": "uint256"
        },
        {
          "internalType": "string",
          "name": "_name",
          "type": "string"
        },
        {
          "internalType": "uint256",
          "name": "_seats",
          "type": "uint256"
        },
        {
          "internalType": "address",
          "name": "_owner",
          "type": "address"
        },
        {
          "internalType": "uint256",
          "name": "_startTime",
          "type": "uint256"
        },
        {
          "internalType": "uint256",
          "name": "_endTime",
          "type": "uint256"
        },
        {
          "internalType": "enum AddnAttend.EventStatus",
          "name": "_status",
          "type": "uint8"
        },
        {
          "internalType": "uint256",
          "name": "_tokenRewardAmount",
          "type": "uint256"
        },
        {
          "internalType": "bytes32",
          "name": "eventDomain",
          "type": "bytes32"
        },
        {
          "internalType": "string",
          "name": "_eventDomain",
          "type": "string"
        }
      ],
      "stateMutability": "view",
      "type": "function"
    },
    {
      "inputs": [
        {
          "internalType": "bytes32",
          "name": "",
          "type": "bytes32"
        },
        {
          "internalType": "uint256",
          "name": "",
          "type": "uint256"
        }
      ],
      "name": "eventsByDomain",
      "outputs": [
        {
          "internalType": "uint256",
          "name": "",
          "type": "uint256"
        }
      ],
      "stateMutability": "view",
      "type": "function"
    },
    {
      "inputs": [
        {
          "internalType": "address",
          "name": "userAddress",
          "type": "address"
        }
      ],
      "name": "getAttendeesListByUser",
      "outputs": [
        {
          "internalType": "uint256[]",
          "name": "",
          "type": "uint256[]"
        }
      ],
      "stateMutability": "view",
      "type": "function"
    },
    {
      "inputs": [],
      "name": "getBalance",
      "outputs": [
        {
          "internalType": "uint256",
          "name": "",
          "type": "uint256"
        }
      ],
      "stateMutability": "view",
      "type": "function"
    },
    {
      "inputs": [],
      "name": "getContractOwner",
      "outputs": [
        {
          "internalType": "address",
          "name": "",
          "type": "address"
        }
      ],
      "stateMutability": "view",
      "type": "function"
    },
    {
      "inputs": [
        {
          "internalType": "uint256",
          "name": "_eventId",
          "type": "uint256"
        }
      ],
      "name": "getEventParticipants",
      "outputs": [
        {
          "components": [
            {
              "internalType": "address",
              "name": "userAddress",
              "type": "address"
            },
            {
              "internalType": "bool",
              "name": "attended",
              "type": "bool"
            }
          ],
          "internalType": "struct AddnAttend.EventAttendance[]",
          "name": "",
          "type": "tuple[]"
        }
      ],
      "stateMutability": "view",
      "type": "function"
    },
    {
      "inputs": [],
      "name": "getEvents",
      "outputs": [
        {
          "components": [
            {
              "internalType": "uint256",
              "name": "_id",
              "type": "uint256"
            },
            {
              "internalType": "string",
              "name": "_name",
              "type": "string"
            },
            {
              "internalType": "uint256",
              "name": "_seats",
              "type": "uint256"
            },
            {
              "internalType": "address",
              "name": "_owner",
              "type": "address"
            },
            {
              "internalType": "uint256",
              "name": "_startTime",
              "type": "uint256"
            },
            {
              "internalType": "uint256",
              "name": "_endTime",
              "type": "uint256"
            },
            {
              "internalType": "enum AddnAttend.EventStatus",
              "name": "_status",
              "type": "uint8"
            },
            {
              "components": [
                {
                  "internalType": "address",
                  "name": "userAddress",
                  "type": "address"
                },
                {
                  "internalType": "bool",
                  "name": "attended",
                  "type": "bool"
                }
              ],
              "internalType": "struct AddnAttend.EventAttendance[]",
              "name": "_participants",
              "type": "tuple[]"
            },
            {
              "internalType": "uint256",
              "name": "_tokenRewardAmount",
              "type": "uint256"
            },
            {
              "internalType": "bytes32",
              "name": "eventDomain",
              "type": "bytes32"
            },
            {
              "internalType": "string",
              "name": "_eventDomain",
              "type": "string"
            }
          ],
          "internalType": "struct AddnAttend.Event[]",
          "name": "",
          "type": "tuple[]"
        }
      ],
      "stateMutability": "view",
      "type": "function"
    },
    {
      "inputs": [
        {
          "internalType": "string",
          "name": "_eventDomain",
          "type": "string"
        }
      ],
      "name": "getEventsByDomain",
      "outputs": [
        {
          "components": [
            {
              "internalType": "uint256",
              "name": "_id",
              "type": "uint256"
            },
            {
              "internalType": "string",
              "name": "_name",
              "type": "string"
            },
            {
              "internalType": "uint256",
              "name": "_seats",
              "type": "uint256"
            },
            {
              "internalType": "address",
              "name": "_owner",
              "type": "address"
            },
            {
              "internalType": "uint256",
              "name": "_startTime",
              "type": "uint256"
            },
            {
              "internalType": "uint256",
              "name": "_endTime",
              "type": "uint256"
            },
            {
              "internalType": "enum AddnAttend.EventStatus",
              "name": "_status",
              "type": "uint8"
            },
            {
              "components": [
                {
                  "internalType": "address",
                  "name": "userAddress",
                  "type": "address"
                },
                {
                  "internalType": "bool",
                  "name": "attended",
                  "type": "bool"
                }
              ],
              "internalType": "struct AddnAttend.EventAttendance[]",
              "name": "_participants",
              "type": "tuple[]"
            },
            {
              "internalType": "uint256",
              "name": "_tokenRewardAmount",
              "type": "uint256"
            },
            {
              "internalType": "bytes32",
              "name": "eventDomain",
              "type": "bytes32"
            },
            {
              "internalType": "string",
              "name": "_eventDomain",
              "type": "string"
            }
          ],
          "internalType": "struct AddnAttend.Event[]",
          "name": "",
          "type": "tuple[]"
        }
      ],
      "stateMutability": "view",
      "type": "function"
    },
    {
      "inputs": [
        {
          "internalType": "address",
          "name": "userAddress",
          "type": "address"
        }
      ],
      "name": "getEventsOrganisedByUser",
      "outputs": [
        {
          "components": [
            {
              "internalType": "uint256",
              "name": "_id",
              "type": "uint256"
            },
            {
              "internalType": "string",
              "name": "_name",
              "type": "string"
            },
            {
              "internalType": "uint256",
              "name": "_seats",
              "type": "uint256"
            },
            {
              "internalType": "address",
              "name": "_owner",
              "type": "address"
            },
            {
              "internalType": "uint256",
              "name": "_startTime",
              "type": "uint256"
            },
            {
              "internalType": "uint256",
              "name": "_endTime",
              "type": "uint256"
            },
            {
              "internalType": "enum AddnAttend.EventStatus",
              "name": "_status",
              "type": "uint8"
            },
            {
              "components": [
                {
                  "internalType": "address",
                  "name": "userAddress",
                  "type": "address"
                },
                {
                  "internalType": "bool",
                  "name": "attended",
                  "type": "bool"
                }
              ],
              "internalType": "struct AddnAttend.EventAttendance[]",
              "name": "_participants",
              "type": "tuple[]"
            },
            {
              "internalType": "uint256",
              "name": "_tokenRewardAmount",
              "type": "uint256"
            },
            {
              "internalType": "bytes32",
              "name": "eventDomain",
              "type": "bytes32"
            },
            {
              "internalType": "string",
              "name": "_eventDomain",
              "type": "string"
            }
          ],
          "internalType": "struct AddnAttend.Event[]",
          "name": "",
          "type": "tuple[]"
        }
      ],
      "stateMutability": "view",
      "type": "function"
    },
    {
      "inputs": [],
      "name": "myToken",
      "outputs": [
        {
          "internalType": "contract eventToken",
          "name": "",
          "type": "address"
        }
      ],
      "stateMutability": "view",
      "type": "function"
    },
    {
      "inputs": [],
      "name": "nEvents",
      "outputs": [
        {
          "internalType": "uint256",
          "name": "",
          "type": "uint256"
        }
      ],
      "stateMutability": "view",
      "type": "function"
    },
    {
      "inputs": [],
      "name": "owner",
      "outputs": [
        {
          "internalType": "address",
          "name": "",
          "type": "address"
        }
      ],
      "stateMutability": "view",
      "type": "function"
    },
    {
      "inputs": [
        {
          "internalType": "string",
          "name": "_eventDomain",
          "type": "string"
        }
      ],
      "name": "registerToEvent",
      "outputs": [],
      "stateMutability": "nonpayable",
      "type": "function"
    },
    {
      "inputs": [],
      "name": "renounceOwnership",
      "outputs": [],
      "stateMutability": "nonpayable",
      "type": "function"
    },
    {
      "inputs": [
        {
          "internalType": "address",
          "name": "newOwner",
          "type": "address"
        }
      ],
      "name": "transferOwnership",
      "outputs": [],
      "stateMutability": "nonpayable",
      "type": "function"
    },
    {
      "inputs": [
        {
          "internalType": "string",
          "name": "_name",
          "type": "string"
        }
      ],
      "name": "updateUserProfile",
      "outputs": [],
      "stateMutability": "nonpayable",
      "type": "function"
    },
    {
      "inputs": [
        {
          "internalType": "address",
          "name": "",
          "type": "address"
        }
      ],
      "name": "users",
      "outputs": [
        {
          "internalType": "string",
          "name": "name",
          "type": "string"
        }
      ],
      "stateMutability": "view",
      "type": "function"
    }
  ],
  "bytecode": "0x60806040523480156200001157600080fd5b50604051620044a7380380620044a783398181016040528101906200003791906200021e565b620000576200004b620000e860201b60201c565b620000f060201b60201c565b33600160006101000a81548173ffffffffffffffffffffffffffffffffffffffff021916908373ffffffffffffffffffffffffffffffffffffffff16021790555080600660006101000a81548173ffffffffffffffffffffffffffffffffffffffff021916908373ffffffffffffffffffffffffffffffffffffffff16021790555060006005819055505062000250565b600033905090565b60008060009054906101000a900473ffffffffffffffffffffffffffffffffffffffff169050816000806101000a81548173ffffffffffffffffffffffffffffffffffffffff021916908373ffffffffffffffffffffffffffffffffffffffff1602179055508173ffffffffffffffffffffffffffffffffffffffff168173ffffffffffffffffffffffffffffffffffffffff167f8be0079c531659141344cd1fd0a4f28419497f9722a3daafe3b4186f6b6457e060405160405180910390a35050565b600080fd5b600073ffffffffffffffffffffffffffffffffffffffff82169050919050565b6000620001e682620001b9565b9050919050565b620001f881620001d9565b81146200020457600080fd5b50565b6000815190506200021881620001ed565b92915050565b600060208284031215620002375762000236620001b4565b5b6000620002478482850162000207565b91505092915050565b61424780620002606000396000f3fe608060405234801561001057600080fd5b50600436106101425760003560e01c80635a3ad35a116100b8578063ae86ffdb1161007c578063ae86ffdb1461037e578063b50e01821461039a578063b8fcf937146103ca578063bca321e5146103e8578063eb91328714610406578063f2fde38b1461042257610142565b80635a3ad35a146102da5780635b61cf231461030a578063715018a6146103265780638da5cb5b14610330578063a87430ba1461034e57610142565b80632abed35f1161010a5780632abed35f1461021a5780632ee07c001461024a5780633f69babd14610266578063404aa8f914610282578063429030ba146102a0578063442890d5146102bc57610142565b80630b7914301461014757806312065fe01461018057806314a0573c1461019e57806315f5b6c4146101ce5780631dd67cde146101ea575b600080fd5b610161600480360381019061015c91906129f6565b61043e565b6040516101779a99989796959493929190612b93565b60405180910390f35b6101886105cf565b6040516101959190612c3d565b60405180910390f35b6101b860048036038101906101b39190612c84565b610672565b6040516101c59190612d6f565b60405180910390f35b6101e860048036038101906101e39190612ec6565b6107bb565b005b61020460048036038101906101ff9190612f4e565b610859565b6040516102119190612c3d565b60405180910390f35b610234600480360381019061022f9190612f8e565b61088a565b6040516102419190613306565b60405180910390f35b610264600480360381019061025f91906129f6565b610cb5565b005b610280600480360381019061027b91906129f6565b610d0a565b005b61028a610d56565b6040516102979190613306565b60405180910390f35b6102ba60048036038101906102b59190613328565b6110d4565b005b6102c4611625565b6040516102d191906133ed565b60405180910390f35b6102f460048036038101906102ef9190612c84565b61164f565b6040516103019190613306565b60405180910390f35b610324600480360381019061031f9190612f8e565b611be0565b005b61032e611f0c565b005b610338611f20565b60405161034591906133ed565b60405180910390f35b61036860048036038101906103639190612c84565b611f49565b6040516103759190613408565b60405180910390f35b61039860048036038101906103939190612f8e565b611fef565b005b6103b460048036038101906103af91906129f6565b612042565b6040516103c19190613499565b60405180910390f35b6103d2612130565b6040516103df919061351a565b60405180910390f35b6103f0612156565b6040516103fd9190612c3d565b60405180910390f35b610420600480360381019061041b9190613535565b61215c565b005b61043c60048036038101906104379190612c84565b612293565b005b6004602052806000526040600020600091509050806000015490806001018054610467906135a4565b80601f0160208091040260200160405190810160405280929190818152602001828054610493906135a4565b80156104e05780601f106104b5576101008083540402835291602001916104e0565b820191906000526020600020905b8154815290600101906020018083116104c357829003601f168201915b5050505050908060020154908060030160009054906101000a900473ffffffffffffffffffffffffffffffffffffffff16908060040154908060050154908060060160009054906101000a900460ff169080600801549080600901549080600a01805461054c906135a4565b80601f0160208091040260200160405190810160405280929190818152602001828054610578906135a4565b80156105c55780601f1061059a576101008083540402835291602001916105c5565b820191906000526020600020905b8154815290600101906020018083116105a857829003601f168201915b505050505090508a565b6000600660009054906101000a900473ffffffffffffffffffffffffffffffffffffffff1673ffffffffffffffffffffffffffffffffffffffff166370a08231336040518263ffffffff1660e01b815260040161062c91906133ed565b602060405180830381865afa158015610649573d6000803e3d6000fd5b505050506040513d601f19601f8201168201806040525081019061066d91906135ea565b905090565b60606000600260008473ffffffffffffffffffffffffffffffffffffffff1673ffffffffffffffffffffffffffffffffffffffff16815260200190815260200160002060010180548060200260200160405190810160405280929190818152602001828054801561070257602002820191906000526020600020905b8154815260200190600101908083116106ee575b505050505090506000815167ffffffffffffffff81111561072657610725612d9b565b5b6040519080825280602002602001820160405280156107545781602001602082028036833780820191505090505b50905060005b82518110156107b05782818151811061077657610775613617565b5b602002602001015182828151811061079157610790613617565b5b60200260200101818152505080806107a890613675565b91505061075a565b508092505050919050565b60006107c68361088a565b90506000816000815181106107de576107dd613617565b5b602002602001015160000151101561082b576040517f08c379a000000000000000000000000000000000000000000000000000000000815260040161082290613709565b60405180910390fd5b6108548160008151811061084257610841613617565b5b6020026020010151600001518361215c565b505050565b6003602052816000526040600020818154811061087557600080fd5b90600052602060002001600091509150505481565b606060008260405160200161089f9190613765565b60405160208183030381529060405280519060200120905060006003600083815260200190815260200160002080548060200260200160405190810160405280929190818152602001828054801561091657602002820191906000526020600020905b815481526020019060010190808311610902575b505050505090506000815167ffffffffffffffff81111561093a57610939612d9b565b5b60405190808252806020026020018201604052801561097357816020015b610960612927565b8152602001906001900390816109585790505b50905060005b8251811015610ca9576004600084838151811061099957610998613617565b5b6020026020010151815260200190815260200160002060405180610160016040529081600082015481526020016001820180546109d5906135a4565b80601f0160208091040260200160405190810160405280929190818152602001828054610a01906135a4565b8015610a4e5780601f10610a2357610100808354040283529160200191610a4e565b820191906000526020600020905b815481529060010190602001808311610a3157829003601f168201915b50505050508152602001600282015481526020016003820160009054906101000a900473ffffffffffffffffffffffffffffffffffffffff1673ffffffffffffffffffffffffffffffffffffffff1673ffffffffffffffffffffffffffffffffffffffff16815260200160048201548152602001600582015481526020016006820160009054906101000a900460ff166002811115610af057610aef612b03565b5b6002811115610b0257610b01612b03565b5b815260200160078201805480602002602001604051908101604052809291908181526020016000905b82821015610bca578382906000526020600020016040518060400160405290816000820160009054906101000a900473ffffffffffffffffffffffffffffffffffffffff1673ffffffffffffffffffffffffffffffffffffffff1673ffffffffffffffffffffffffffffffffffffffff1681526020016000820160149054906101000a900460ff16151515158152505081526020019060010190610b2b565b5050505081526020016008820154815260200160098201548152602001600a82018054610bf6906135a4565b80601f0160208091040260200160405190810160405280929190818152602001828054610c22906135a4565b8015610c6f5780601f10610c4457610100808354040283529160200191610c6f565b820191906000526020600020905b815481529060010190602001808311610c5257829003601f168201915b505050505081525050828281518110610c8b57610c8a613617565b5b60200260200101819052508080610ca190613675565b915050610979565b50809350505050919050565b610cbf8133612316565b60016004600083815260200190815260200160002060060160006101000a81548160ff02191690836002811115610cf957610cf8612b03565b5b0217905550610d07816123be565b50565b610d148133612316565b60026004600083815260200190815260200160002060060160006101000a81548160ff02191690836002811115610d4e57610d4d612b03565b5b021790555050565b6060600060055467ffffffffffffffff811115610d7657610d75612d9b565b5b604051908082528060200260200182016040528015610daf57816020015b610d9c612927565b815260200190600190039081610d945790505b50905060005b6005548110156110cc57600460008281526020019081526020016000206040518061016001604052908160008201548152602001600182018054610df8906135a4565b80601f0160208091040260200160405190810160405280929190818152602001828054610e24906135a4565b8015610e715780601f10610e4657610100808354040283529160200191610e71565b820191906000526020600020905b815481529060010190602001808311610e5457829003601f168201915b50505050508152602001600282015481526020016003820160009054906101000a900473ffffffffffffffffffffffffffffffffffffffff1673ffffffffffffffffffffffffffffffffffffffff1673ffffffffffffffffffffffffffffffffffffffff16815260200160048201548152602001600582015481526020016006820160009054906101000a900460ff166002811115610f1357610f12612b03565b5b6002811115610f2557610f24612b03565b5b815260200160078201805480602002602001604051908101604052809291908181526020016000905b82821015610fed578382906000526020600020016040518060400160405290816000820160009054906101000a900473ffffffffffffffffffffffffffffffffffffffff1673ffffffffffffffffffffffffffffffffffffffff1673ffffffffffffffffffffffffffffffffffffffff1681526020016000820160149054906101000a900460ff16151515158152505081526020019060010190610f4e565b5050505081526020016008820154815260200160098201548152602001600a82018054611019906135a4565b80601f0160208091040260200160405190810160405280929190818152602001828054611045906135a4565b80156110925780601f1061106757610100808354040283529160200191611092565b820191906000526020600020905b81548152906001019060200180831161107557829003601f168201915b5050505050815250508282815181106110ae576110ad613617565b5b602002602001018190525080806110c490613675565b915050610db5565b508091505090565b6000821015611118576040517f08c379a000000000000000000000000000000000000000000000000000000000815260040161110f906137c8565b60405180910390fd5b60008160405160200161112b9190613765565b6040516020818303038152906040528051906020012090506000600360008381526020019081526020016000208054806020026020016040519081016040528092919081815260200182805480156111a257602002820191906000526020600020905b81548152602001906001019080831161118e575b5050505050905060008151146111ed576040517f08c379a00000000000000000000000000000000000000000000000000000000081526004016111e490613834565b60405180910390fd5b60006005600081548092919061120290613675565b9190505590508060046000838152602001908152602001600020600001819055508860046000838152602001908152602001600020600101908161124691906139f6565b508360046000838152602001908152602001600020600a01908161126a91906139f6565b50876004600083815260200190815260200160002060020181905550336004600083815260200190815260200160002060030160006101000a81548173ffffffffffffffffffffffffffffffffffffffff021916908373ffffffffffffffffffffffffffffffffffffffff16021790555086600460008381526020019081526020016000206004018190555085600460008381526020019081526020016000206005018190555060006004600083815260200190815260200160002060060160006101000a81548160ff0219169083600281111561134b5761134a612b03565b5b02179055506004600082815260200190815260200160002060070160405180604001604052803373ffffffffffffffffffffffffffffffffffffffff168152602001600115158152509080600181540180825580915050600190039060005260206000200160009091909190915060008201518160000160006101000a81548173ffffffffffffffffffffffffffffffffffffffff021916908373ffffffffffffffffffffffffffffffffffffffff16021790555060208201518160000160146101000a81548160ff02191690831515021790555050508460046000838152602001908152602001600020600801819055508360405160200161144e9190613765565b604051602081830303815290604052805190602001206004600083815260200190815260200160002060090181905550600260003373ffffffffffffffffffffffffffffffffffffffff1673ffffffffffffffffffffffffffffffffffffffff168152602001908152602001600020600101819080600181540180825580915050600190039060005260206000200160009091909190915055600660009054906101000a900473ffffffffffffffffffffffffffffffffffffffff1673ffffffffffffffffffffffffffffffffffffffff166340c10f19338a886115329190613ac8565b6040518363ffffffff1660e01b815260040161154f929190613b0a565b600060405180830381600087803b15801561156957600080fd5b505af115801561157d573d6000803e3d6000fd5b505050507f4e901a0c3ae85872369ea1df67bd5b39307499fbe742bbd322eb083ba7bccabd600460008381526020019081526020016000206040516115c29190613ed4565b60405180910390a16003600060046000848152602001908152602001600020600901548152602001908152602001600020819080600181540180825580915050600190039060005260206000200160009091909190915055505050505050505050565b6000600160009054906101000a900473ffffffffffffffffffffffffffffffffffffffff16905090565b60606000600260008473ffffffffffffffffffffffffffffffffffffffff1673ffffffffffffffffffffffffffffffffffffffff1681526020019081526020016000206001018054905067ffffffffffffffff8111156116b2576116b1612d9b565b5b6040519080825280602002602001820160405280156116e05781602001602082028036833780820191505090505b5090506000805b600260008673ffffffffffffffffffffffffffffffffffffffff1673ffffffffffffffffffffffffffffffffffffffff16815260200190815260200160002060010180549050811015611843576000600260008773ffffffffffffffffffffffffffffffffffffffff1673ffffffffffffffffffffffffffffffffffffffff168152602001908152602001600020600101828154811061178a57611789613617565b5b906000526020600020015490508573ffffffffffffffffffffffffffffffffffffffff166004600083815260200190815260200160002060030160009054906101000a900473ffffffffffffffffffffffffffffffffffffffff1673ffffffffffffffffffffffffffffffffffffffff160361182f578084848151811061181457611813613617565b5b602002602001018181525050828061182b90613675565b9350505b50808061183b90613675565b9150506116e7565b5060008167ffffffffffffffff8111156118605761185f612d9b565b5b60405190808252806020026020018201604052801561189957816020015b611886612927565b81526020019060019003908161187e5790505b50905060005b82811015611bd45760008482815181106118bc576118bb613617565b5b602002602001015190506004600082815260200190815260200160002060405180610160016040529081600082015481526020016001820180546118ff906135a4565b80601f016020809104026020016040519081016040528092919081815260200182805461192b906135a4565b80156119785780601f1061194d57610100808354040283529160200191611978565b820191906000526020600020905b81548152906001019060200180831161195b57829003601f168201915b50505050508152602001600282015481526020016003820160009054906101000a900473ffffffffffffffffffffffffffffffffffffffff1673ffffffffffffffffffffffffffffffffffffffff1673ffffffffffffffffffffffffffffffffffffffff16815260200160048201548152602001600582015481526020016006820160009054906101000a900460ff166002811115611a1a57611a19612b03565b5b6002811115611a2c57611a2b612b03565b5b815260200160078201805480602002602001604051908101604052809291908181526020016000905b82821015611af4578382906000526020600020016040518060400160405290816000820160009054906101000a900473ffffffffffffffffffffffffffffffffffffffff1673ffffffffffffffffffffffffffffffffffffffff1673ffffffffffffffffffffffffffffffffffffffff1681526020016000820160149054906101000a900460ff16151515158152505081526020019060010190611a55565b5050505081526020016008820154815260200160098201548152602001600a82018054611b20906135a4565b80601f0160208091040260200160405190810160405280929190818152602001828054611b4c906135a4565b8015611b995780601f10611b6e57610100808354040283529160200191611b99565b820191906000526020600020905b815481529060010190602001808311611b7c57829003601f168201915b505050505081525050838381518110611bb557611bb4613617565b5b6020026020010181905250508080611bcc90613675565b91505061189f565b50809350505050919050565b600081604051602001611bf39190613765565b604051602081830303815290604052805190602001209050600060036000838152602001908152602001600020805480602002602001604051908101604052809291908181526020018280548015611c6a57602002820191906000526020600020905b815481526020019060010190808311611c56575b505050505090506000815111611cb5576040517f08c379a0000000000000000000000000000000000000000000000000000000008152600401611cac90613f68565b60405180910390fd5b6000805b8251811015611f05576000838281518110611cd757611cd6613617565b5b6020026020010151905082611ef15760005b6004600083815260200190815260200160002060070180549050811015611dae573373ffffffffffffffffffffffffffffffffffffffff16600460008481526020019081526020016000206007018281548110611d4957611d48613617565b5b9060005260206000200160000160009054906101000a900473ffffffffffffffffffffffffffffffffffffffff1673ffffffffffffffffffffffffffffffffffffffff1603611d9b5760019350611dae565b8080611da690613675565b915050611ce9565b5082611ef0576004600082815260200190815260200160002060070160405180604001604052803373ffffffffffffffffffffffffffffffffffffffff168152602001600015158152509080600181540180825580915050600190039060005260206000200160009091909190915060008201518160000160006101000a81548173ffffffffffffffffffffffffffffffffffffffff021916908373ffffffffffffffffffffffffffffffffffffffff16021790555060208201518160000160146101000a81548160ff0219169083151502179055505050600260003373ffffffffffffffffffffffffffffffffffffffff1673ffffffffffffffffffffffffffffffffffffffff1681526020019081526020016000206001018190806001815401808255809150506001900390600052602060002001600090919091909150555b5b508080611efd90613675565b915050611cb9565b5050505050565b611f1461252a565b611f1e60006125a8565b565b60008060009054906101000a900473ffffffffffffffffffffffffffffffffffffffff16905090565b6002602052806000526040600020600091509050806000018054611f6c906135a4565b80601f0160208091040260200160405190810160405280929190818152602001828054611f98906135a4565b8015611fe55780601f10611fba57610100808354040283529160200191611fe5565b820191906000526020600020905b815481529060010190602001808311611fc857829003601f168201915b5050505050905081565b80600260003373ffffffffffffffffffffffffffffffffffffffff1673ffffffffffffffffffffffffffffffffffffffff168152602001908152602001600020600001908161203e91906139f6565b5050565b60606120508233600161266c565b60046000838152602001908152602001600020600701805480602002602001604051908101604052809291908181526020016000905b82821015612125578382906000526020600020016040518060400160405290816000820160009054906101000a900473ffffffffffffffffffffffffffffffffffffffff1673ffffffffffffffffffffffffffffffffffffffff1673ffffffffffffffffffffffffffffffffffffffff1681526020016000820160149054906101000a900460ff16151515158152505081526020019060010190612086565b505050509050919050565b600660009054906101000a900473ffffffffffffffffffffffffffffffffffffffff1681565b60055481565b6121668233612316565b6121728282600161266c565b60005b600460008481526020019081526020016000206007018054905081101561228e578173ffffffffffffffffffffffffffffffffffffffff166004600085815260200190815260200160002060070182815481106121d5576121d4613617565b5b9060005260206000200160000160009054906101000a900473ffffffffffffffffffffffffffffffffffffffff1673ffffffffffffffffffffffffffffffffffffffff160361227b57600160046000858152602001908152602001600020600701828154811061224857612247613617565b5b9060005260206000200160000160146101000a81548160ff021916908315150217905550612276838361272c565b61228e565b808061228690613675565b915050612175565b505050565b61229b61252a565b600073ffffffffffffffffffffffffffffffffffffffff168173ffffffffffffffffffffffffffffffffffffffff160361230a576040517f08c379a000000000000000000000000000000000000000000000000000000000815260040161230190613ffa565b60405180910390fd5b612313816125a8565b50565b8073ffffffffffffffffffffffffffffffffffffffff166004600084815260200190815260200160002060030160009054906101000a900473ffffffffffffffffffffffffffffffffffffffff1673ffffffffffffffffffffffffffffffffffffffff16146123ba576040517f08c379a00000000000000000000000000000000000000000000000000000000081526004016123b190614066565b60405180910390fd5b5050565b600060046000838152602001908152602001600020905060005b8160070180549050811015612525578160070181815481106123fd576123fc613617565b5b9060005260206000200160000160149054906101000a900460ff161561251257600082600701828154811061243557612434613617565b5b9060005260206000200160000160009054906101000a900473ffffffffffffffffffffffffffffffffffffffff169050600083600801549050600660009054906101000a900473ffffffffffffffffffffffffffffffffffffffff1673ffffffffffffffffffffffffffffffffffffffff1663a9059cbb83836040518363ffffffff1660e01b81526004016124cb929190613b0a565b6020604051808303816000875af11580156124ea573d6000803e3d6000fd5b505050506040513d601f19601f8201168201806040525081019061250e91906140b2565b5050505b808061251d90613675565b9150506123d8565b505050565b6125326127dd565b73ffffffffffffffffffffffffffffffffffffffff16612550611f20565b73ffffffffffffffffffffffffffffffffffffffff16146125a6576040517f08c379a000000000000000000000000000000000000000000000000000000000815260040161259d9061412b565b60405180910390fd5b565b60008060009054906101000a900473ffffffffffffffffffffffffffffffffffffffff169050816000806101000a81548173ffffffffffffffffffffffffffffffffffffffff021916908373ffffffffffffffffffffffffffffffffffffffff1602179055508173ffffffffffffffffffffffffffffffffffffffff168173ffffffffffffffffffffffffffffffffffffffff167f8be0079c531659141344cd1fd0a4f28419497f9722a3daafe3b4186f6b6457e060405160405180910390a35050565b612675836127e5565b6000612681848461284d565b905081151581151514826126ad576040518060600160405280602381526020016141ef602391396126e4565b6040518060400160405280601f81526020017f55736572206973206e6f7420617474656e64696e6720746865206576656e74008152505b90612725576040517f08c379a000000000000000000000000000000000000000000000000000000000815260040161271c9190613408565b60405180910390fd5b5050505050565b600060046000848152602001908152602001600020600801549050600660009054906101000a900473ffffffffffffffffffffffffffffffffffffffff1673ffffffffffffffffffffffffffffffffffffffff1663a64b6e5f3384846040518463ffffffff1660e01b81526004016127a69392919061414b565b600060405180830381600087803b1580156127c057600080fd5b505af11580156127d4573d6000803e3d6000fd5b50505050505050565b600033905090565b6000600460008381526020019081526020016000206001018054612808906135a4565b90501161284a576040517f08c379a0000000000000000000000000000000000000000000000000000000008152600401612841906141ce565b60405180910390fd5b50565b600080600090505b600460008581526020019081526020016000206007018054905081101561291b578273ffffffffffffffffffffffffffffffffffffffff166004600086815260200190815260200160002060070182815481106128b5576128b4613617565b5b9060005260206000200160000160009054906101000a900473ffffffffffffffffffffffffffffffffffffffff1673ffffffffffffffffffffffffffffffffffffffff1603612908576001915050612921565b808061291390613675565b915050612855565b50600090505b92915050565b604051806101600160405280600081526020016060815260200160008152602001600073ffffffffffffffffffffffffffffffffffffffff16815260200160008152602001600081526020016000600281111561298757612986612b03565b5b8152602001606081526020016000815260200160008019168152602001606081525090565b6000604051905090565b600080fd5b600080fd5b6000819050919050565b6129d3816129c0565b81146129de57600080fd5b50565b6000813590506129f0816129ca565b92915050565b600060208284031215612a0c57612a0b6129b6565b5b6000612a1a848285016129e1565b91505092915050565b612a2c816129c0565b82525050565b600081519050919050565b600082825260208201905092915050565b60005b83811015612a6c578082015181840152602081019050612a51565b60008484015250505050565b6000601f19601f8301169050919050565b6000612a9482612a32565b612a9e8185612a3d565b9350612aae818560208601612a4e565b612ab781612a78565b840191505092915050565b600073ffffffffffffffffffffffffffffffffffffffff82169050919050565b6000612aed82612ac2565b9050919050565b612afd81612ae2565b82525050565b7f4e487b7100000000000000000000000000000000000000000000000000000000600052602160045260246000fd5b60038110612b4357612b42612b03565b5b50565b6000819050612b5482612b32565b919050565b6000612b6482612b46565b9050919050565b612b7481612b59565b82525050565b6000819050919050565b612b8d81612b7a565b82525050565b600061014082019050612ba9600083018d612a23565b8181036020830152612bbb818c612a89565b9050612bca604083018b612a23565b612bd7606083018a612af4565b612be46080830189612a23565b612bf160a0830188612a23565b612bfe60c0830187612b6b565b612c0b60e0830186612a23565b612c19610100830185612b84565b818103610120830152612c2c8184612a89565b90509b9a5050505050505050505050565b6000602082019050612c526000830184612a23565b92915050565b612c6181612ae2565b8114612c6c57600080fd5b50565b600081359050612c7e81612c58565b92915050565b600060208284031215612c9a57612c996129b6565b5b6000612ca884828501612c6f565b91505092915050565b600081519050919050565b600082825260208201905092915050565b6000819050602082019050919050565b612ce6816129c0565b82525050565b6000612cf88383612cdd565b60208301905092915050565b6000602082019050919050565b6000612d1c82612cb1565b612d268185612cbc565b9350612d3183612ccd565b8060005b83811015612d62578151612d498882612cec565b9750612d5483612d04565b925050600181019050612d35565b5085935050505092915050565b60006020820190508181036000830152612d898184612d11565b905092915050565b600080fd5b600080fd5b7f4e487b7100000000000000000000000000000000000000000000000000000000600052604160045260246000fd5b612dd382612a78565b810181811067ffffffffffffffff82111715612df257612df1612d9b565b5b80604052505050565b6000612e056129ac565b9050612e118282612dca565b919050565b600067ffffffffffffffff821115612e3157612e30612d9b565b5b612e3a82612a78565b9050602081019050919050565b82818337600083830152505050565b6000612e69612e6484612e16565b612dfb565b905082815260208101848484011115612e8557612e84612d96565b5b612e90848285612e47565b509392505050565b600082601f830112612ead57612eac612d91565b5b8135612ebd848260208601612e56565b91505092915050565b60008060408385031215612edd57612edc6129b6565b5b600083013567ffffffffffffffff811115612efb57612efa6129bb565b5b612f0785828601612e98565b9250506020612f1885828601612c6f565b9150509250929050565b612f2b81612b7a565b8114612f3657600080fd5b50565b600081359050612f4881612f22565b92915050565b60008060408385031215612f6557612f646129b6565b5b6000612f7385828601612f39565b9250506020612f84858286016129e1565b9150509250929050565b600060208284031215612fa457612fa36129b6565b5b600082013567ffffffffffffffff811115612fc257612fc16129bb565b5b612fce84828501612e98565b91505092915050565b600081519050919050565b600082825260208201905092915050565b6000819050602082019050919050565b600082825260208201905092915050565b600061301f82612a32565b6130298185613003565b9350613039818560208601612a4e565b61304281612a78565b840191505092915050565b61305681612ae2565b82525050565b61306581612b59565b82525050565b600081519050919050565b600082825260208201905092915050565b6000819050602082019050919050565b60008115159050919050565b6130ac81613097565b82525050565b6040820160008201516130c8600085018261304d565b5060208201516130db60208501826130a3565b50505050565b60006130ed83836130b2565b60408301905092915050565b6000602082019050919050565b60006131118261306b565b61311b8185613076565b935061312683613087565b8060005b8381101561315757815161313e88826130e1565b9750613149836130f9565b92505060018101905061312a565b5085935050505092915050565b61316d81612b7a565b82525050565b60006101608301600083015161318c6000860182612cdd565b50602083015184820360208601526131a48282613014565b91505060408301516131b96040860182612cdd565b5060608301516131cc606086018261304d565b5060808301516131df6080860182612cdd565b5060a08301516131f260a0860182612cdd565b5060c083015161320560c086018261305c565b5060e083015184820360e086015261321d8282613106565b915050610100830151613234610100860182612cdd565b50610120830151613249610120860182613164565b506101408301518482036101408601526132638282613014565b9150508091505092915050565b600061327c8383613173565b905092915050565b6000602082019050919050565b600061329c82612fd7565b6132a68185612fe2565b9350836020820285016132b885612ff3565b8060005b858110156132f457848403895281516132d58582613270565b94506132e083613284565b925060208a019950506001810190506132bc565b50829750879550505050505092915050565b600060208201905081810360008301526133208184613291565b905092915050565b60008060008060008060c08789031215613345576133446129b6565b5b600087013567ffffffffffffffff811115613363576133626129bb565b5b61336f89828a01612e98565b965050602061338089828a016129e1565b955050604061339189828a016129e1565b94505060606133a289828a016129e1565b93505060806133b389828a016129e1565b92505060a087013567ffffffffffffffff8111156133d4576133d36129bb565b5b6133e089828a01612e98565b9150509295509295509295565b60006020820190506134026000830184612af4565b92915050565b600060208201905081810360008301526134228184612a89565b905092915050565b600082825260208201905092915050565b60006134468261306b565b613450818561342a565b935061345b83613087565b8060005b8381101561348c57815161347388826130e1565b975061347e836130f9565b92505060018101905061345f565b5085935050505092915050565b600060208201905081810360008301526134b3818461343b565b905092915050565b6000819050919050565b60006134e06134db6134d684612ac2565b6134bb565b612ac2565b9050919050565b60006134f2826134c5565b9050919050565b6000613504826134e7565b9050919050565b613514816134f9565b82525050565b600060208201905061352f600083018461350b565b92915050565b6000806040838503121561354c5761354b6129b6565b5b600061355a858286016129e1565b925050602061356b85828601612c6f565b9150509250929050565b7f4e487b7100000000000000000000000000000000000000000000000000000000600052602260045260246000fd5b600060028204905060018216806135bc57607f821691505b6020821081036135cf576135ce613575565b5b50919050565b6000815190506135e4816129ca565b92915050565b600060208284031215613600576135ff6129b6565b5b600061360e848285016135d5565b91505092915050565b7f4e487b7100000000000000000000000000000000000000000000000000000000600052603260045260246000fd5b7f4e487b7100000000000000000000000000000000000000000000000000000000600052601160045260246000fd5b6000613680826129c0565b91507fffffffffffffffffffffffffffffffffffffffffffffffffffffffffffffffff82036136b2576136b1613646565b5b600182019050919050565b7f4576656e74206e6f7420666f756e642e00000000000000000000000000000000600082015250565b60006136f3601083612a3d565b91506136fe826136bd565b602082019050919050565b60006020820190508181036000830152613722816136e6565b9050919050565b600081905092915050565b600061373f82612a32565b6137498185613729565b9350613759818560208601612a4e565b80840191505092915050565b60006137718284613734565b915081905092915050565b7f496e76616c69642072657761726420616d6f756e740000000000000000000000600082015250565b60006137b2601583612a3d565b91506137bd8261377c565b602082019050919050565b600060208201905081810360008301526137e1816137a5565b9050919050565b7f4576656e7420646f6d61696e20697320616c726561647920696e207573650000600082015250565b600061381e601e83612a3d565b9150613829826137e8565b602082019050919050565b6000602082019050818103600083015261384d81613811565b9050919050565b60008190508160005260206000209050919050565b60006020601f8301049050919050565b600082821b905092915050565b6000600883026138b67fffffffffffffffffffffffffffffffffffffffffffffffffffffffffffffffff82613879565b6138c08683613879565b95508019841693508086168417925050509392505050565b60006138f36138ee6138e9846129c0565b6134bb565b6129c0565b9050919050565b6000819050919050565b61390d836138d8565b613921613919826138fa565b848454613886565b825550505050565b600090565b613936613929565b613941818484613904565b505050565b5b818110156139655761395a60008261392e565b600181019050613947565b5050565b601f8211156139aa5761397b81613854565b61398484613869565b81016020851015613993578190505b6139a761399f85613869565b830182613946565b50505b505050565b600082821c905092915050565b60006139cd600019846008026139af565b1980831691505092915050565b60006139e683836139bc565b9150826002028217905092915050565b6139ff82612a32565b67ffffffffffffffff811115613a1857613a17612d9b565b5b613a2282546135a4565b613a2d828285613969565b600060209050601f831160018114613a605760008415613a4e578287015190505b613a5885826139da565b865550613ac0565b601f198416613a6e86613854565b60005b82811015613a9657848901518255600182019150602085019450602081019050613a71565b86831015613ab35784890151613aaf601f8916826139bc565b8355505b6001600288020188555050505b505050505050565b6000613ad3826129c0565b9150613ade836129c0565b9250828202613aec816129c0565b91508282048414831517613b0357613b02613646565b5b5092915050565b6000604082019050613b1f6000830185612af4565b613b2c6020830184612a23565b9392505050565b60008160001c9050919050565b6000819050919050565b6000613b5d613b5883613b33565b613b40565b9050919050565b60008154613b71816135a4565b613b7b8186613003565b94506001821660008114613b965760018114613bac57613bdf565b60ff198316865281151560200286019350613bdf565b613bb585613854565b60005b83811015613bd757815481890152600182019150602081019050613bb8565b808801955050505b50505092915050565b600073ffffffffffffffffffffffffffffffffffffffff82169050919050565b6000613c1b613c1683613b33565b613be8565b9050919050565b600060ff82169050919050565b6000613c42613c3d83613b33565b613c22565b9050919050565b600081549050919050565b60008190508160005260206000209050919050565b60008160a01c9050919050565b600060ff82169050919050565b6000613c96613c9183613c69565b613c76565b9050919050565b604082016000808301549050613cb281613c08565b613cbf600086018261304d565b50613cc981613c83565b613cd660208601826130a3565b5050505050565b6000613ce98383613c9d565b60408301905092915050565b6000600182019050919050565b6000613d0d82613c49565b613d178185613076565b9350613d2283613c54565b8060005b83811015613d525781613d398882613cdd565b9750613d4483613cf5565b925050600181019050613d26565b5085935050505092915050565b6000819050919050565b6000613d7c613d7783613b33565b613d5f565b9050919050565b600061016083016000808401549050613d9b81613b4a565b613da86000870182612cdd565b50600184018583036020870152613dbf8382613b64565b92505060028401549050613dd281613b4a565b613ddf6040870182612cdd565b5060038401549050613df081613c08565b613dfd606087018261304d565b5060048401549050613e0e81613b4a565b613e1b6080870182612cdd565b5060058401549050613e2c81613b4a565b613e3960a0870182612cdd565b5060068401549050613e4a81613c2f565b613e5760c087018261305c565b506007840185830360e0870152613e6e8382613d02565b92505060088401549050613e8181613b4a565b613e8f610100870182612cdd565b5060098401549050613ea081613d69565b613eae610120870182613164565b50600a8401858303610140870152613ec68382613b64565b925050819250505092915050565b60006020820190508181036000830152613eee8184613d83565b905092915050565b7f4e6f206576656e747320666f756e6420666f722074686520737065636966696560008201527f6420646f6d61696e000000000000000000000000000000000000000000000000602082015250565b6000613f52602883612a3d565b9150613f5d82613ef6565b604082019050919050565b60006020820190508181036000830152613f8181613f45565b9050919050565b7f4f776e61626c653a206e6577206f776e657220697320746865207a65726f206160008201527f6464726573730000000000000000000000000000000000000000000000000000602082015250565b6000613fe4602683612a3d565b9150613fef82613f88565b604082019050919050565b6000602082019050818103600083015261401381613fd7565b9050919050565b7f5573657220646f6573206e6f74206f776e20746865206576656e740000000000600082015250565b6000614050601b83612a3d565b915061405b8261401a565b602082019050919050565b6000602082019050818103600083015261407f81614043565b9050919050565b61408f81613097565b811461409a57600080fd5b50565b6000815190506140ac81614086565b92915050565b6000602082840312156140c8576140c76129b6565b5b60006140d68482850161409d565b91505092915050565b7f4f776e61626c653a2063616c6c6572206973206e6f7420746865206f776e6572600082015250565b6000614115602083612a3d565b9150614120826140df565b602082019050919050565b6000602082019050818103600083015261414481614108565b9050919050565b60006060820190506141606000830186612af4565b61416d6020830185612af4565b61417a6040830184612a23565b949350505050565b7f4576656e7420646f6573206e6f74206578697374000000000000000000000000600082015250565b60006141b8601483612a3d565b91506141c382614182565b602082019050919050565b600060208201905081810360008301526141e7816141ab565b905091905056fe5573657220697320616c726561647920617474656e64696e6720746865206576656e74a26469706673582212201ebb97713dfb75773182676d91299f0e59c44f76b4d246ac5cfaee1734a117c764736f6c63430008110033",
  "linkReferences": {},
  "deployedLinkReferences": {}
}