{
  "_format": "hh-sol-artifact-1",
  "contractName": "AddnAttend",
  "sourceName": "contracts/AddnAttend.sol",
  "abi": [
    {
      "inputs": [
        {
          "internalType": "address",
          "name": "_myTokenAddress",
          "type": "address"
        }
      ],
      "stateMutability": "nonpayable",
      "type": "constructor"
    },
    {
      "anonymous": false,
      "inputs": [
        {
          "components": [
            {
              "internalType": "uint256",
              "name": "_id",
              "type": "uint256"
            },
            {
              "internalType": "string",
              "name": "_name",
              "type": "string"
            },
            {
              "internalType": "uint256",
              "name": "_seats",
              "type": "uint256"
            },
            {
              "internalType": "address",
              "name": "_owner",
              "type": "address"
            },
            {
              "internalType": "uint256",
              "name": "_startTime",
              "type": "uint256"
            },
            {
              "internalType": "uint256",
              "name": "_endTime",
              "type": "uint256"
            },
            {
              "internalType": "enum AddnAttend.EventStatus",
              "name": "_status",
              "type": "uint8"
            },
            {
              "components": [
                {
                  "internalType": "address",
                  "name": "userAddress",
                  "type": "address"
                },
                {
                  "internalType": "bool",
                  "name": "attended",
                  "type": "bool"
                }
              ],
              "internalType": "struct AddnAttend.EventAttendance[]",
              "name": "_participants",
              "type": "tuple[]"
            },
            {
              "internalType": "uint256",
              "name": "_tokenRewardAmount",
              "type": "uint256"
            },
            {
              "internalType": "bytes32",
              "name": "eventDomain",
              "type": "bytes32"
            }
          ],
          "indexed": false,
          "internalType": "struct AddnAttend.Event",
          "name": "_event",
          "type": "tuple"
        }
      ],
      "name": "EventEvent",
      "type": "event"
    },
    {
      "anonymous": false,
      "inputs": [
        {
          "indexed": true,
          "internalType": "address",
          "name": "previousOwner",
          "type": "address"
        },
        {
          "indexed": true,
          "internalType": "address",
          "name": "newOwner",
          "type": "address"
        }
      ],
      "name": "OwnershipTransferred",
      "type": "event"
    },
    {
      "inputs": [
        {
          "internalType": "uint256",
          "name": "_eventId",
          "type": "uint256"
        }
      ],
      "name": "cancelEvent",
      "outputs": [],
      "stateMutability": "nonpayable",
      "type": "function"
    },
    {
      "inputs": [
        {
          "internalType": "uint256",
          "name": "_eventId",
          "type": "uint256"
        },
        {
          "internalType": "address",
          "name": "_userAddress",
          "type": "address"
        }
      ],
      "name": "checkInEventParticipant",
      "outputs": [],
      "stateMutability": "nonpayable",
      "type": "function"
    },
    {
      "inputs": [
        {
          "internalType": "string",
          "name": "_eventDomain",
          "type": "string"
        },
        {
          "internalType": "address",
          "name": "_userAddress",
          "type": "address"
        }
      ],
      "name": "checkInEventParticipant2",
      "outputs": [],
      "stateMutability": "nonpayable",
      "type": "function"
    },
    {
      "inputs": [
        {
          "internalType": "uint256",
          "name": "_eventId",
          "type": "uint256"
        }
      ],
      "name": "closeEvent",
      "outputs": [],
      "stateMutability": "nonpayable",
      "type": "function"
    },
    {
      "inputs": [
        {
          "internalType": "string",
          "name": "_name",
          "type": "string"
        },
        {
          "internalType": "uint256",
          "name": "_seats",
          "type": "uint256"
        },
        {
          "internalType": "uint256",
          "name": "_startTime",
          "type": "uint256"
        },
        {
          "internalType": "uint256",
          "name": "_endTime",
          "type": "uint256"
        },
        {
          "internalType": "uint256",
          "name": "_tokenRewardAmount",
          "type": "uint256"
        },
        {
          "internalType": "string",
          "name": "_eventDomain",
          "type": "string"
        }
      ],
      "name": "createEvent",
      "outputs": [],
      "stateMutability": "nonpayable",
      "type": "function"
    },
    {
      "inputs": [
        {
          "internalType": "uint256",
          "name": "",
          "type": "uint256"
        }
      ],
      "name": "events",
      "outputs": [
        {
          "internalType": "uint256",
          "name": "_id",
          "type": "uint256"
        },
        {
          "internalType": "string",
          "name": "_name",
          "type": "string"
        },
        {
          "internalType": "uint256",
          "name": "_seats",
          "type": "uint256"
        },
        {
          "internalType": "address",
          "name": "_owner",
          "type": "address"
        },
        {
          "internalType": "uint256",
          "name": "_startTime",
          "type": "uint256"
        },
        {
          "internalType": "uint256",
          "name": "_endTime",
          "type": "uint256"
        },
        {
          "internalType": "enum AddnAttend.EventStatus",
          "name": "_status",
          "type": "uint8"
        },
        {
          "internalType": "uint256",
          "name": "_tokenRewardAmount",
          "type": "uint256"
        },
        {
          "internalType": "bytes32",
          "name": "eventDomain",
          "type": "bytes32"
        }
      ],
      "stateMutability": "view",
      "type": "function"
    },
    {
      "inputs": [
        {
          "internalType": "bytes32",
          "name": "",
          "type": "bytes32"
        },
        {
          "internalType": "uint256",
          "name": "",
          "type": "uint256"
        }
      ],
      "name": "eventsByDomain",
      "outputs": [
        {
          "internalType": "uint256",
          "name": "",
          "type": "uint256"
        }
      ],
      "stateMutability": "view",
      "type": "function"
    },
    {
      "inputs": [
        {
          "internalType": "address",
          "name": "userAddress",
          "type": "address"
        }
      ],
      "name": "getAttendeesListByUser",
      "outputs": [
        {
          "internalType": "uint256[]",
          "name": "",
          "type": "uint256[]"
        }
      ],
      "stateMutability": "view",
      "type": "function"
    },
    {
      "inputs": [],
      "name": "getBalance",
      "outputs": [
        {
          "internalType": "uint256",
          "name": "",
          "type": "uint256"
        }
      ],
      "stateMutability": "view",
      "type": "function"
    },
    {
      "inputs": [],
      "name": "getContractOwner",
      "outputs": [
        {
          "internalType": "address",
          "name": "",
          "type": "address"
        }
      ],
      "stateMutability": "view",
      "type": "function"
    },
    {
      "inputs": [
        {
          "internalType": "uint256",
          "name": "_eventId",
          "type": "uint256"
        }
      ],
      "name": "getEventParticipants",
      "outputs": [
        {
          "components": [
            {
              "internalType": "address",
              "name": "userAddress",
              "type": "address"
            },
            {
              "internalType": "bool",
              "name": "attended",
              "type": "bool"
            }
          ],
          "internalType": "struct AddnAttend.EventAttendance[]",
          "name": "",
          "type": "tuple[]"
        }
      ],
      "stateMutability": "view",
      "type": "function"
    },
    {
      "inputs": [],
      "name": "getEvents",
      "outputs": [
        {
          "components": [
            {
              "internalType": "uint256",
              "name": "_id",
              "type": "uint256"
            },
            {
              "internalType": "string",
              "name": "_name",
              "type": "string"
            },
            {
              "internalType": "uint256",
              "name": "_seats",
              "type": "uint256"
            },
            {
              "internalType": "address",
              "name": "_owner",
              "type": "address"
            },
            {
              "internalType": "uint256",
              "name": "_startTime",
              "type": "uint256"
            },
            {
              "internalType": "uint256",
              "name": "_endTime",
              "type": "uint256"
            },
            {
              "internalType": "enum AddnAttend.EventStatus",
              "name": "_status",
              "type": "uint8"
            },
            {
              "components": [
                {
                  "internalType": "address",
                  "name": "userAddress",
                  "type": "address"
                },
                {
                  "internalType": "bool",
                  "name": "attended",
                  "type": "bool"
                }
              ],
              "internalType": "struct AddnAttend.EventAttendance[]",
              "name": "_participants",
              "type": "tuple[]"
            },
            {
              "internalType": "uint256",
              "name": "_tokenRewardAmount",
              "type": "uint256"
            },
            {
              "internalType": "bytes32",
              "name": "eventDomain",
              "type": "bytes32"
            }
          ],
          "internalType": "struct AddnAttend.Event[]",
          "name": "",
          "type": "tuple[]"
        }
      ],
      "stateMutability": "view",
      "type": "function"
    },
    {
      "inputs": [
        {
          "internalType": "string",
          "name": "_eventDomain",
          "type": "string"
        }
      ],
      "name": "getEventsByDomain",
      "outputs": [
        {
          "components": [
            {
              "internalType": "uint256",
              "name": "_id",
              "type": "uint256"
            },
            {
              "internalType": "string",
              "name": "_name",
              "type": "string"
            },
            {
              "internalType": "uint256",
              "name": "_seats",
              "type": "uint256"
            },
            {
              "internalType": "address",
              "name": "_owner",
              "type": "address"
            },
            {
              "internalType": "uint256",
              "name": "_startTime",
              "type": "uint256"
            },
            {
              "internalType": "uint256",
              "name": "_endTime",
              "type": "uint256"
            },
            {
              "internalType": "enum AddnAttend.EventStatus",
              "name": "_status",
              "type": "uint8"
            },
            {
              "components": [
                {
                  "internalType": "address",
                  "name": "userAddress",
                  "type": "address"
                },
                {
                  "internalType": "bool",
                  "name": "attended",
                  "type": "bool"
                }
              ],
              "internalType": "struct AddnAttend.EventAttendance[]",
              "name": "_participants",
              "type": "tuple[]"
            },
            {
              "internalType": "uint256",
              "name": "_tokenRewardAmount",
              "type": "uint256"
            },
            {
              "internalType": "bytes32",
              "name": "eventDomain",
              "type": "bytes32"
            }
          ],
          "internalType": "struct AddnAttend.Event[]",
          "name": "",
          "type": "tuple[]"
        }
      ],
      "stateMutability": "view",
      "type": "function"
    },
    {
      "inputs": [
        {
          "internalType": "address",
          "name": "userAddress",
          "type": "address"
        }
      ],
      "name": "getEventsOrganisedByUser",
      "outputs": [
        {
          "components": [
            {
              "internalType": "uint256",
              "name": "_id",
              "type": "uint256"
            },
            {
              "internalType": "string",
              "name": "_name",
              "type": "string"
            },
            {
              "internalType": "uint256",
              "name": "_seats",
              "type": "uint256"
            },
            {
              "internalType": "address",
              "name": "_owner",
              "type": "address"
            },
            {
              "internalType": "uint256",
              "name": "_startTime",
              "type": "uint256"
            },
            {
              "internalType": "uint256",
              "name": "_endTime",
              "type": "uint256"
            },
            {
              "internalType": "enum AddnAttend.EventStatus",
              "name": "_status",
              "type": "uint8"
            },
            {
              "components": [
                {
                  "internalType": "address",
                  "name": "userAddress",
                  "type": "address"
                },
                {
                  "internalType": "bool",
                  "name": "attended",
                  "type": "bool"
                }
              ],
              "internalType": "struct AddnAttend.EventAttendance[]",
              "name": "_participants",
              "type": "tuple[]"
            },
            {
              "internalType": "uint256",
              "name": "_tokenRewardAmount",
              "type": "uint256"
            },
            {
              "internalType": "bytes32",
              "name": "eventDomain",
              "type": "bytes32"
            }
          ],
          "internalType": "struct AddnAttend.Event[]",
          "name": "",
          "type": "tuple[]"
        }
      ],
      "stateMutability": "view",
      "type": "function"
    },
    {
      "inputs": [],
      "name": "myToken",
      "outputs": [
        {
          "internalType": "contract eventToken",
          "name": "",
          "type": "address"
        }
      ],
      "stateMutability": "view",
      "type": "function"
    },
    {
      "inputs": [],
      "name": "nEvents",
      "outputs": [
        {
          "internalType": "uint256",
          "name": "",
          "type": "uint256"
        }
      ],
      "stateMutability": "view",
      "type": "function"
    },
    {
      "inputs": [],
      "name": "owner",
      "outputs": [
        {
          "internalType": "address",
          "name": "",
          "type": "address"
        }
      ],
      "stateMutability": "view",
      "type": "function"
    },
    {
      "inputs": [
        {
          "internalType": "string",
          "name": "_eventDomain",
          "type": "string"
        }
      ],
      "name": "registerToEvent",
      "outputs": [],
      "stateMutability": "nonpayable",
      "type": "function"
    },
    {
      "inputs": [],
      "name": "renounceOwnership",
      "outputs": [],
      "stateMutability": "nonpayable",
      "type": "function"
    },
    {
      "inputs": [
        {
          "internalType": "address",
          "name": "newOwner",
          "type": "address"
        }
      ],
      "name": "transferOwnership",
      "outputs": [],
      "stateMutability": "nonpayable",
      "type": "function"
    },
    {
      "inputs": [
        {
          "internalType": "string",
          "name": "_name",
          "type": "string"
        }
      ],
      "name": "updateUserProfile",
      "outputs": [],
      "stateMutability": "nonpayable",
      "type": "function"
    },
    {
      "inputs": [
        {
          "internalType": "address",
          "name": "",
          "type": "address"
        }
      ],
      "name": "users",
      "outputs": [
        {
          "internalType": "string",
          "name": "name",
          "type": "string"
        }
      ],
      "stateMutability": "view",
      "type": "function"
    }
  ],
  "bytecode": "0x60806040523480156200001157600080fd5b50604051620041eb380380620041eb83398181016040528101906200003791906200021e565b620000576200004b620000e860201b60201c565b620000f060201b60201c565b33600160006101000a81548173ffffffffffffffffffffffffffffffffffffffff021916908373ffffffffffffffffffffffffffffffffffffffff16021790555080600660006101000a81548173ffffffffffffffffffffffffffffffffffffffff021916908373ffffffffffffffffffffffffffffffffffffffff16021790555060006005819055505062000250565b600033905090565b60008060009054906101000a900473ffffffffffffffffffffffffffffffffffffffff169050816000806101000a81548173ffffffffffffffffffffffffffffffffffffffff021916908373ffffffffffffffffffffffffffffffffffffffff1602179055508173ffffffffffffffffffffffffffffffffffffffff168173ffffffffffffffffffffffffffffffffffffffff167f8be0079c531659141344cd1fd0a4f28419497f9722a3daafe3b4186f6b6457e060405160405180910390a35050565b600080fd5b600073ffffffffffffffffffffffffffffffffffffffff82169050919050565b6000620001e682620001b9565b9050919050565b620001f881620001d9565b81146200020457600080fd5b50565b6000815190506200021881620001ed565b92915050565b600060208284031215620002375762000236620001b4565b5b6000620002478482850162000207565b91505092915050565b613f8b80620002606000396000f3fe608060405234801561001057600080fd5b50600436106101425760003560e01c80635a3ad35a116100b8578063ae86ffdb1161007c578063ae86ffdb1461037d578063b50e018214610399578063b8fcf937146103c9578063bca321e5146103e7578063eb91328714610405578063f2fde38b1461042157610142565b80635a3ad35a146102d95780635b61cf2314610309578063715018a6146103255780638da5cb5b1461032f578063a87430ba1461034d57610142565b80632abed35f1161010a5780632abed35f146102195780632ee07c00146102495780633f69babd14610265578063404aa8f914610281578063429030ba1461029f578063442890d5146102bb57610142565b80630b7914301461014757806312065fe01461017f57806314a0573c1461019d57806315f5b6c4146101cd5780631dd67cde146101e9575b600080fd5b610161600480360381019061015c9190612786565b61043d565b60405161017699989796959493929190612923565b60405180910390f35b610187610540565b60405161019491906129b7565b60405180910390f35b6101b760048036038101906101b291906129fe565b6105e3565b6040516101c49190612ae9565b60405180910390f35b6101e760048036038101906101e29190612c40565b61072c565b005b61020360048036038101906101fe9190612cc8565b6107ca565b60405161021091906129b7565b60405180910390f35b610233600480360381019061022e9190612d08565b6107fb565b6040516102409190613064565b60405180910390f35b610263600480360381019061025e9190612786565b610b94565b005b61027f600480360381019061027a9190612786565b610be9565b005b610289610c35565b6040516102969190613064565b60405180910390f35b6102b960048036038101906102b49190613086565b610f21565b005b6102c361144e565b6040516102d0919061314b565b60405180910390f35b6102f360048036038101906102ee91906129fe565b611478565b6040516103009190613064565b60405180910390f35b610323600480360381019061031e9190612d08565b611977565b005b61032d611ca3565b005b610337611cb7565b604051610344919061314b565b60405180910390f35b610367600480360381019061036291906129fe565b611ce0565b6040516103749190613166565b60405180910390f35b61039760048036038101906103929190612d08565b611d86565b005b6103b360048036038101906103ae9190612786565b611dd9565b6040516103c091906131f7565b60405180910390f35b6103d1611ec7565b6040516103de9190613278565b60405180910390f35b6103ef611eed565b6040516103fc91906129b7565b60405180910390f35b61041f600480360381019061041a9190613293565b611ef3565b005b61043b600480360381019061043691906129fe565b61202a565b005b600460205280600052604060002060009150905080600001549080600101805461046690613302565b80601f016020809104026020016040519081016040528092919081815260200182805461049290613302565b80156104df5780601f106104b4576101008083540402835291602001916104df565b820191906000526020600020905b8154815290600101906020018083116104c257829003601f168201915b5050505050908060020154908060030160009054906101000a900473ffffffffffffffffffffffffffffffffffffffff16908060040154908060050154908060060160009054906101000a900460ff16908060080154908060090154905089565b6000600660009054906101000a900473ffffffffffffffffffffffffffffffffffffffff1673ffffffffffffffffffffffffffffffffffffffff166370a08231336040518263ffffffff1660e01b815260040161059d919061314b565b602060405180830381865afa1580156105ba573d6000803e3d6000fd5b505050506040513d601f19601f820116820180604052508101906105de9190613348565b905090565b60606000600260008473ffffffffffffffffffffffffffffffffffffffff1673ffffffffffffffffffffffffffffffffffffffff16815260200190815260200160002060010180548060200260200160405190810160405280929190818152602001828054801561067357602002820191906000526020600020905b81548152602001906001019080831161065f575b505050505090506000815167ffffffffffffffff81111561069757610696612b15565b5b6040519080825280602002602001820160405280156106c55781602001602082028036833780820191505090505b50905060005b8251811015610721578281815181106106e7576106e6613375565b5b602002602001015182828151811061070257610701613375565b5b6020026020010181815250508080610719906133d3565b9150506106cb565b508092505050919050565b6000610737836107fb565b905060008160008151811061074f5761074e613375565b5b602002602001015160000151101561079c576040517f08c379a000000000000000000000000000000000000000000000000000000000815260040161079390613467565b60405180910390fd5b6107c5816000815181106107b3576107b2613375565b5b60200260200101516000015183611ef3565b505050565b600360205281600052604060002081815481106107e657600080fd5b90600052602060002001600091509150505481565b606060008260405160200161081091906134c3565b60405160208183030381529060405280519060200120905060006003600083815260200190815260200160002080548060200260200160405190810160405280929190818152602001828054801561088757602002820191906000526020600020905b815481526020019060010190808311610873575b505050505090506000815167ffffffffffffffff8111156108ab576108aa612b15565b5b6040519080825280602002602001820160405280156108e457816020015b6108d16126be565b8152602001906001900390816108c95790505b50905060005b8251811015610b88576004600084838151811061090a57610909613375565b5b60200260200101518152602001908152602001600020604051806101400160405290816000820154815260200160018201805461094690613302565b80601f016020809104026020016040519081016040528092919081815260200182805461097290613302565b80156109bf5780601f10610994576101008083540402835291602001916109bf565b820191906000526020600020905b8154815290600101906020018083116109a257829003601f168201915b50505050508152602001600282015481526020016003820160009054906101000a900473ffffffffffffffffffffffffffffffffffffffff1673ffffffffffffffffffffffffffffffffffffffff1673ffffffffffffffffffffffffffffffffffffffff16815260200160048201548152602001600582015481526020016006820160009054906101000a900460ff166002811115610a6157610a60612893565b5b6002811115610a7357610a72612893565b5b815260200160078201805480602002602001604051908101604052809291908181526020016000905b82821015610b3b578382906000526020600020016040518060400160405290816000820160009054906101000a900473ffffffffffffffffffffffffffffffffffffffff1673ffffffffffffffffffffffffffffffffffffffff1673ffffffffffffffffffffffffffffffffffffffff1681526020016000820160149054906101000a900460ff16151515158152505081526020019060010190610a9c565b50505050815260200160088201548152602001600982015481525050828281518110610b6a57610b69613375565b5b60200260200101819052508080610b80906133d3565b9150506108ea565b50809350505050919050565b610b9e81336120ad565b60016004600083815260200190815260200160002060060160006101000a81548160ff02191690836002811115610bd857610bd7612893565b5b0217905550610be681612155565b50565b610bf381336120ad565b60026004600083815260200190815260200160002060060160006101000a81548160ff02191690836002811115610c2d57610c2c612893565b5b021790555050565b6060600060055467ffffffffffffffff811115610c5557610c54612b15565b5b604051908082528060200260200182016040528015610c8e57816020015b610c7b6126be565b815260200190600190039081610c735790505b50905060005b600554811015610f1957600460008281526020019081526020016000206040518061014001604052908160008201548152602001600182018054610cd790613302565b80601f0160208091040260200160405190810160405280929190818152602001828054610d0390613302565b8015610d505780601f10610d2557610100808354040283529160200191610d50565b820191906000526020600020905b815481529060010190602001808311610d3357829003601f168201915b50505050508152602001600282015481526020016003820160009054906101000a900473ffffffffffffffffffffffffffffffffffffffff1673ffffffffffffffffffffffffffffffffffffffff1673ffffffffffffffffffffffffffffffffffffffff16815260200160048201548152602001600582015481526020016006820160009054906101000a900460ff166002811115610df257610df1612893565b5b6002811115610e0457610e03612893565b5b815260200160078201805480602002602001604051908101604052809291908181526020016000905b82821015610ecc578382906000526020600020016040518060400160405290816000820160009054906101000a900473ffffffffffffffffffffffffffffffffffffffff1673ffffffffffffffffffffffffffffffffffffffff1673ffffffffffffffffffffffffffffffffffffffff1681526020016000820160149054906101000a900460ff16151515158152505081526020019060010190610e2d565b50505050815260200160088201548152602001600982015481525050828281518110610efb57610efa613375565b5b60200260200101819052508080610f11906133d3565b915050610c94565b508091505090565b6000821015610f65576040517f08c379a0000000000000000000000000000000000000000000000000000000008152600401610f5c90613526565b60405180910390fd5b600081604051602001610f7891906134c3565b604051602081830303815290604052805190602001209050600060036000838152602001908152602001600020805480602002602001604051908101604052809291908181526020018280548015610fef57602002820191906000526020600020905b815481526020019060010190808311610fdb575b50505050509050600081511461103a576040517f08c379a000000000000000000000000000000000000000000000000000000000815260040161103190613592565b60405180910390fd5b60006005600081548092919061104f906133d3565b919050559050806004600083815260200190815260200160002060000181905550886004600083815260200190815260200160002060010190816110939190613754565b50876004600083815260200190815260200160002060020181905550336004600083815260200190815260200160002060030160006101000a81548173ffffffffffffffffffffffffffffffffffffffff021916908373ffffffffffffffffffffffffffffffffffffffff16021790555086600460008381526020019081526020016000206004018190555085600460008381526020019081526020016000206005018190555060006004600083815260200190815260200160002060060160006101000a81548160ff0219169083600281111561117457611173612893565b5b02179055506004600082815260200190815260200160002060070160405180604001604052803373ffffffffffffffffffffffffffffffffffffffff168152602001600115158152509080600181540180825580915050600190039060005260206000200160009091909190915060008201518160000160006101000a81548173ffffffffffffffffffffffffffffffffffffffff021916908373ffffffffffffffffffffffffffffffffffffffff16021790555060208201518160000160146101000a81548160ff02191690831515021790555050508460046000838152602001908152602001600020600801819055508360405160200161127791906134c3565b604051602081830303815290604052805190602001206004600083815260200190815260200160002060090181905550600260003373ffffffffffffffffffffffffffffffffffffffff1673ffffffffffffffffffffffffffffffffffffffff168152602001908152602001600020600101819080600181540180825580915050600190039060005260206000200160009091909190915055600660009054906101000a900473ffffffffffffffffffffffffffffffffffffffff1673ffffffffffffffffffffffffffffffffffffffff166340c10f19338a8861135b9190613826565b6040518363ffffffff1660e01b8152600401611378929190613868565b600060405180830381600087803b15801561139257600080fd5b505af11580156113a6573d6000803e3d6000fd5b505050507ff855dbf71e831cc3b003f38761d351ad2e7f156fc16fd71ff7a236d04b0d4823600460008381526020019081526020016000206040516113eb9190613c18565b60405180910390a16003600060046000848152602001908152602001600020600901548152602001908152602001600020819080600181540180825580915050600190039060005260206000200160009091909190915055505050505050505050565b6000600160009054906101000a900473ffffffffffffffffffffffffffffffffffffffff16905090565b60606000600260008473ffffffffffffffffffffffffffffffffffffffff1673ffffffffffffffffffffffffffffffffffffffff1681526020019081526020016000206001018054905067ffffffffffffffff8111156114db576114da612b15565b5b6040519080825280602002602001820160405280156115095781602001602082028036833780820191505090505b5090506000805b600260008673ffffffffffffffffffffffffffffffffffffffff1673ffffffffffffffffffffffffffffffffffffffff1681526020019081526020016000206001018054905081101561166c576000600260008773ffffffffffffffffffffffffffffffffffffffff1673ffffffffffffffffffffffffffffffffffffffff16815260200190815260200160002060010182815481106115b3576115b2613375565b5b906000526020600020015490508573ffffffffffffffffffffffffffffffffffffffff166004600083815260200190815260200160002060030160009054906101000a900473ffffffffffffffffffffffffffffffffffffffff1673ffffffffffffffffffffffffffffffffffffffff1603611658578084848151811061163d5761163c613375565b5b6020026020010181815250508280611654906133d3565b9350505b508080611664906133d3565b915050611510565b5060008167ffffffffffffffff81111561168957611688612b15565b5b6040519080825280602002602001820160405280156116c257816020015b6116af6126be565b8152602001906001900390816116a75790505b50905060005b8281101561196b5760008482815181106116e5576116e4613375565b5b6020026020010151905060046000828152602001908152602001600020604051806101400160405290816000820154815260200160018201805461172890613302565b80601f016020809104026020016040519081016040528092919081815260200182805461175490613302565b80156117a15780601f10611776576101008083540402835291602001916117a1565b820191906000526020600020905b81548152906001019060200180831161178457829003601f168201915b50505050508152602001600282015481526020016003820160009054906101000a900473ffffffffffffffffffffffffffffffffffffffff1673ffffffffffffffffffffffffffffffffffffffff1673ffffffffffffffffffffffffffffffffffffffff16815260200160048201548152602001600582015481526020016006820160009054906101000a900460ff16600281111561184357611842612893565b5b600281111561185557611854612893565b5b815260200160078201805480602002602001604051908101604052809291908181526020016000905b8282101561191d578382906000526020600020016040518060400160405290816000820160009054906101000a900473ffffffffffffffffffffffffffffffffffffffff1673ffffffffffffffffffffffffffffffffffffffff1673ffffffffffffffffffffffffffffffffffffffff1681526020016000820160149054906101000a900460ff1615151515815250508152602001906001019061187e565b5050505081526020016008820154815260200160098201548152505083838151811061194c5761194b613375565b5b6020026020010181905250508080611963906133d3565b9150506116c8565b50809350505050919050565b60008160405160200161198a91906134c3565b604051602081830303815290604052805190602001209050600060036000838152602001908152602001600020805480602002602001604051908101604052809291908181526020018280548015611a0157602002820191906000526020600020905b8154815260200190600101908083116119ed575b505050505090506000815111611a4c576040517f08c379a0000000000000000000000000000000000000000000000000000000008152600401611a4390613cac565b60405180910390fd5b6000805b8251811015611c9c576000838281518110611a6e57611a6d613375565b5b6020026020010151905082611c885760005b6004600083815260200190815260200160002060070180549050811015611b45573373ffffffffffffffffffffffffffffffffffffffff16600460008481526020019081526020016000206007018281548110611ae057611adf613375565b5b9060005260206000200160000160009054906101000a900473ffffffffffffffffffffffffffffffffffffffff1673ffffffffffffffffffffffffffffffffffffffff1603611b325760019350611b45565b8080611b3d906133d3565b915050611a80565b5082611c87576004600082815260200190815260200160002060070160405180604001604052803373ffffffffffffffffffffffffffffffffffffffff168152602001600015158152509080600181540180825580915050600190039060005260206000200160009091909190915060008201518160000160006101000a81548173ffffffffffffffffffffffffffffffffffffffff021916908373ffffffffffffffffffffffffffffffffffffffff16021790555060208201518160000160146101000a81548160ff0219169083151502179055505050600260003373ffffffffffffffffffffffffffffffffffffffff1673ffffffffffffffffffffffffffffffffffffffff1681526020019081526020016000206001018190806001815401808255809150506001900390600052602060002001600090919091909150555b5b508080611c94906133d3565b915050611a50565b5050505050565b611cab6122c1565b611cb5600061233f565b565b60008060009054906101000a900473ffffffffffffffffffffffffffffffffffffffff16905090565b6002602052806000526040600020600091509050806000018054611d0390613302565b80601f0160208091040260200160405190810160405280929190818152602001828054611d2f90613302565b8015611d7c5780601f10611d5157610100808354040283529160200191611d7c565b820191906000526020600020905b815481529060010190602001808311611d5f57829003601f168201915b5050505050905081565b80600260003373ffffffffffffffffffffffffffffffffffffffff1673ffffffffffffffffffffffffffffffffffffffff1681526020019081526020016000206000019081611dd59190613754565b5050565b6060611de782336001612403565b60046000838152602001908152602001600020600701805480602002602001604051908101604052809291908181526020016000905b82821015611ebc578382906000526020600020016040518060400160405290816000820160009054906101000a900473ffffffffffffffffffffffffffffffffffffffff1673ffffffffffffffffffffffffffffffffffffffff1673ffffffffffffffffffffffffffffffffffffffff1681526020016000820160149054906101000a900460ff16151515158152505081526020019060010190611e1d565b505050509050919050565b600660009054906101000a900473ffffffffffffffffffffffffffffffffffffffff1681565b60055481565b611efd82336120ad565b611f0982826001612403565b60005b6004600084815260200190815260200160002060070180549050811015612025578173ffffffffffffffffffffffffffffffffffffffff16600460008581526020019081526020016000206007018281548110611f6c57611f6b613375565b5b9060005260206000200160000160009054906101000a900473ffffffffffffffffffffffffffffffffffffffff1673ffffffffffffffffffffffffffffffffffffffff1603612012576001600460008581526020019081526020016000206007018281548110611fdf57611fde613375565b5b9060005260206000200160000160146101000a81548160ff02191690831515021790555061200d83836124c3565b612025565b808061201d906133d3565b915050611f0c565b505050565b6120326122c1565b600073ffffffffffffffffffffffffffffffffffffffff168173ffffffffffffffffffffffffffffffffffffffff16036120a1576040517f08c379a000000000000000000000000000000000000000000000000000000000815260040161209890613d3e565b60405180910390fd5b6120aa8161233f565b50565b8073ffffffffffffffffffffffffffffffffffffffff166004600084815260200190815260200160002060030160009054906101000a900473ffffffffffffffffffffffffffffffffffffffff1673ffffffffffffffffffffffffffffffffffffffff1614612151576040517f08c379a000000000000000000000000000000000000000000000000000000000815260040161214890613daa565b60405180910390fd5b5050565b600060046000838152602001908152602001600020905060005b81600701805490508110156122bc5781600701818154811061219457612193613375565b5b9060005260206000200160000160149054906101000a900460ff16156122a95760008260070182815481106121cc576121cb613375565b5b9060005260206000200160000160009054906101000a900473ffffffffffffffffffffffffffffffffffffffff169050600083600801549050600660009054906101000a900473ffffffffffffffffffffffffffffffffffffffff1673ffffffffffffffffffffffffffffffffffffffff1663a9059cbb83836040518363ffffffff1660e01b8152600401612262929190613868565b6020604051808303816000875af1158015612281573d6000803e3d6000fd5b505050506040513d601f19601f820116820180604052508101906122a59190613df6565b5050505b80806122b4906133d3565b91505061216f565b505050565b6122c9612574565b73ffffffffffffffffffffffffffffffffffffffff166122e7611cb7565b73ffffffffffffffffffffffffffffffffffffffff161461233d576040517f08c379a000000000000000000000000000000000000000000000000000000000815260040161233490613e6f565b60405180910390fd5b565b60008060009054906101000a900473ffffffffffffffffffffffffffffffffffffffff169050816000806101000a81548173ffffffffffffffffffffffffffffffffffffffff021916908373ffffffffffffffffffffffffffffffffffffffff1602179055508173ffffffffffffffffffffffffffffffffffffffff168173ffffffffffffffffffffffffffffffffffffffff167f8be0079c531659141344cd1fd0a4f28419497f9722a3daafe3b4186f6b6457e060405160405180910390a35050565b61240c8361257c565b600061241884846125e4565b9050811515811515148261244457604051806060016040528060238152602001613f336023913961247b565b6040518060400160405280601f81526020017f55736572206973206e6f7420617474656e64696e6720746865206576656e74008152505b906124bc576040517f08c379a00000000000000000000000000000000000000000000000000000000081526004016124b39190613166565b60405180910390fd5b5050505050565b600060046000848152602001908152602001600020600801549050600660009054906101000a900473ffffffffffffffffffffffffffffffffffffffff1673ffffffffffffffffffffffffffffffffffffffff1663a64b6e5f3384846040518463ffffffff1660e01b815260040161253d93929190613e8f565b600060405180830381600087803b15801561255757600080fd5b505af115801561256b573d6000803e3d6000fd5b50505050505050565b600033905090565b600060046000838152602001908152602001600020600101805461259f90613302565b9050116125e1576040517f08c379a00000000000000000000000000000000000000000000000000000000081526004016125d890613f12565b60405180910390fd5b50565b600080600090505b60046000858152602001908152602001600020600701805490508110156126b2578273ffffffffffffffffffffffffffffffffffffffff1660046000868152602001908152602001600020600701828154811061264c5761264b613375565b5b9060005260206000200160000160009054906101000a900473ffffffffffffffffffffffffffffffffffffffff1673ffffffffffffffffffffffffffffffffffffffff160361269f5760019150506126b8565b80806126aa906133d3565b9150506125ec565b50600090505b92915050565b604051806101400160405280600081526020016060815260200160008152602001600073ffffffffffffffffffffffffffffffffffffffff16815260200160008152602001600081526020016000600281111561271e5761271d612893565b5b81526020016060815260200160008152602001600080191681525090565b6000604051905090565b600080fd5b600080fd5b6000819050919050565b61276381612750565b811461276e57600080fd5b50565b6000813590506127808161275a565b92915050565b60006020828403121561279c5761279b612746565b5b60006127aa84828501612771565b91505092915050565b6127bc81612750565b82525050565b600081519050919050565b600082825260208201905092915050565b60005b838110156127fc5780820151818401526020810190506127e1565b60008484015250505050565b6000601f19601f8301169050919050565b6000612824826127c2565b61282e81856127cd565b935061283e8185602086016127de565b61284781612808565b840191505092915050565b600073ffffffffffffffffffffffffffffffffffffffff82169050919050565b600061287d82612852565b9050919050565b61288d81612872565b82525050565b7f4e487b7100000000000000000000000000000000000000000000000000000000600052602160045260246000fd5b600381106128d3576128d2612893565b5b50565b60008190506128e4826128c2565b919050565b60006128f4826128d6565b9050919050565b612904816128e9565b82525050565b6000819050919050565b61291d8161290a565b82525050565b600061012082019050612939600083018c6127b3565b818103602083015261294b818b612819565b905061295a604083018a6127b3565b6129676060830189612884565b61297460808301886127b3565b61298160a08301876127b3565b61298e60c08301866128fb565b61299b60e08301856127b3565b6129a9610100830184612914565b9a9950505050505050505050565b60006020820190506129cc60008301846127b3565b92915050565b6129db81612872565b81146129e657600080fd5b50565b6000813590506129f8816129d2565b92915050565b600060208284031215612a1457612a13612746565b5b6000612a22848285016129e9565b91505092915050565b600081519050919050565b600082825260208201905092915050565b6000819050602082019050919050565b612a6081612750565b82525050565b6000612a728383612a57565b60208301905092915050565b6000602082019050919050565b6000612a9682612a2b565b612aa08185612a36565b9350612aab83612a47565b8060005b83811015612adc578151612ac38882612a66565b9750612ace83612a7e565b925050600181019050612aaf565b5085935050505092915050565b60006020820190508181036000830152612b038184612a8b565b905092915050565b600080fd5b600080fd5b7f4e487b7100000000000000000000000000000000000000000000000000000000600052604160045260246000fd5b612b4d82612808565b810181811067ffffffffffffffff82111715612b6c57612b6b612b15565b5b80604052505050565b6000612b7f61273c565b9050612b8b8282612b44565b919050565b600067ffffffffffffffff821115612bab57612baa612b15565b5b612bb482612808565b9050602081019050919050565b82818337600083830152505050565b6000612be3612bde84612b90565b612b75565b905082815260208101848484011115612bff57612bfe612b10565b5b612c0a848285612bc1565b509392505050565b600082601f830112612c2757612c26612b0b565b5b8135612c37848260208601612bd0565b91505092915050565b60008060408385031215612c5757612c56612746565b5b600083013567ffffffffffffffff811115612c7557612c7461274b565b5b612c8185828601612c12565b9250506020612c92858286016129e9565b9150509250929050565b612ca58161290a565b8114612cb057600080fd5b50565b600081359050612cc281612c9c565b92915050565b60008060408385031215612cdf57612cde612746565b5b6000612ced85828601612cb3565b9250506020612cfe85828601612771565b9150509250929050565b600060208284031215612d1e57612d1d612746565b5b600082013567ffffffffffffffff811115612d3c57612d3b61274b565b5b612d4884828501612c12565b91505092915050565b600081519050919050565b600082825260208201905092915050565b6000819050602082019050919050565b600082825260208201905092915050565b6000612d99826127c2565b612da38185612d7d565b9350612db38185602086016127de565b612dbc81612808565b840191505092915050565b612dd081612872565b82525050565b612ddf816128e9565b82525050565b600081519050919050565b600082825260208201905092915050565b6000819050602082019050919050565b60008115159050919050565b612e2681612e11565b82525050565b604082016000820151612e426000850182612dc7565b506020820151612e556020850182612e1d565b50505050565b6000612e678383612e2c565b60408301905092915050565b6000602082019050919050565b6000612e8b82612de5565b612e958185612df0565b9350612ea083612e01565b8060005b83811015612ed1578151612eb88882612e5b565b9750612ec383612e73565b925050600181019050612ea4565b5085935050505092915050565b612ee78161290a565b82525050565b600061014083016000830151612f066000860182612a57565b5060208301518482036020860152612f1e8282612d8e565b9150506040830151612f336040860182612a57565b506060830151612f466060860182612dc7565b506080830151612f596080860182612a57565b5060a0830151612f6c60a0860182612a57565b5060c0830151612f7f60c0860182612dd6565b5060e083015184820360e0860152612f978282612e80565b915050610100830151612fae610100860182612a57565b50610120830151612fc3610120860182612ede565b508091505092915050565b6000612fda8383612eed565b905092915050565b6000602082019050919050565b6000612ffa82612d51565b6130048185612d5c565b93508360208202850161301685612d6d565b8060005b8581101561305257848403895281516130338582612fce565b945061303e83612fe2565b925060208a0199505060018101905061301a565b50829750879550505050505092915050565b6000602082019050818103600083015261307e8184612fef565b905092915050565b60008060008060008060c087890312156130a3576130a2612746565b5b600087013567ffffffffffffffff8111156130c1576130c061274b565b5b6130cd89828a01612c12565b96505060206130de89828a01612771565b95505060406130ef89828a01612771565b945050606061310089828a01612771565b935050608061311189828a01612771565b92505060a087013567ffffffffffffffff8111156131325761313161274b565b5b61313e89828a01612c12565b9150509295509295509295565b60006020820190506131606000830184612884565b92915050565b600060208201905081810360008301526131808184612819565b905092915050565b600082825260208201905092915050565b60006131a482612de5565b6131ae8185613188565b93506131b983612e01565b8060005b838110156131ea5781516131d18882612e5b565b97506131dc83612e73565b9250506001810190506131bd565b5085935050505092915050565b600060208201905081810360008301526132118184613199565b905092915050565b6000819050919050565b600061323e61323961323484612852565b613219565b612852565b9050919050565b600061325082613223565b9050919050565b600061326282613245565b9050919050565b61327281613257565b82525050565b600060208201905061328d6000830184613269565b92915050565b600080604083850312156132aa576132a9612746565b5b60006132b885828601612771565b92505060206132c9858286016129e9565b9150509250929050565b7f4e487b7100000000000000000000000000000000000000000000000000000000600052602260045260246000fd5b6000600282049050600182168061331a57607f821691505b60208210810361332d5761332c6132d3565b5b50919050565b6000815190506133428161275a565b92915050565b60006020828403121561335e5761335d612746565b5b600061336c84828501613333565b91505092915050565b7f4e487b7100000000000000000000000000000000000000000000000000000000600052603260045260246000fd5b7f4e487b7100000000000000000000000000000000000000000000000000000000600052601160045260246000fd5b60006133de82612750565b91507fffffffffffffffffffffffffffffffffffffffffffffffffffffffffffffffff82036134105761340f6133a4565b5b600182019050919050565b7f4576656e74206e6f7420666f756e642e00000000000000000000000000000000600082015250565b60006134516010836127cd565b915061345c8261341b565b602082019050919050565b6000602082019050818103600083015261348081613444565b9050919050565b600081905092915050565b600061349d826127c2565b6134a78185613487565b93506134b78185602086016127de565b80840191505092915050565b60006134cf8284613492565b915081905092915050565b7f496e76616c69642072657761726420616d6f756e740000000000000000000000600082015250565b60006135106015836127cd565b915061351b826134da565b602082019050919050565b6000602082019050818103600083015261353f81613503565b9050919050565b7f4576656e7420646f6d61696e20697320616c726561647920696e207573650000600082015250565b600061357c601e836127cd565b915061358782613546565b602082019050919050565b600060208201905081810360008301526135ab8161356f565b9050919050565b60008190508160005260206000209050919050565b60006020601f8301049050919050565b600082821b905092915050565b6000600883026136147fffffffffffffffffffffffffffffffffffffffffffffffffffffffffffffffff826135d7565b61361e86836135d7565b95508019841693508086168417925050509392505050565b600061365161364c61364784612750565b613219565b612750565b9050919050565b6000819050919050565b61366b83613636565b61367f61367782613658565b8484546135e4565b825550505050565b600090565b613694613687565b61369f818484613662565b505050565b5b818110156136c3576136b860008261368c565b6001810190506136a5565b5050565b601f821115613708576136d9816135b2565b6136e2846135c7565b810160208510156136f1578190505b6137056136fd856135c7565b8301826136a4565b50505b505050565b600082821c905092915050565b600061372b6000198460080261370d565b1980831691505092915050565b6000613744838361371a565b9150826002028217905092915050565b61375d826127c2565b67ffffffffffffffff81111561377657613775612b15565b5b6137808254613302565b61378b8282856136c7565b600060209050601f8311600181146137be57600084156137ac578287015190505b6137b68582613738565b86555061381e565b601f1984166137cc866135b2565b60005b828110156137f4578489015182556001820191506020850194506020810190506137cf565b86831015613811578489015161380d601f89168261371a565b8355505b6001600288020188555050505b505050505050565b600061383182612750565b915061383c83612750565b925082820261384a81612750565b91508282048414831517613861576138606133a4565b5b5092915050565b600060408201905061387d6000830185612884565b61388a60208301846127b3565b9392505050565b60008160001c9050919050565b6000819050919050565b60006138bb6138b683613891565b61389e565b9050919050565b600081546138cf81613302565b6138d98186612d7d565b945060018216600081146138f4576001811461390a5761393d565b60ff19831686528115156020028601935061393d565b613913856135b2565b60005b8381101561393557815481890152600182019150602081019050613916565b808801955050505b50505092915050565b600073ffffffffffffffffffffffffffffffffffffffff82169050919050565b600061397961397483613891565b613946565b9050919050565b600060ff82169050919050565b60006139a061399b83613891565b613980565b9050919050565b600081549050919050565b60008190508160005260206000209050919050565b60008160a01c9050919050565b600060ff82169050919050565b60006139f46139ef836139c7565b6139d4565b9050919050565b604082016000808301549050613a1081613966565b613a1d6000860182612dc7565b50613a27816139e1565b613a346020860182612e1d565b5050505050565b6000613a4783836139fb565b60408301905092915050565b6000600182019050919050565b6000613a6b826139a7565b613a758185612df0565b9350613a80836139b2565b8060005b83811015613ab05781613a978882613a3b565b9750613aa283613a53565b925050600181019050613a84565b5085935050505092915050565b6000819050919050565b6000613ada613ad583613891565b613abd565b9050919050565b600061014083016000808401549050613af9816138a8565b613b066000870182612a57565b50600184018583036020870152613b1d83826138c2565b92505060028401549050613b30816138a8565b613b3d6040870182612a57565b5060038401549050613b4e81613966565b613b5b6060870182612dc7565b5060048401549050613b6c816138a8565b613b796080870182612a57565b5060058401549050613b8a816138a8565b613b9760a0870182612a57565b5060068401549050613ba88161398d565b613bb560c0870182612dd6565b506007840185830360e0870152613bcc8382613a60565b92505060088401549050613bdf816138a8565b613bed610100870182612a57565b5060098401549050613bfe81613ac7565b613c0c610120870182612ede565b50819250505092915050565b60006020820190508181036000830152613c328184613ae1565b905092915050565b7f4e6f206576656e747320666f756e6420666f722074686520737065636966696560008201527f6420646f6d61696e000000000000000000000000000000000000000000000000602082015250565b6000613c966028836127cd565b9150613ca182613c3a565b604082019050919050565b60006020820190508181036000830152613cc581613c89565b9050919050565b7f4f776e61626c653a206e6577206f776e657220697320746865207a65726f206160008201527f6464726573730000000000000000000000000000000000000000000000000000602082015250565b6000613d286026836127cd565b9150613d3382613ccc565b604082019050919050565b60006020820190508181036000830152613d5781613d1b565b9050919050565b7f5573657220646f6573206e6f74206f776e20746865206576656e740000000000600082015250565b6000613d94601b836127cd565b9150613d9f82613d5e565b602082019050919050565b60006020820190508181036000830152613dc381613d87565b9050919050565b613dd381612e11565b8114613dde57600080fd5b50565b600081519050613df081613dca565b92915050565b600060208284031215613e0c57613e0b612746565b5b6000613e1a84828501613de1565b91505092915050565b7f4f776e61626c653a2063616c6c6572206973206e6f7420746865206f776e6572600082015250565b6000613e596020836127cd565b9150613e6482613e23565b602082019050919050565b60006020820190508181036000830152613e8881613e4c565b9050919050565b6000606082019050613ea46000830186612884565b613eb16020830185612884565b613ebe60408301846127b3565b949350505050565b7f4576656e7420646f6573206e6f74206578697374000000000000000000000000600082015250565b6000613efc6014836127cd565b9150613f0782613ec6565b602082019050919050565b60006020820190508181036000830152613f2b81613eef565b905091905056fe5573657220697320616c726561647920617474656e64696e6720746865206576656e74a264697066735822122087382cf0ae4630cf82fcd0d6d1190090da62b93b61538a00de511737c07dcc9d64736f6c63430008110033",
  "linkReferences": {},
  "deployedLinkReferences": {}
}