{
  "_format": "hh-sol-artifact-1",
  "contractName": "AddnAttend",
  "sourceName": "contracts/AddnAttend.sol",
  "abi": [
    {
      "inputs": [
        {
          "internalType": "address",
          "name": "_myTokenAddress",
          "type": "address"
        }
      ],
      "stateMutability": "nonpayable",
      "type": "constructor"
    },
    {
      "anonymous": false,
      "inputs": [
        {
          "components": [
            {
              "internalType": "uint256",
              "name": "_id",
              "type": "uint256"
            },
            {
              "internalType": "string",
              "name": "_name",
              "type": "string"
            },
            {
              "internalType": "uint256",
              "name": "_seats",
              "type": "uint256"
            },
            {
              "internalType": "address",
              "name": "_owner",
              "type": "address"
            },
            {
              "internalType": "uint256",
              "name": "_startTime",
              "type": "uint256"
            },
            {
              "internalType": "uint256",
              "name": "_endTime",
              "type": "uint256"
            },
            {
              "internalType": "enum AddnAttend.EventStatus",
              "name": "_status",
              "type": "uint8"
            },
            {
              "components": [
                {
                  "internalType": "address",
                  "name": "userAddress",
                  "type": "address"
                },
                {
                  "internalType": "bool",
                  "name": "attended",
                  "type": "bool"
                }
              ],
              "internalType": "struct AddnAttend.EventAttendance[]",
              "name": "_participants",
              "type": "tuple[]"
            },
            {
              "internalType": "uint256",
              "name": "_tokenRewardAmount",
              "type": "uint256"
            },
            {
              "internalType": "bytes32",
              "name": "eventDomain",
              "type": "bytes32"
            },
            {
              "internalType": "string",
              "name": "_eventDomain",
              "type": "string"
            }
          ],
          "indexed": false,
          "internalType": "struct AddnAttend.Event",
          "name": "_event",
          "type": "tuple"
        }
      ],
      "name": "EventEvent",
      "type": "event"
    },
    {
      "anonymous": false,
      "inputs": [
        {
          "indexed": true,
          "internalType": "address",
          "name": "previousOwner",
          "type": "address"
        },
        {
          "indexed": true,
          "internalType": "address",
          "name": "newOwner",
          "type": "address"
        }
      ],
      "name": "OwnershipTransferred",
      "type": "event"
    },
    {
      "inputs": [
        {
          "internalType": "uint256",
          "name": "_eventId",
          "type": "uint256"
        }
      ],
      "name": "cancelEvent",
      "outputs": [],
      "stateMutability": "nonpayable",
      "type": "function"
    },
    {
      "inputs": [
        {
          "internalType": "uint256",
          "name": "_eventId",
          "type": "uint256"
        },
        {
          "internalType": "address",
          "name": "_userAddress",
          "type": "address"
        }
      ],
      "name": "checkInEventParticipant",
      "outputs": [],
      "stateMutability": "nonpayable",
      "type": "function"
    },
    {
      "inputs": [
        {
          "internalType": "string",
          "name": "_eventDomain",
          "type": "string"
        },
        {
          "internalType": "address",
          "name": "_userAddress",
          "type": "address"
        }
      ],
      "name": "checkInEventParticipant2",
      "outputs": [],
      "stateMutability": "nonpayable",
      "type": "function"
    },
    {
      "inputs": [
        {
          "internalType": "uint256",
          "name": "_eventId",
          "type": "uint256"
        }
      ],
      "name": "closeEvent",
      "outputs": [],
      "stateMutability": "nonpayable",
      "type": "function"
    },
    {
      "inputs": [
        {
          "internalType": "string",
          "name": "_name",
          "type": "string"
        },
        {
          "internalType": "uint256",
          "name": "_seats",
          "type": "uint256"
        },
        {
          "internalType": "uint256",
          "name": "_startTime",
          "type": "uint256"
        },
        {
          "internalType": "uint256",
          "name": "_endTime",
          "type": "uint256"
        },
        {
          "internalType": "uint256",
          "name": "_tokenRewardAmount",
          "type": "uint256"
        },
        {
          "internalType": "string",
          "name": "_eventDomain",
          "type": "string"
        }
      ],
      "name": "createEvent",
      "outputs": [],
      "stateMutability": "nonpayable",
      "type": "function"
    },
    {
      "inputs": [
        {
          "internalType": "uint256",
          "name": "",
          "type": "uint256"
        }
      ],
      "name": "events",
      "outputs": [
        {
          "internalType": "uint256",
          "name": "_id",
          "type": "uint256"
        },
        {
          "internalType": "string",
          "name": "_name",
          "type": "string"
        },
        {
          "internalType": "uint256",
          "name": "_seats",
          "type": "uint256"
        },
        {
          "internalType": "address",
          "name": "_owner",
          "type": "address"
        },
        {
          "internalType": "uint256",
          "name": "_startTime",
          "type": "uint256"
        },
        {
          "internalType": "uint256",
          "name": "_endTime",
          "type": "uint256"
        },
        {
          "internalType": "enum AddnAttend.EventStatus",
          "name": "_status",
          "type": "uint8"
        },
        {
          "internalType": "uint256",
          "name": "_tokenRewardAmount",
          "type": "uint256"
        },
        {
          "internalType": "bytes32",
          "name": "eventDomain",
          "type": "bytes32"
        },
        {
          "internalType": "string",
          "name": "_eventDomain",
          "type": "string"
        }
      ],
      "stateMutability": "view",
      "type": "function"
    },
    {
      "inputs": [
        {
          "internalType": "bytes32",
          "name": "",
          "type": "bytes32"
        },
        {
          "internalType": "uint256",
          "name": "",
          "type": "uint256"
        }
      ],
      "name": "eventsByDomain",
      "outputs": [
        {
          "internalType": "uint256",
          "name": "",
          "type": "uint256"
        }
      ],
      "stateMutability": "view",
      "type": "function"
    },
    {
      "inputs": [
        {
          "internalType": "address",
          "name": "userAddress",
          "type": "address"
        }
      ],
      "name": "getAttendeesListByUser",
      "outputs": [
        {
          "internalType": "uint256[]",
          "name": "",
          "type": "uint256[]"
        }
      ],
      "stateMutability": "view",
      "type": "function"
    },
    {
      "inputs": [],
      "name": "getBalance",
      "outputs": [
        {
          "internalType": "uint256",
          "name": "",
          "type": "uint256"
        }
      ],
      "stateMutability": "view",
      "type": "function"
    },
    {
      "inputs": [
        {
          "internalType": "address",
          "name": "user",
          "type": "address"
        }
      ],
      "name": "getBalance2",
      "outputs": [
        {
          "internalType": "uint256",
          "name": "",
          "type": "uint256"
        }
      ],
      "stateMutability": "view",
      "type": "function"
    },
    {
      "inputs": [],
      "name": "getContractOwner",
      "outputs": [
        {
          "internalType": "address",
          "name": "",
          "type": "address"
        }
      ],
      "stateMutability": "view",
      "type": "function"
    },
    {
      "inputs": [
        {
          "internalType": "uint256",
          "name": "_eventId",
          "type": "uint256"
        }
      ],
      "name": "getEventParticipants",
      "outputs": [
        {
          "components": [
            {
              "internalType": "address",
              "name": "userAddress",
              "type": "address"
            },
            {
              "internalType": "bool",
              "name": "attended",
              "type": "bool"
            }
          ],
          "internalType": "struct AddnAttend.EventAttendance[]",
          "name": "",
          "type": "tuple[]"
        }
      ],
      "stateMutability": "view",
      "type": "function"
    },
    {
      "inputs": [],
      "name": "getEvents",
      "outputs": [
        {
          "components": [
            {
              "internalType": "uint256",
              "name": "_id",
              "type": "uint256"
            },
            {
              "internalType": "string",
              "name": "_name",
              "type": "string"
            },
            {
              "internalType": "uint256",
              "name": "_seats",
              "type": "uint256"
            },
            {
              "internalType": "address",
              "name": "_owner",
              "type": "address"
            },
            {
              "internalType": "uint256",
              "name": "_startTime",
              "type": "uint256"
            },
            {
              "internalType": "uint256",
              "name": "_endTime",
              "type": "uint256"
            },
            {
              "internalType": "enum AddnAttend.EventStatus",
              "name": "_status",
              "type": "uint8"
            },
            {
              "components": [
                {
                  "internalType": "address",
                  "name": "userAddress",
                  "type": "address"
                },
                {
                  "internalType": "bool",
                  "name": "attended",
                  "type": "bool"
                }
              ],
              "internalType": "struct AddnAttend.EventAttendance[]",
              "name": "_participants",
              "type": "tuple[]"
            },
            {
              "internalType": "uint256",
              "name": "_tokenRewardAmount",
              "type": "uint256"
            },
            {
              "internalType": "bytes32",
              "name": "eventDomain",
              "type": "bytes32"
            },
            {
              "internalType": "string",
              "name": "_eventDomain",
              "type": "string"
            }
          ],
          "internalType": "struct AddnAttend.Event[]",
          "name": "",
          "type": "tuple[]"
        }
      ],
      "stateMutability": "view",
      "type": "function"
    },
    {
      "inputs": [
        {
          "internalType": "string",
          "name": "_eventDomain",
          "type": "string"
        }
      ],
      "name": "getEventsByDomain",
      "outputs": [
        {
          "components": [
            {
              "internalType": "uint256",
              "name": "_id",
              "type": "uint256"
            },
            {
              "internalType": "string",
              "name": "_name",
              "type": "string"
            },
            {
              "internalType": "uint256",
              "name": "_seats",
              "type": "uint256"
            },
            {
              "internalType": "address",
              "name": "_owner",
              "type": "address"
            },
            {
              "internalType": "uint256",
              "name": "_startTime",
              "type": "uint256"
            },
            {
              "internalType": "uint256",
              "name": "_endTime",
              "type": "uint256"
            },
            {
              "internalType": "enum AddnAttend.EventStatus",
              "name": "_status",
              "type": "uint8"
            },
            {
              "components": [
                {
                  "internalType": "address",
                  "name": "userAddress",
                  "type": "address"
                },
                {
                  "internalType": "bool",
                  "name": "attended",
                  "type": "bool"
                }
              ],
              "internalType": "struct AddnAttend.EventAttendance[]",
              "name": "_participants",
              "type": "tuple[]"
            },
            {
              "internalType": "uint256",
              "name": "_tokenRewardAmount",
              "type": "uint256"
            },
            {
              "internalType": "bytes32",
              "name": "eventDomain",
              "type": "bytes32"
            },
            {
              "internalType": "string",
              "name": "_eventDomain",
              "type": "string"
            }
          ],
          "internalType": "struct AddnAttend.Event[]",
          "name": "",
          "type": "tuple[]"
        }
      ],
      "stateMutability": "view",
      "type": "function"
    },
    {
      "inputs": [
        {
          "internalType": "address",
          "name": "userAddress",
          "type": "address"
        }
      ],
      "name": "getEventsOrganisedByUser",
      "outputs": [
        {
          "components": [
            {
              "internalType": "uint256",
              "name": "_id",
              "type": "uint256"
            },
            {
              "internalType": "string",
              "name": "_name",
              "type": "string"
            },
            {
              "internalType": "uint256",
              "name": "_seats",
              "type": "uint256"
            },
            {
              "internalType": "address",
              "name": "_owner",
              "type": "address"
            },
            {
              "internalType": "uint256",
              "name": "_startTime",
              "type": "uint256"
            },
            {
              "internalType": "uint256",
              "name": "_endTime",
              "type": "uint256"
            },
            {
              "internalType": "enum AddnAttend.EventStatus",
              "name": "_status",
              "type": "uint8"
            },
            {
              "components": [
                {
                  "internalType": "address",
                  "name": "userAddress",
                  "type": "address"
                },
                {
                  "internalType": "bool",
                  "name": "attended",
                  "type": "bool"
                }
              ],
              "internalType": "struct AddnAttend.EventAttendance[]",
              "name": "_participants",
              "type": "tuple[]"
            },
            {
              "internalType": "uint256",
              "name": "_tokenRewardAmount",
              "type": "uint256"
            },
            {
              "internalType": "bytes32",
              "name": "eventDomain",
              "type": "bytes32"
            },
            {
              "internalType": "string",
              "name": "_eventDomain",
              "type": "string"
            }
          ],
          "internalType": "struct AddnAttend.Event[]",
          "name": "",
          "type": "tuple[]"
        }
      ],
      "stateMutability": "view",
      "type": "function"
    },
    {
      "inputs": [],
      "name": "myToken",
      "outputs": [
        {
          "internalType": "contract eventToken",
          "name": "",
          "type": "address"
        }
      ],
      "stateMutability": "view",
      "type": "function"
    },
    {
      "inputs": [],
      "name": "nEvents",
      "outputs": [
        {
          "internalType": "uint256",
          "name": "",
          "type": "uint256"
        }
      ],
      "stateMutability": "view",
      "type": "function"
    },
    {
      "inputs": [],
      "name": "owner",
      "outputs": [
        {
          "internalType": "address",
          "name": "",
          "type": "address"
        }
      ],
      "stateMutability": "view",
      "type": "function"
    },
    {
      "inputs": [
        {
          "internalType": "string",
          "name": "_eventDomain",
          "type": "string"
        }
      ],
      "name": "registerToEvent",
      "outputs": [],
      "stateMutability": "nonpayable",
      "type": "function"
    },
    {
      "inputs": [],
      "name": "renounceOwnership",
      "outputs": [],
      "stateMutability": "nonpayable",
      "type": "function"
    },
    {
      "inputs": [
        {
          "internalType": "address",
          "name": "newOwner",
          "type": "address"
        }
      ],
      "name": "transferOwnership",
      "outputs": [],
      "stateMutability": "nonpayable",
      "type": "function"
    },
    {
      "inputs": [
        {
          "internalType": "string",
          "name": "_name",
          "type": "string"
        }
      ],
      "name": "updateUserProfile",
      "outputs": [],
      "stateMutability": "nonpayable",
      "type": "function"
    },
    {
      "inputs": [
        {
          "internalType": "address",
          "name": "",
          "type": "address"
        }
      ],
      "name": "users",
      "outputs": [
        {
          "internalType": "string",
          "name": "name",
          "type": "string"
        }
      ],
      "stateMutability": "view",
      "type": "function"
    }
  ],
  "bytecode": "0x60806040523480156200001157600080fd5b50604051620045873803806200458783398181016040528101906200003791906200021e565b620000576200004b620000e860201b60201c565b620000f060201b60201c565b33600160006101000a81548173ffffffffffffffffffffffffffffffffffffffff021916908373ffffffffffffffffffffffffffffffffffffffff16021790555080600660006101000a81548173ffffffffffffffffffffffffffffffffffffffff021916908373ffffffffffffffffffffffffffffffffffffffff16021790555060006005819055505062000250565b600033905090565b60008060009054906101000a900473ffffffffffffffffffffffffffffffffffffffff169050816000806101000a81548173ffffffffffffffffffffffffffffffffffffffff021916908373ffffffffffffffffffffffffffffffffffffffff1602179055508173ffffffffffffffffffffffffffffffffffffffff168173ffffffffffffffffffffffffffffffffffffffff167f8be0079c531659141344cd1fd0a4f28419497f9722a3daafe3b4186f6b6457e060405160405180910390a35050565b600080fd5b600073ffffffffffffffffffffffffffffffffffffffff82169050919050565b6000620001e682620001b9565b9050919050565b620001f881620001d9565b81146200020457600080fd5b50565b6000815190506200021881620001ed565b92915050565b600060208284031215620002375762000236620001b4565b5b6000620002478482850162000207565b91505092915050565b61432780620002606000396000f3fe608060405234801561001057600080fd5b506004361061014d5760003560e01c8063442890d5116100c3578063ae86ffdb1161007c578063ae86ffdb146103b9578063b50e0182146103d5578063b8fcf93714610405578063bca321e514610423578063eb91328714610441578063f2fde38b1461045d5761014d565b8063442890d5146102f75780635a3ad35a146103155780635b61cf2314610345578063715018a6146103615780638da5cb5b1461036b578063a87430ba146103895761014d565b80631dd67cde116101155780631dd67cde146102255780632abed35f146102555780632ee07c00146102855780633f69babd146102a1578063404aa8f9146102bd578063429030ba146102db5761014d565b80630a46516b146101525780630b7914301461018257806312065fe0146101bb57806314a0573c146101d957806315f5b6c414610209575b600080fd5b61016c60048036038101906101679190612afe565b610479565b6040516101799190612b44565b60405180910390f35b61019c60048036038101906101979190612b8b565b61051e565b6040516101b29a99989796959493929190612ce7565b60405180910390f35b6101c36106af565b6040516101d09190612b44565b60405180910390f35b6101f360048036038101906101ee9190612afe565b610752565b6040516102009190612e4f565b60405180910390f35b610223600480360381019061021e9190612fa6565b61089b565b005b61023f600480360381019061023a919061302e565b610939565b60405161024c9190612b44565b60405180910390f35b61026f600480360381019061026a919061306e565b61096a565b60405161027c91906133e6565b60405180910390f35b61029f600480360381019061029a9190612b8b565b610d95565b005b6102bb60048036038101906102b69190612b8b565b610dea565b005b6102c5610e36565b6040516102d291906133e6565b60405180910390f35b6102f560048036038101906102f09190613408565b6111b4565b005b6102ff611705565b60405161030c91906134cd565b60405180910390f35b61032f600480360381019061032a9190612afe565b61172f565b60405161033c91906133e6565b60405180910390f35b61035f600480360381019061035a919061306e565b611cc0565b005b610369611fec565b005b610373612000565b60405161038091906134cd565b60405180910390f35b6103a3600480360381019061039e9190612afe565b612029565b6040516103b091906134e8565b60405180910390f35b6103d360048036038101906103ce919061306e565b6120cf565b005b6103ef60048036038101906103ea9190612b8b565b612122565b6040516103fc9190613579565b60405180910390f35b61040d612210565b60405161041a91906135fa565b60405180910390f35b61042b612236565b6040516104389190612b44565b60405180910390f35b61045b60048036038101906104569190613615565b61223c565b005b61047760048036038101906104729190612afe565b612373565b005b6000600660009054906101000a900473ffffffffffffffffffffffffffffffffffffffff1673ffffffffffffffffffffffffffffffffffffffff166370a08231836040518263ffffffff1660e01b81526004016104d691906134cd565b602060405180830381865afa1580156104f3573d6000803e3d6000fd5b505050506040513d601f19601f82011682018060405250810190610517919061366a565b9050919050565b6004602052806000526040600020600091509050806000015490806001018054610547906136c6565b80601f0160208091040260200160405190810160405280929190818152602001828054610573906136c6565b80156105c05780601f10610595576101008083540402835291602001916105c0565b820191906000526020600020905b8154815290600101906020018083116105a357829003601f168201915b5050505050908060020154908060030160009054906101000a900473ffffffffffffffffffffffffffffffffffffffff16908060040154908060050154908060060160009054906101000a900460ff169080600801549080600901549080600a01805461062c906136c6565b80601f0160208091040260200160405190810160405280929190818152602001828054610658906136c6565b80156106a55780601f1061067a576101008083540402835291602001916106a5565b820191906000526020600020905b81548152906001019060200180831161068857829003601f168201915b505050505090508a565b6000600660009054906101000a900473ffffffffffffffffffffffffffffffffffffffff1673ffffffffffffffffffffffffffffffffffffffff166370a08231336040518263ffffffff1660e01b815260040161070c91906134cd565b602060405180830381865afa158015610729573d6000803e3d6000fd5b505050506040513d601f19601f8201168201806040525081019061074d919061366a565b905090565b60606000600260008473ffffffffffffffffffffffffffffffffffffffff1673ffffffffffffffffffffffffffffffffffffffff1681526020019081526020016000206001018054806020026020016040519081016040528092919081815260200182805480156107e257602002820191906000526020600020905b8154815260200190600101908083116107ce575b505050505090506000815167ffffffffffffffff81111561080657610805612e7b565b5b6040519080825280602002602001820160405280156108345781602001602082028036833780820191505090505b50905060005b825181101561089057828181518110610856576108556136f7565b5b6020026020010151828281518110610871576108706136f7565b5b602002602001018181525050808061088890613755565b91505061083a565b508092505050919050565b60006108a68361096a565b90506000816000815181106108be576108bd6136f7565b5b602002602001015160000151101561090b576040517f08c379a0000000000000000000000000000000000000000000000000000000008152600401610902906137e9565b60405180910390fd5b61093481600081518110610922576109216136f7565b5b6020026020010151600001518361223c565b505050565b6003602052816000526040600020818154811061095557600080fd5b90600052602060002001600091509150505481565b606060008260405160200161097f9190613845565b6040516020818303038152906040528051906020012090506000600360008381526020019081526020016000208054806020026020016040519081016040528092919081815260200182805480156109f657602002820191906000526020600020905b8154815260200190600101908083116109e2575b505050505090506000815167ffffffffffffffff811115610a1a57610a19612e7b565b5b604051908082528060200260200182016040528015610a5357816020015b610a40612a07565b815260200190600190039081610a385790505b50905060005b8251811015610d895760046000848381518110610a7957610a786136f7565b5b602002602001015181526020019081526020016000206040518061016001604052908160008201548152602001600182018054610ab5906136c6565b80601f0160208091040260200160405190810160405280929190818152602001828054610ae1906136c6565b8015610b2e5780601f10610b0357610100808354040283529160200191610b2e565b820191906000526020600020905b815481529060010190602001808311610b1157829003601f168201915b50505050508152602001600282015481526020016003820160009054906101000a900473ffffffffffffffffffffffffffffffffffffffff1673ffffffffffffffffffffffffffffffffffffffff1673ffffffffffffffffffffffffffffffffffffffff16815260200160048201548152602001600582015481526020016006820160009054906101000a900460ff166002811115610bd057610bcf612c57565b5b6002811115610be257610be1612c57565b5b815260200160078201805480602002602001604051908101604052809291908181526020016000905b82821015610caa578382906000526020600020016040518060400160405290816000820160009054906101000a900473ffffffffffffffffffffffffffffffffffffffff1673ffffffffffffffffffffffffffffffffffffffff1673ffffffffffffffffffffffffffffffffffffffff1681526020016000820160149054906101000a900460ff16151515158152505081526020019060010190610c0b565b5050505081526020016008820154815260200160098201548152602001600a82018054610cd6906136c6565b80601f0160208091040260200160405190810160405280929190818152602001828054610d02906136c6565b8015610d4f5780601f10610d2457610100808354040283529160200191610d4f565b820191906000526020600020905b815481529060010190602001808311610d3257829003601f168201915b505050505081525050828281518110610d6b57610d6a6136f7565b5b60200260200101819052508080610d8190613755565b915050610a59565b50809350505050919050565b610d9f81336123f6565b60016004600083815260200190815260200160002060060160006101000a81548160ff02191690836002811115610dd957610dd8612c57565b5b0217905550610de78161249e565b50565b610df481336123f6565b60026004600083815260200190815260200160002060060160006101000a81548160ff02191690836002811115610e2e57610e2d612c57565b5b021790555050565b6060600060055467ffffffffffffffff811115610e5657610e55612e7b565b5b604051908082528060200260200182016040528015610e8f57816020015b610e7c612a07565b815260200190600190039081610e745790505b50905060005b6005548110156111ac57600460008281526020019081526020016000206040518061016001604052908160008201548152602001600182018054610ed8906136c6565b80601f0160208091040260200160405190810160405280929190818152602001828054610f04906136c6565b8015610f515780601f10610f2657610100808354040283529160200191610f51565b820191906000526020600020905b815481529060010190602001808311610f3457829003601f168201915b50505050508152602001600282015481526020016003820160009054906101000a900473ffffffffffffffffffffffffffffffffffffffff1673ffffffffffffffffffffffffffffffffffffffff1673ffffffffffffffffffffffffffffffffffffffff16815260200160048201548152602001600582015481526020016006820160009054906101000a900460ff166002811115610ff357610ff2612c57565b5b600281111561100557611004612c57565b5b815260200160078201805480602002602001604051908101604052809291908181526020016000905b828210156110cd578382906000526020600020016040518060400160405290816000820160009054906101000a900473ffffffffffffffffffffffffffffffffffffffff1673ffffffffffffffffffffffffffffffffffffffff1673ffffffffffffffffffffffffffffffffffffffff1681526020016000820160149054906101000a900460ff1615151515815250508152602001906001019061102e565b5050505081526020016008820154815260200160098201548152602001600a820180546110f9906136c6565b80601f0160208091040260200160405190810160405280929190818152602001828054611125906136c6565b80156111725780601f1061114757610100808354040283529160200191611172565b820191906000526020600020905b81548152906001019060200180831161115557829003601f168201915b50505050508152505082828151811061118e5761118d6136f7565b5b602002602001018190525080806111a490613755565b915050610e95565b508091505090565b60008210156111f8576040517f08c379a00000000000000000000000000000000000000000000000000000000081526004016111ef906138a8565b60405180910390fd5b60008160405160200161120b9190613845565b60405160208183030381529060405280519060200120905060006003600083815260200190815260200160002080548060200260200160405190810160405280929190818152602001828054801561128257602002820191906000526020600020905b81548152602001906001019080831161126e575b5050505050905060008151146112cd576040517f08c379a00000000000000000000000000000000000000000000000000000000081526004016112c490613914565b60405180910390fd5b6000600560008154809291906112e290613755565b919050559050806004600083815260200190815260200160002060000181905550886004600083815260200190815260200160002060010190816113269190613ad6565b508360046000838152602001908152602001600020600a01908161134a9190613ad6565b50876004600083815260200190815260200160002060020181905550336004600083815260200190815260200160002060030160006101000a81548173ffffffffffffffffffffffffffffffffffffffff021916908373ffffffffffffffffffffffffffffffffffffffff16021790555086600460008381526020019081526020016000206004018190555085600460008381526020019081526020016000206005018190555060006004600083815260200190815260200160002060060160006101000a81548160ff0219169083600281111561142b5761142a612c57565b5b02179055506004600082815260200190815260200160002060070160405180604001604052803373ffffffffffffffffffffffffffffffffffffffff168152602001600115158152509080600181540180825580915050600190039060005260206000200160009091909190915060008201518160000160006101000a81548173ffffffffffffffffffffffffffffffffffffffff021916908373ffffffffffffffffffffffffffffffffffffffff16021790555060208201518160000160146101000a81548160ff02191690831515021790555050508460046000838152602001908152602001600020600801819055508360405160200161152e9190613845565b604051602081830303815290604052805190602001206004600083815260200190815260200160002060090181905550600260003373ffffffffffffffffffffffffffffffffffffffff1673ffffffffffffffffffffffffffffffffffffffff168152602001908152602001600020600101819080600181540180825580915050600190039060005260206000200160009091909190915055600660009054906101000a900473ffffffffffffffffffffffffffffffffffffffff1673ffffffffffffffffffffffffffffffffffffffff166340c10f19338a886116129190613ba8565b6040518363ffffffff1660e01b815260040161162f929190613bea565b600060405180830381600087803b15801561164957600080fd5b505af115801561165d573d6000803e3d6000fd5b505050507f4e901a0c3ae85872369ea1df67bd5b39307499fbe742bbd322eb083ba7bccabd600460008381526020019081526020016000206040516116a29190613fb4565b60405180910390a16003600060046000848152602001908152602001600020600901548152602001908152602001600020819080600181540180825580915050600190039060005260206000200160009091909190915055505050505050505050565b6000600160009054906101000a900473ffffffffffffffffffffffffffffffffffffffff16905090565b60606000600260008473ffffffffffffffffffffffffffffffffffffffff1673ffffffffffffffffffffffffffffffffffffffff1681526020019081526020016000206001018054905067ffffffffffffffff81111561179257611791612e7b565b5b6040519080825280602002602001820160405280156117c05781602001602082028036833780820191505090505b5090506000805b600260008673ffffffffffffffffffffffffffffffffffffffff1673ffffffffffffffffffffffffffffffffffffffff16815260200190815260200160002060010180549050811015611923576000600260008773ffffffffffffffffffffffffffffffffffffffff1673ffffffffffffffffffffffffffffffffffffffff168152602001908152602001600020600101828154811061186a576118696136f7565b5b906000526020600020015490508573ffffffffffffffffffffffffffffffffffffffff166004600083815260200190815260200160002060030160009054906101000a900473ffffffffffffffffffffffffffffffffffffffff1673ffffffffffffffffffffffffffffffffffffffff160361190f57808484815181106118f4576118f36136f7565b5b602002602001018181525050828061190b90613755565b9350505b50808061191b90613755565b9150506117c7565b5060008167ffffffffffffffff8111156119405761193f612e7b565b5b60405190808252806020026020018201604052801561197957816020015b611966612a07565b81526020019060019003908161195e5790505b50905060005b82811015611cb457600084828151811061199c5761199b6136f7565b5b602002602001015190506004600082815260200190815260200160002060405180610160016040529081600082015481526020016001820180546119df906136c6565b80601f0160208091040260200160405190810160405280929190818152602001828054611a0b906136c6565b8015611a585780601f10611a2d57610100808354040283529160200191611a58565b820191906000526020600020905b815481529060010190602001808311611a3b57829003601f168201915b50505050508152602001600282015481526020016003820160009054906101000a900473ffffffffffffffffffffffffffffffffffffffff1673ffffffffffffffffffffffffffffffffffffffff1673ffffffffffffffffffffffffffffffffffffffff16815260200160048201548152602001600582015481526020016006820160009054906101000a900460ff166002811115611afa57611af9612c57565b5b6002811115611b0c57611b0b612c57565b5b815260200160078201805480602002602001604051908101604052809291908181526020016000905b82821015611bd4578382906000526020600020016040518060400160405290816000820160009054906101000a900473ffffffffffffffffffffffffffffffffffffffff1673ffffffffffffffffffffffffffffffffffffffff1673ffffffffffffffffffffffffffffffffffffffff1681526020016000820160149054906101000a900460ff16151515158152505081526020019060010190611b35565b5050505081526020016008820154815260200160098201548152602001600a82018054611c00906136c6565b80601f0160208091040260200160405190810160405280929190818152602001828054611c2c906136c6565b8015611c795780601f10611c4e57610100808354040283529160200191611c79565b820191906000526020600020905b815481529060010190602001808311611c5c57829003601f168201915b505050505081525050838381518110611c9557611c946136f7565b5b6020026020010181905250508080611cac90613755565b91505061197f565b50809350505050919050565b600081604051602001611cd39190613845565b604051602081830303815290604052805190602001209050600060036000838152602001908152602001600020805480602002602001604051908101604052809291908181526020018280548015611d4a57602002820191906000526020600020905b815481526020019060010190808311611d36575b505050505090506000815111611d95576040517f08c379a0000000000000000000000000000000000000000000000000000000008152600401611d8c90614048565b60405180910390fd5b6000805b8251811015611fe5576000838281518110611db757611db66136f7565b5b6020026020010151905082611fd15760005b6004600083815260200190815260200160002060070180549050811015611e8e573373ffffffffffffffffffffffffffffffffffffffff16600460008481526020019081526020016000206007018281548110611e2957611e286136f7565b5b9060005260206000200160000160009054906101000a900473ffffffffffffffffffffffffffffffffffffffff1673ffffffffffffffffffffffffffffffffffffffff1603611e7b5760019350611e8e565b8080611e8690613755565b915050611dc9565b5082611fd0576004600082815260200190815260200160002060070160405180604001604052803373ffffffffffffffffffffffffffffffffffffffff168152602001600015158152509080600181540180825580915050600190039060005260206000200160009091909190915060008201518160000160006101000a81548173ffffffffffffffffffffffffffffffffffffffff021916908373ffffffffffffffffffffffffffffffffffffffff16021790555060208201518160000160146101000a81548160ff0219169083151502179055505050600260003373ffffffffffffffffffffffffffffffffffffffff1673ffffffffffffffffffffffffffffffffffffffff1681526020019081526020016000206001018190806001815401808255809150506001900390600052602060002001600090919091909150555b5b508080611fdd90613755565b915050611d99565b5050505050565b611ff461260a565b611ffe6000612688565b565b60008060009054906101000a900473ffffffffffffffffffffffffffffffffffffffff16905090565b600260205280600052604060002060009150905080600001805461204c906136c6565b80601f0160208091040260200160405190810160405280929190818152602001828054612078906136c6565b80156120c55780601f1061209a576101008083540402835291602001916120c5565b820191906000526020600020905b8154815290600101906020018083116120a857829003601f168201915b5050505050905081565b80600260003373ffffffffffffffffffffffffffffffffffffffff1673ffffffffffffffffffffffffffffffffffffffff168152602001908152602001600020600001908161211e9190613ad6565b5050565b60606121308233600161274c565b60046000838152602001908152602001600020600701805480602002602001604051908101604052809291908181526020016000905b82821015612205578382906000526020600020016040518060400160405290816000820160009054906101000a900473ffffffffffffffffffffffffffffffffffffffff1673ffffffffffffffffffffffffffffffffffffffff1673ffffffffffffffffffffffffffffffffffffffff1681526020016000820160149054906101000a900460ff16151515158152505081526020019060010190612166565b505050509050919050565b600660009054906101000a900473ffffffffffffffffffffffffffffffffffffffff1681565b60055481565b61224682336123f6565b6122528282600161274c565b60005b600460008481526020019081526020016000206007018054905081101561236e578173ffffffffffffffffffffffffffffffffffffffff166004600085815260200190815260200160002060070182815481106122b5576122b46136f7565b5b9060005260206000200160000160009054906101000a900473ffffffffffffffffffffffffffffffffffffffff1673ffffffffffffffffffffffffffffffffffffffff160361235b576001600460008581526020019081526020016000206007018281548110612328576123276136f7565b5b9060005260206000200160000160146101000a81548160ff021916908315150217905550612356838361280c565b61236e565b808061236690613755565b915050612255565b505050565b61237b61260a565b600073ffffffffffffffffffffffffffffffffffffffff168173ffffffffffffffffffffffffffffffffffffffff16036123ea576040517f08c379a00000000000000000000000000000000000000000000000000000000081526004016123e1906140da565b60405180910390fd5b6123f381612688565b50565b8073ffffffffffffffffffffffffffffffffffffffff166004600084815260200190815260200160002060030160009054906101000a900473ffffffffffffffffffffffffffffffffffffffff1673ffffffffffffffffffffffffffffffffffffffff161461249a576040517f08c379a000000000000000000000000000000000000000000000000000000000815260040161249190614146565b60405180910390fd5b5050565b600060046000838152602001908152602001600020905060005b8160070180549050811015612605578160070181815481106124dd576124dc6136f7565b5b9060005260206000200160000160149054906101000a900460ff16156125f2576000826007018281548110612515576125146136f7565b5b9060005260206000200160000160009054906101000a900473ffffffffffffffffffffffffffffffffffffffff169050600083600801549050600660009054906101000a900473ffffffffffffffffffffffffffffffffffffffff1673ffffffffffffffffffffffffffffffffffffffff1663a9059cbb83836040518363ffffffff1660e01b81526004016125ab929190613bea565b6020604051808303816000875af11580156125ca573d6000803e3d6000fd5b505050506040513d601f19601f820116820180604052508101906125ee9190614192565b5050505b80806125fd90613755565b9150506124b8565b505050565b6126126128bd565b73ffffffffffffffffffffffffffffffffffffffff16612630612000565b73ffffffffffffffffffffffffffffffffffffffff1614612686576040517f08c379a000000000000000000000000000000000000000000000000000000000815260040161267d9061420b565b60405180910390fd5b565b60008060009054906101000a900473ffffffffffffffffffffffffffffffffffffffff169050816000806101000a81548173ffffffffffffffffffffffffffffffffffffffff021916908373ffffffffffffffffffffffffffffffffffffffff1602179055508173ffffffffffffffffffffffffffffffffffffffff168173ffffffffffffffffffffffffffffffffffffffff167f8be0079c531659141344cd1fd0a4f28419497f9722a3daafe3b4186f6b6457e060405160405180910390a35050565b612755836128c5565b6000612761848461292d565b9050811515811515148261278d576040518060600160405280602381526020016142cf602391396127c4565b6040518060400160405280601f81526020017f55736572206973206e6f7420617474656e64696e6720746865206576656e74008152505b90612805576040517f08c379a00000000000000000000000000000000000000000000000000000000081526004016127fc91906134e8565b60405180910390fd5b5050505050565b600060046000848152602001908152602001600020600801549050600660009054906101000a900473ffffffffffffffffffffffffffffffffffffffff1673ffffffffffffffffffffffffffffffffffffffff1663a64b6e5f3384846040518463ffffffff1660e01b81526004016128869392919061422b565b600060405180830381600087803b1580156128a057600080fd5b505af11580156128b4573d6000803e3d6000fd5b50505050505050565b600033905090565b60006004600083815260200190815260200160002060010180546128e8906136c6565b90501161292a576040517f08c379a0000000000000000000000000000000000000000000000000000000008152600401612921906142ae565b60405180910390fd5b50565b600080600090505b60046000858152602001908152602001600020600701805490508110156129fb578273ffffffffffffffffffffffffffffffffffffffff16600460008681526020019081526020016000206007018281548110612995576129946136f7565b5b9060005260206000200160000160009054906101000a900473ffffffffffffffffffffffffffffffffffffffff1673ffffffffffffffffffffffffffffffffffffffff16036129e8576001915050612a01565b80806129f390613755565b915050612935565b50600090505b92915050565b604051806101600160405280600081526020016060815260200160008152602001600073ffffffffffffffffffffffffffffffffffffffff168152602001600081526020016000815260200160006002811115612a6757612a66612c57565b5b8152602001606081526020016000815260200160008019168152602001606081525090565b6000604051905090565b600080fd5b600080fd5b600073ffffffffffffffffffffffffffffffffffffffff82169050919050565b6000612acb82612aa0565b9050919050565b612adb81612ac0565b8114612ae657600080fd5b50565b600081359050612af881612ad2565b92915050565b600060208284031215612b1457612b13612a96565b5b6000612b2284828501612ae9565b91505092915050565b6000819050919050565b612b3e81612b2b565b82525050565b6000602082019050612b596000830184612b35565b92915050565b612b6881612b2b565b8114612b7357600080fd5b50565b600081359050612b8581612b5f565b92915050565b600060208284031215612ba157612ba0612a96565b5b6000612baf84828501612b76565b91505092915050565b600081519050919050565b600082825260208201905092915050565b60005b83811015612bf2578082015181840152602081019050612bd7565b60008484015250505050565b6000601f19601f8301169050919050565b6000612c1a82612bb8565b612c248185612bc3565b9350612c34818560208601612bd4565b612c3d81612bfe565b840191505092915050565b612c5181612ac0565b82525050565b7f4e487b7100000000000000000000000000000000000000000000000000000000600052602160045260246000fd5b60038110612c9757612c96612c57565b5b50565b6000819050612ca882612c86565b919050565b6000612cb882612c9a565b9050919050565b612cc881612cad565b82525050565b6000819050919050565b612ce181612cce565b82525050565b600061014082019050612cfd600083018d612b35565b8181036020830152612d0f818c612c0f565b9050612d1e604083018b612b35565b612d2b606083018a612c48565b612d386080830189612b35565b612d4560a0830188612b35565b612d5260c0830187612cbf565b612d5f60e0830186612b35565b612d6d610100830185612cd8565b818103610120830152612d808184612c0f565b90509b9a5050505050505050505050565b600081519050919050565b600082825260208201905092915050565b6000819050602082019050919050565b612dc681612b2b565b82525050565b6000612dd88383612dbd565b60208301905092915050565b6000602082019050919050565b6000612dfc82612d91565b612e068185612d9c565b9350612e1183612dad565b8060005b83811015612e42578151612e298882612dcc565b9750612e3483612de4565b925050600181019050612e15565b5085935050505092915050565b60006020820190508181036000830152612e698184612df1565b905092915050565b600080fd5b600080fd5b7f4e487b7100000000000000000000000000000000000000000000000000000000600052604160045260246000fd5b612eb382612bfe565b810181811067ffffffffffffffff82111715612ed257612ed1612e7b565b5b80604052505050565b6000612ee5612a8c565b9050612ef18282612eaa565b919050565b600067ffffffffffffffff821115612f1157612f10612e7b565b5b612f1a82612bfe565b9050602081019050919050565b82818337600083830152505050565b6000612f49612f4484612ef6565b612edb565b905082815260208101848484011115612f6557612f64612e76565b5b612f70848285612f27565b509392505050565b600082601f830112612f8d57612f8c612e71565b5b8135612f9d848260208601612f36565b91505092915050565b60008060408385031215612fbd57612fbc612a96565b5b600083013567ffffffffffffffff811115612fdb57612fda612a9b565b5b612fe785828601612f78565b9250506020612ff885828601612ae9565b9150509250929050565b61300b81612cce565b811461301657600080fd5b50565b60008135905061302881613002565b92915050565b6000806040838503121561304557613044612a96565b5b600061305385828601613019565b925050602061306485828601612b76565b9150509250929050565b60006020828403121561308457613083612a96565b5b600082013567ffffffffffffffff8111156130a2576130a1612a9b565b5b6130ae84828501612f78565b91505092915050565b600081519050919050565b600082825260208201905092915050565b6000819050602082019050919050565b600082825260208201905092915050565b60006130ff82612bb8565b61310981856130e3565b9350613119818560208601612bd4565b61312281612bfe565b840191505092915050565b61313681612ac0565b82525050565b61314581612cad565b82525050565b600081519050919050565b600082825260208201905092915050565b6000819050602082019050919050565b60008115159050919050565b61318c81613177565b82525050565b6040820160008201516131a8600085018261312d565b5060208201516131bb6020850182613183565b50505050565b60006131cd8383613192565b60408301905092915050565b6000602082019050919050565b60006131f18261314b565b6131fb8185613156565b935061320683613167565b8060005b8381101561323757815161321e88826131c1565b9750613229836131d9565b92505060018101905061320a565b5085935050505092915050565b61324d81612cce565b82525050565b60006101608301600083015161326c6000860182612dbd565b506020830151848203602086015261328482826130f4565b91505060408301516132996040860182612dbd565b5060608301516132ac606086018261312d565b5060808301516132bf6080860182612dbd565b5060a08301516132d260a0860182612dbd565b5060c08301516132e560c086018261313c565b5060e083015184820360e08601526132fd82826131e6565b915050610100830151613314610100860182612dbd565b50610120830151613329610120860182613244565b5061014083015184820361014086015261334382826130f4565b9150508091505092915050565b600061335c8383613253565b905092915050565b6000602082019050919050565b600061337c826130b7565b61338681856130c2565b935083602082028501613398856130d3565b8060005b858110156133d457848403895281516133b58582613350565b94506133c083613364565b925060208a0199505060018101905061339c565b50829750879550505050505092915050565b600060208201905081810360008301526134008184613371565b905092915050565b60008060008060008060c0878903121561342557613424612a96565b5b600087013567ffffffffffffffff81111561344357613442612a9b565b5b61344f89828a01612f78565b965050602061346089828a01612b76565b955050604061347189828a01612b76565b945050606061348289828a01612b76565b935050608061349389828a01612b76565b92505060a087013567ffffffffffffffff8111156134b4576134b3612a9b565b5b6134c089828a01612f78565b9150509295509295509295565b60006020820190506134e26000830184612c48565b92915050565b600060208201905081810360008301526135028184612c0f565b905092915050565b600082825260208201905092915050565b60006135268261314b565b613530818561350a565b935061353b83613167565b8060005b8381101561356c57815161355388826131c1565b975061355e836131d9565b92505060018101905061353f565b5085935050505092915050565b60006020820190508181036000830152613593818461351b565b905092915050565b6000819050919050565b60006135c06135bb6135b684612aa0565b61359b565b612aa0565b9050919050565b60006135d2826135a5565b9050919050565b60006135e4826135c7565b9050919050565b6135f4816135d9565b82525050565b600060208201905061360f60008301846135eb565b92915050565b6000806040838503121561362c5761362b612a96565b5b600061363a85828601612b76565b925050602061364b85828601612ae9565b9150509250929050565b60008151905061366481612b5f565b92915050565b6000602082840312156136805761367f612a96565b5b600061368e84828501613655565b91505092915050565b7f4e487b7100000000000000000000000000000000000000000000000000000000600052602260045260246000fd5b600060028204905060018216806136de57607f821691505b6020821081036136f1576136f0613697565b5b50919050565b7f4e487b7100000000000000000000000000000000000000000000000000000000600052603260045260246000fd5b7f4e487b7100000000000000000000000000000000000000000000000000000000600052601160045260246000fd5b600061376082612b2b565b91507fffffffffffffffffffffffffffffffffffffffffffffffffffffffffffffffff820361379257613791613726565b5b600182019050919050565b7f4576656e74206e6f7420666f756e642e00000000000000000000000000000000600082015250565b60006137d3601083612bc3565b91506137de8261379d565b602082019050919050565b60006020820190508181036000830152613802816137c6565b9050919050565b600081905092915050565b600061381f82612bb8565b6138298185613809565b9350613839818560208601612bd4565b80840191505092915050565b60006138518284613814565b915081905092915050565b7f496e76616c69642072657761726420616d6f756e740000000000000000000000600082015250565b6000613892601583612bc3565b915061389d8261385c565b602082019050919050565b600060208201905081810360008301526138c181613885565b9050919050565b7f4576656e7420646f6d61696e20697320616c726561647920696e207573650000600082015250565b60006138fe601e83612bc3565b9150613909826138c8565b602082019050919050565b6000602082019050818103600083015261392d816138f1565b9050919050565b60008190508160005260206000209050919050565b60006020601f8301049050919050565b600082821b905092915050565b6000600883026139967fffffffffffffffffffffffffffffffffffffffffffffffffffffffffffffffff82613959565b6139a08683613959565b95508019841693508086168417925050509392505050565b60006139d36139ce6139c984612b2b565b61359b565b612b2b565b9050919050565b6000819050919050565b6139ed836139b8565b613a016139f9826139da565b848454613966565b825550505050565b600090565b613a16613a09565b613a218184846139e4565b505050565b5b81811015613a4557613a3a600082613a0e565b600181019050613a27565b5050565b601f821115613a8a57613a5b81613934565b613a6484613949565b81016020851015613a73578190505b613a87613a7f85613949565b830182613a26565b50505b505050565b600082821c905092915050565b6000613aad60001984600802613a8f565b1980831691505092915050565b6000613ac68383613a9c565b9150826002028217905092915050565b613adf82612bb8565b67ffffffffffffffff811115613af857613af7612e7b565b5b613b0282546136c6565b613b0d828285613a49565b600060209050601f831160018114613b405760008415613b2e578287015190505b613b388582613aba565b865550613ba0565b601f198416613b4e86613934565b60005b82811015613b7657848901518255600182019150602085019450602081019050613b51565b86831015613b935784890151613b8f601f891682613a9c565b8355505b6001600288020188555050505b505050505050565b6000613bb382612b2b565b9150613bbe83612b2b565b9250828202613bcc81612b2b565b91508282048414831517613be357613be2613726565b5b5092915050565b6000604082019050613bff6000830185612c48565b613c0c6020830184612b35565b9392505050565b60008160001c9050919050565b6000819050919050565b6000613c3d613c3883613c13565b613c20565b9050919050565b60008154613c51816136c6565b613c5b81866130e3565b94506001821660008114613c765760018114613c8c57613cbf565b60ff198316865281151560200286019350613cbf565b613c9585613934565b60005b83811015613cb757815481890152600182019150602081019050613c98565b808801955050505b50505092915050565b600073ffffffffffffffffffffffffffffffffffffffff82169050919050565b6000613cfb613cf683613c13565b613cc8565b9050919050565b600060ff82169050919050565b6000613d22613d1d83613c13565b613d02565b9050919050565b600081549050919050565b60008190508160005260206000209050919050565b60008160a01c9050919050565b600060ff82169050919050565b6000613d76613d7183613d49565b613d56565b9050919050565b604082016000808301549050613d9281613ce8565b613d9f600086018261312d565b50613da981613d63565b613db66020860182613183565b5050505050565b6000613dc98383613d7d565b60408301905092915050565b6000600182019050919050565b6000613ded82613d29565b613df78185613156565b9350613e0283613d34565b8060005b83811015613e325781613e198882613dbd565b9750613e2483613dd5565b925050600181019050613e06565b5085935050505092915050565b6000819050919050565b6000613e5c613e5783613c13565b613e3f565b9050919050565b600061016083016000808401549050613e7b81613c2a565b613e886000870182612dbd565b50600184018583036020870152613e9f8382613c44565b92505060028401549050613eb281613c2a565b613ebf6040870182612dbd565b5060038401549050613ed081613ce8565b613edd606087018261312d565b5060048401549050613eee81613c2a565b613efb6080870182612dbd565b5060058401549050613f0c81613c2a565b613f1960a0870182612dbd565b5060068401549050613f2a81613d0f565b613f3760c087018261313c565b506007840185830360e0870152613f4e8382613de2565b92505060088401549050613f6181613c2a565b613f6f610100870182612dbd565b5060098401549050613f8081613e49565b613f8e610120870182613244565b50600a8401858303610140870152613fa68382613c44565b925050819250505092915050565b60006020820190508181036000830152613fce8184613e63565b905092915050565b7f4e6f206576656e747320666f756e6420666f722074686520737065636966696560008201527f6420646f6d61696e000000000000000000000000000000000000000000000000602082015250565b6000614032602883612bc3565b915061403d82613fd6565b604082019050919050565b6000602082019050818103600083015261406181614025565b9050919050565b7f4f776e61626c653a206e6577206f776e657220697320746865207a65726f206160008201527f6464726573730000000000000000000000000000000000000000000000000000602082015250565b60006140c4602683612bc3565b91506140cf82614068565b604082019050919050565b600060208201905081810360008301526140f3816140b7565b9050919050565b7f5573657220646f6573206e6f74206f776e20746865206576656e740000000000600082015250565b6000614130601b83612bc3565b915061413b826140fa565b602082019050919050565b6000602082019050818103600083015261415f81614123565b9050919050565b61416f81613177565b811461417a57600080fd5b50565b60008151905061418c81614166565b92915050565b6000602082840312156141a8576141a7612a96565b5b60006141b68482850161417d565b91505092915050565b7f4f776e61626c653a2063616c6c6572206973206e6f7420746865206f776e6572600082015250565b60006141f5602083612bc3565b9150614200826141bf565b602082019050919050565b60006020820190508181036000830152614224816141e8565b9050919050565b60006060820190506142406000830186612c48565b61424d6020830185612c48565b61425a6040830184612b35565b949350505050565b7f4576656e7420646f6573206e6f74206578697374000000000000000000000000600082015250565b6000614298601483612bc3565b91506142a382614262565b602082019050919050565b600060208201905081810360008301526142c78161428b565b905091905056fe5573657220697320616c726561647920617474656e64696e6720746865206576656e74a26469706673582212203ee17e799b0e184a6112c979c65e9bacd91b89c37707f286b43350019391e95264736f6c63430008140033",
  "linkReferences": {},
  "deployedLinkReferences": {}
}