{
  "_format": "hh-sol-artifact-1",
  "contractName": "EventManager",
  "sourceName": "contracts/EventManager.sol",
  "abi": [
    {
      "inputs": [
        {
          "internalType": "contract ENS",
          "name": "ensAddress",
          "type": "address"
        }
      ],
      "stateMutability": "nonpayable",
      "type": "constructor"
    },
    {
      "anonymous": false,
      "inputs": [
        {
          "indexed": false,
          "internalType": "string",
          "name": "eventName",
          "type": "string"
        },
        {
          "indexed": false,
          "internalType": "uint256",
          "name": "eventDate",
          "type": "uint256"
        },
        {
          "indexed": false,
          "internalType": "address",
          "name": "attendee",
          "type": "address"
        },
        {
          "indexed": false,
          "internalType": "uint256",
          "name": "timestamp",
          "type": "uint256"
        }
      ],
      "name": "AttendanceConfirmed",
      "type": "event"
    },
    {
      "anonymous": false,
      "inputs": [
        {
          "indexed": false,
          "internalType": "string",
          "name": "name",
          "type": "string"
        },
        {
          "indexed": false,
          "internalType": "uint256",
          "name": "date",
          "type": "uint256"
        },
        {
          "indexed": false,
          "internalType": "string",
          "name": "ensName",
          "type": "string"
        },
        {
          "indexed": false,
          "internalType": "address",
          "name": "organizer",
          "type": "address"
        }
      ],
      "name": "EventAdded",
      "type": "event"
    },
    {
      "anonymous": false,
      "inputs": [
        {
          "indexed": false,
          "internalType": "address",
          "name": "organizer",
          "type": "address"
        }
      ],
      "name": "OrganizerAdded",
      "type": "event"
    },
    {
      "anonymous": false,
      "inputs": [
        {
          "indexed": true,
          "internalType": "address",
          "name": "attendee",
          "type": "address"
        },
        {
          "indexed": false,
          "internalType": "string",
          "name": "eventName",
          "type": "string"
        },
        {
          "indexed": false,
          "internalType": "uint256",
          "name": "eventDate",
          "type": "uint256"
        },
        {
          "indexed": false,
          "internalType": "uint256",
          "name": "timestamp",
          "type": "uint256"
        }
      ],
      "name": "Registration",
      "type": "event"
    },
    {
      "inputs": [
        {
          "internalType": "string",
          "name": "name",
          "type": "string"
        },
        {
          "internalType": "uint256",
          "name": "date",
          "type": "uint256"
        },
        {
          "internalType": "string",
          "name": "ensName",
          "type": "string"
        }
      ],
      "name": "addEventWithENS",
      "outputs": [],
      "stateMutability": "nonpayable",
      "type": "function"
    },
    {
      "inputs": [
        {
          "internalType": "address",
          "name": "",
          "type": "address"
        },
        {
          "internalType": "bytes32",
          "name": "",
          "type": "bytes32"
        }
      ],
      "name": "attended",
      "outputs": [
        {
          "internalType": "bool",
          "name": "",
          "type": "bool"
        }
      ],
      "stateMutability": "view",
      "type": "function"
    },
    {
      "inputs": [],
      "name": "becomeOrganizer",
      "outputs": [],
      "stateMutability": "nonpayable",
      "type": "function"
    },
    {
      "inputs": [
        {
          "internalType": "string",
          "name": "ensName",
          "type": "string"
        },
        {
          "internalType": "address",
          "name": "attendee",
          "type": "address"
        }
      ],
      "name": "checkAttendance",
      "outputs": [
        {
          "internalType": "bool",
          "name": "",
          "type": "bool"
        }
      ],
      "stateMutability": "view",
      "type": "function"
    },
    {
      "inputs": [
        {
          "internalType": "string",
          "name": "ensName",
          "type": "string"
        },
        {
          "internalType": "address",
          "name": "attendee",
          "type": "address"
        }
      ],
      "name": "confirmAttendance",
      "outputs": [],
      "stateMutability": "nonpayable",
      "type": "function"
    },
    {
      "inputs": [],
      "name": "ens",
      "outputs": [
        {
          "internalType": "contract ENS",
          "name": "",
          "type": "address"
        }
      ],
      "stateMutability": "view",
      "type": "function"
    },
    {
      "inputs": [
        {
          "internalType": "address",
          "name": "attendee",
          "type": "address"
        }
      ],
      "name": "getEventsAttendedByUser",
      "outputs": [
        {
          "components": [
            {
              "internalType": "string",
              "name": "name",
              "type": "string"
            },
            {
              "internalType": "uint256",
              "name": "date",
              "type": "uint256"
            },
            {
              "components": [
                {
                  "internalType": "address",
                  "name": "organizerAddress",
                  "type": "address"
                }
              ],
              "internalType": "struct EventManager.EventOrganizer",
              "name": "organizer",
              "type": "tuple"
            },
            {
              "internalType": "bytes32",
              "name": "ensNameHash",
              "type": "bytes32"
            }
          ],
          "internalType": "struct EventManager.Event[]",
          "name": "",
          "type": "tuple[]"
        }
      ],
      "stateMutability": "view",
      "type": "function"
    },
    {
      "inputs": [
        {
          "internalType": "address",
          "name": "organizerAddress",
          "type": "address"
        }
      ],
      "name": "getEventsOrganizedByUser",
      "outputs": [
        {
          "components": [
            {
              "internalType": "string",
              "name": "name",
              "type": "string"
            },
            {
              "internalType": "uint256",
              "name": "date",
              "type": "uint256"
            },
            {
              "components": [
                {
                  "internalType": "address",
                  "name": "organizerAddress",
                  "type": "address"
                }
              ],
              "internalType": "struct EventManager.EventOrganizer",
              "name": "organizer",
              "type": "tuple"
            },
            {
              "internalType": "bytes32",
              "name": "ensNameHash",
              "type": "bytes32"
            }
          ],
          "internalType": "struct EventManager.Event[]",
          "name": "",
          "type": "tuple[]"
        }
      ],
      "stateMutability": "view",
      "type": "function"
    },
    {
      "inputs": [
        {
          "internalType": "address",
          "name": "attendee",
          "type": "address"
        }
      ],
      "name": "getEventsRegisteredByUser",
      "outputs": [
        {
          "components": [
            {
              "internalType": "string",
              "name": "name",
              "type": "string"
            },
            {
              "internalType": "uint256",
              "name": "date",
              "type": "uint256"
            },
            {
              "components": [
                {
                  "internalType": "address",
                  "name": "organizerAddress",
                  "type": "address"
                }
              ],
              "internalType": "struct EventManager.EventOrganizer",
              "name": "organizer",
              "type": "tuple"
            },
            {
              "internalType": "bytes32",
              "name": "ensNameHash",
              "type": "bytes32"
            }
          ],
          "internalType": "struct EventManager.Event[]",
          "name": "",
          "type": "tuple[]"
        }
      ],
      "stateMutability": "view",
      "type": "function"
    },
    {
      "inputs": [
        {
          "internalType": "address",
          "name": "",
          "type": "address"
        }
      ],
      "name": "organizers",
      "outputs": [
        {
          "internalType": "bool",
          "name": "",
          "type": "bool"
        }
      ],
      "stateMutability": "view",
      "type": "function"
    },
    {
      "inputs": [
        {
          "internalType": "string",
          "name": "ensName",
          "type": "string"
        }
      ],
      "name": "register",
      "outputs": [],
      "stateMutability": "nonpayable",
      "type": "function"
    },
    {
      "inputs": [
        {
          "internalType": "address",
          "name": "",
          "type": "address"
        },
        {
          "internalType": "bytes32",
          "name": "",
          "type": "bytes32"
        }
      ],
      "name": "registered",
      "outputs": [
        {
          "internalType": "bool",
          "name": "",
          "type": "bool"
        }
      ],
      "stateMutability": "view",
      "type": "function"
    },
    {
      "inputs": [
        {
          "internalType": "string",
          "name": "ensName",
          "type": "string"
        }
      ],
      "name": "resolveENSName",
      "outputs": [
        {
          "internalType": "address",
          "name": "",
          "type": "address"
        }
      ],
      "stateMutability": "view",
      "type": "function"
    }
  ],
  "bytecode": "0x60806040523480156200001157600080fd5b50604051620023fd380380620023fd833981810160405281019062000037919062000096565b80600460006101000a81548173ffffffffffffffffffffffffffffffffffffffff021916908373ffffffffffffffffffffffffffffffffffffffff1602179055505062000124565b60008151905062000090816200010a565b92915050565b600060208284031215620000a957600080fd5b6000620000b9848285016200007f565b91505092915050565b6000620000cf82620000ea565b9050919050565b6000620000e382620000c2565b9050919050565b600073ffffffffffffffffffffffffffffffffffffffff82169050919050565b6200011581620000d6565b81146200012157600080fd5b50565b6122c980620001346000396000f3fe608060405234801561001057600080fd5b50600436106100cf5760003560e01c8063ad3926bf1161008c578063bd73c29811610066578063bd73c29814610224578063c494548314610254578063f2c298be14610284578063fd98fde8146102a0576100cf565b8063ad3926bf146101a8578063b017050e146101d8578063b378f42014610208576100cf565b80630544c5b9146100d457806307b17fc9146101045780633f15457f1461010e5780635ce7a9d31461012c5780635d7341ea1461015c5780639cbf1bf81461018c575b600080fd5b6100ee60048036038101906100e99190611798565b6102d0565b6040516100fb9190611e82565b60405180910390f35b61010c6102f0565b005b610116610349565b6040516101239190611eb8565b60405180910390f35b61014660048036038101906101419190611867565b61036f565b6040516101539190611e82565b60405180910390f35b61017660048036038101906101719190611798565b610402565b6040516101839190611e60565b60405180910390f35b6101a660048036038101906101a19190611867565b61070e565b005b6101c260048036038101906101bd9190611798565b61092c565b6040516101cf9190611e60565b60405180910390f35b6101f260048036038101906101ed91906117ea565b610c1c565b6040516101ff9190611e82565b60405180910390f35b610222600480360381019061021d91906118bb565b610c4b565b005b61023e60048036038101906102399190611826565b610ea6565b60405161024b9190611e2a565b60405180910390f35b61026e600480360381019061026991906117ea565b610f85565b60405161027b9190611e82565b60405180910390f35b61029e60048036038101906102999190611826565b610fb4565b005b6102ba60048036038101906102b59190611798565b611265565b6040516102c79190611e60565b60405180910390f35b60016020528060005260406000206000915054906101000a900460ff1681565b60018060003373ffffffffffffffffffffffffffffffffffffffff1673ffffffffffffffffffffffffffffffffffffffff16815260200190815260200160002060006101000a81548160ff021916908315150217905550565b600460009054906101000a900473ffffffffffffffffffffffffffffffffffffffff1681565b600080836040516020016103839190611e13565b604051602081830303815290604052805190602001209050600360008473ffffffffffffffffffffffffffffffffffffffff1673ffffffffffffffffffffffffffffffffffffffff168152602001908152602001600020600082815260200190815260200160002060009054906101000a900460ff1691505092915050565b60608060008054905067ffffffffffffffff8111801561042157600080fd5b5060405190808252806020026020018201604052801561045b57816020015b6104486115f9565b8152602001906001900390816104405790505b5090506000805b60008054905081101561066857600080828154811061047d57fe5b9060005260206000209060040201600301549050600260008773ffffffffffffffffffffffffffffffffffffffff1673ffffffffffffffffffffffffffffffffffffffff168152602001908152602001600020600082815260200190815260200160002060009054906101000a900460ff161561065a576000828154811061050157fe5b9060005260206000209060040201604051806080016040529081600082018054600181600116156101000203166002900480601f0160208091040260200160405190810160405280929190818152602001828054600181600116156101000203166002900480156105b35780601f10610588576101008083540402835291602001916105b3565b820191906000526020600020905b81548152906001019060200180831161059657829003601f168201915b5050505050815260200160018201548152602001600282016040518060200160405290816000820160009054906101000a900473ffffffffffffffffffffffffffffffffffffffff1673ffffffffffffffffffffffffffffffffffffffff1673ffffffffffffffffffffffffffffffffffffffff1681525050815260200160038201548152505084848151811061064657fe5b602002602001018190525082806001019350505b508080600101915050610462565b5060608167ffffffffffffffff8111801561068257600080fd5b506040519080825280602002602001820160405280156106bc57816020015b6106a96115f9565b8152602001906001900390816106a15790505b50905060005b82811015610702578381815181106106d657fe5b60200260200101518282815181106106ea57fe5b602002602001018190525080806001019150506106c2565b50809350505050919050565b6000826040516020016107219190611e13565b6040516020818303038152906040528051906020012090506000610744826114d3565b90503373ffffffffffffffffffffffffffffffffffffffff168160020160000160009054906101000a900473ffffffffffffffffffffffffffffffffffffffff1673ffffffffffffffffffffffffffffffffffffffff16146107db576040517f08c379a00000000000000000000000000000000000000000000000000000000081526004016107d290611fd0565b60405180910390fd5b600360008473ffffffffffffffffffffffffffffffffffffffff1673ffffffffffffffffffffffffffffffffffffffff168152602001908152602001600020600083815260200190815260200160002060009054906101000a900460ff1615610879576040517f08c379a000000000000000000000000000000000000000000000000000000000815260040161087090612010565b60405180910390fd5b6001600360008573ffffffffffffffffffffffffffffffffffffffff1673ffffffffffffffffffffffffffffffffffffffff168152602001908152602001600020600084815260200190815260200160002060006101000a81548160ff0219169083151502179055507f9d717e61abcfc0965e51aedfc48c4c6e0d9dceb3a2a83e65491e9b3cf538483e816000018260010154854260405161091e9493929190611f26565b60405180910390a150505050565b6060600160008373ffffffffffffffffffffffffffffffffffffffff1673ffffffffffffffffffffffffffffffffffffffff16815260200190815260200160002060009054906101000a900460ff166109ba576040517f08c379a00000000000000000000000000000000000000000000000000000000081526004016109b190612050565b60405180910390fd5b606060008054905067ffffffffffffffff811180156109d857600080fd5b50604051908082528060200260200182016040528015610a1257816020015b6109ff6115f9565b8152602001906001900390816109f75790505b5090506000805b600080549050811015610c0e578473ffffffffffffffffffffffffffffffffffffffff1660008281548110610a4a57fe5b906000526020600020906004020160020160000160009054906101000a900473ffffffffffffffffffffffffffffffffffffffff1673ffffffffffffffffffffffffffffffffffffffff161415610c015760008181548110610aa857fe5b9060005260206000209060040201604051806080016040529081600082018054600181600116156101000203166002900480601f016020809104026020016040519081016040528092919081815260200182805460018160011615610100020316600290048015610b5a5780601f10610b2f57610100808354040283529160200191610b5a565b820191906000526020600020905b815481529060010190602001808311610b3d57829003601f168201915b5050505050815260200160018201548152602001600282016040518060200160405290816000820160009054906101000a900473ffffffffffffffffffffffffffffffffffffffff1673ffffffffffffffffffffffffffffffffffffffff1673ffffffffffffffffffffffffffffffffffffffff16815250508152602001600382015481525050838381518110610bed57fe5b602002602001018190525081806001019250505b8080600101915050610a19565b508082528192505050919050565b60026020528160005260406000206020528060005260406000206000915091509054906101000a900460ff1681565b600081604051602001610c5e9190611e13565b604051602081830303815290604052805190602001209050610c7e61162a565b60405180602001604052803373ffffffffffffffffffffffffffffffffffffffff168152509050600160003373ffffffffffffffffffffffffffffffffffffffff1673ffffffffffffffffffffffffffffffffffffffff16815260200190815260200160002060009054906101000a900460ff16610d855760018060003373ffffffffffffffffffffffffffffffffffffffff1673ffffffffffffffffffffffffffffffffffffffff16815260200190815260200160002060006101000a81548160ff0219169083151502179055507f37e96fc6762bae414e69ea6e2490e63bc46f2a1335de0f6b91f49cf808829bcf33604051610d7c9190611e45565b60405180910390a15b610d8d6115f9565b604051806080016040528087815260200186815260200183815260200184815250905060008190806001815401808255809150506001900390600052602060002090600402016000909190919091506000820151816000019080519060200190610df8929190611653565b506020820151816001015560408201518160020160008201518160000160006101000a81548173ffffffffffffffffffffffffffffffffffffffff021916908373ffffffffffffffffffffffffffffffffffffffff16021790555050506060820151816003015550507ff4770ba19a4feb33e2d8a7a806832c07adf309ec819fe712a9aeef7dcbde5dad86868633604051610e969493929190611ed3565b60405180910390a1505050505050565b60008082604051602001610eba9190611e13565b604051602081830303815290604052805190602001209050600460009054906101000a900473ffffffffffffffffffffffffffffffffffffffff1673ffffffffffffffffffffffffffffffffffffffff16630178b8bf826040518263ffffffff1660e01b8152600401610f2d9190611e9d565b60206040518083038186803b158015610f4557600080fd5b505afa158015610f59573d6000803e3d6000fd5b505050506040513d601f19601f82011682018060405250810190610f7d91906117c1565b915050919050565b60036020528160005260406000206020528060005260406000206000915091509054906101000a900460ff1681565b600081604051602001610fc79190611e13565b604051602081830303815290604052805190602001209050600260003373ffffffffffffffffffffffffffffffffffffffff1673ffffffffffffffffffffffffffffffffffffffff168152602001908152602001600020600082815260200190815260200160002060009054906101000a900460ff161561107d576040517f08c379a000000000000000000000000000000000000000000000000000000000815260040161107490612030565b60405180910390fd5b600061108883610ea6565b9050600073ffffffffffffffffffffffffffffffffffffffff168173ffffffffffffffffffffffffffffffffffffffff1614156110fa576040517f08c379a00000000000000000000000000000000000000000000000000000000081526004016110f190611fb0565b60405180910390fd5b6000611105836114d3565b90503373ffffffffffffffffffffffffffffffffffffffff168160020160000160009054906101000a900473ffffffffffffffffffffffffffffffffffffffff1673ffffffffffffffffffffffffffffffffffffffff16141561119d576040517f08c379a000000000000000000000000000000000000000000000000000000000815260040161119490611ff0565b60405180910390fd5b6001600260003373ffffffffffffffffffffffffffffffffffffffff1673ffffffffffffffffffffffffffffffffffffffff168152602001908152602001600020600085815260200190815260200160002060006101000a81548160ff0219169083151502179055503373ffffffffffffffffffffffffffffffffffffffff167faf04b51ca30ff4ad0b7f3df919ccb0a822bcacc646acbb14e9575c570d55344a8260000183600101544260405161125793929190611f72565b60405180910390a250505050565b60608060008054905067ffffffffffffffff8111801561128457600080fd5b506040519080825280602002602001820160405280156112be57816020015b6112ab6115f9565b8152602001906001900390816112a35790505b5090506000805b6000805490508110156114c557600360008673ffffffffffffffffffffffffffffffffffffffff1673ffffffffffffffffffffffffffffffffffffffff168152602001908152602001600020600080838154811061131f57fe5b906000526020600020906004020160030154815260200190815260200160002060009054906101000a900460ff16156114b8576000818154811061135f57fe5b9060005260206000209060040201604051806080016040529081600082018054600181600116156101000203166002900480601f0160208091040260200160405190810160405280929190818152602001828054600181600116156101000203166002900480156114115780601f106113e657610100808354040283529160200191611411565b820191906000526020600020905b8154815290600101906020018083116113f457829003601f168201915b5050505050815260200160018201548152602001600282016040518060200160405290816000820160009054906101000a900473ffffffffffffffffffffffffffffffffffffffff1673ffffffffffffffffffffffffffffffffffffffff1673ffffffffffffffffffffffffffffffffffffffff168152505081526020016003820154815250508383815181106114a457fe5b602002602001018190525081806001019250505b80806001019150506112c5565b508082528192505050919050565b600080600090505b6000805490508110156115b85782600082815481106114f657fe5b9060005260206000209060040201600301541480156115835750600073ffffffffffffffffffffffffffffffffffffffff166000828154811061153557fe5b906000526020600020906004020160020160000160009054906101000a900473ffffffffffffffffffffffffffffffffffffffff1673ffffffffffffffffffffffffffffffffffffffff1614155b156115ab576000818154811061159557fe5b90600052602060002090600402019150506115f4565b80806001019150506114db565b506040517f08c379a00000000000000000000000000000000000000000000000000000000081526004016115eb90611fb0565b60405180910390fd5b919050565b6040518060800160405280606081526020016000815260200161161a61162a565b8152602001600080191681525090565b6040518060200160405280600073ffffffffffffffffffffffffffffffffffffffff1681525090565b828054600181600116156101000203166002900490600052602060002090601f016020900481019282601f1061169457805160ff19168380011785556116c2565b828001600101855582156116c2579182015b828111156116c15782518255916020019190600101906116a6565b5b5090506116cf91906116d3565b5090565b5b808211156116ec5760008160009055506001016116d4565b5090565b6000813590506116ff8161224e565b92915050565b6000815190506117148161224e565b92915050565b60008135905061172981612265565b92915050565b600082601f83011261174057600080fd5b813561175361174e8261209d565b612070565b9150808252602083016020830185838301111561176f57600080fd5b61177a8382846121fb565b50505092915050565b6000813590506117928161227c565b92915050565b6000602082840312156117aa57600080fd5b60006117b8848285016116f0565b91505092915050565b6000602082840312156117d357600080fd5b60006117e184828501611705565b91505092915050565b600080604083850312156117fd57600080fd5b600061180b858286016116f0565b925050602061181c8582860161171a565b9150509250929050565b60006020828403121561183857600080fd5b600082013567ffffffffffffffff81111561185257600080fd5b61185e8482850161172f565b91505092915050565b6000806040838503121561187a57600080fd5b600083013567ffffffffffffffff81111561189457600080fd5b6118a08582860161172f565b92505060206118b1858286016116f0565b9150509250929050565b6000806000606084860312156118d057600080fd5b600084013567ffffffffffffffff8111156118ea57600080fd5b6118f68682870161172f565b935050602061190786828701611783565b925050604084013567ffffffffffffffff81111561192457600080fd5b6119308682870161172f565b9150509250925092565b60006119468383611d92565b905092915050565b611957816121a1565b82525050565b6119668161214f565b82525050565b6119758161214f565b82525050565b6000611986826120ee565b6119908185612111565b9350836020820285016119a2856120c9565b8060005b858110156119de57848403895281516119bf858261193a565b94506119ca83612104565b925060208a019950506001810190506119a6565b50829750879550505050505092915050565b6119f981612161565b82525050565b611a088161216d565b82525050565b611a178161216d565b82525050565b611a26816121b3565b82525050565b6000611a37826120f9565b611a418185612122565b9350611a5181856020860161220a565b611a5a8161223d565b840191505092915050565b6000611a70826120f9565b611a7a8185612133565b9350611a8a81856020860161220a565b611a938161223d565b840191505092915050565b6000611aa9826120f9565b611ab38185612144565b9350611ac381856020860161220a565b80840191505092915050565b600081546001811660008114611aec5760018114611b1257611b56565b607f6002830416611afd8187612133565b955060ff198316865260208601935050611b56565b60028204611b208187612133565b9550611b2b856120d9565b60005b82811015611b4d57815481890152600182019150602081019050611b2e565b80880195505050505b505092915050565b6000611b6b601083612133565b91507f4576656e74206e6f7420666f756e642e000000000000000000000000000000006000830152602082019050919050565b6000611bab602a83612133565b91507f4f6e6c7920746865206f7267616e697a65722063616e20636f6e6669726d206160008301527f7474656e64616e63652e000000000000000000000000000000000000000000006020830152604082019050919050565b6000611c11603083612133565b91507f4f7267616e697a6572732063616e6e6f7420726567697374657220666f72207460008301527f68656972206f776e206576656e74732e000000000000000000000000000000006020830152604082019050919050565b6000611c77603d83612133565b91507f54686520617474656e6465652068617320616c726561647920636f6e6669726d60008301527f656420617474656e64616e636520666f722074686973206576656e742e0000006020830152604082019050919050565b6000611cdd602683612133565b91507f596f7520616c7265616479207265676973746572656420666f7220746869732060008301527f6576656e742e00000000000000000000000000000000000000000000000000006020830152604082019050919050565b6000611d43601e83612133565b91507f4e6f7420612076616c6964206f7267616e697a657220616464726573732e00006000830152602082019050919050565b602082016000820151611d8c600085018261195d565b50505050565b60006080830160008301518482036000860152611daf8282611a2c565b9150506020830151611dc46020860182611df5565b506040830151611dd76040860182611d76565b506060830151611dea60608601826119ff565b508091505092915050565b611dfe81612197565b82525050565b611e0d81612197565b82525050565b6000611e1f8284611a9e565b915081905092915050565b6000602082019050611e3f600083018461196c565b92915050565b6000602082019050611e5a600083018461194e565b92915050565b60006020820190508181036000830152611e7a818461197b565b905092915050565b6000602082019050611e9760008301846119f0565b92915050565b6000602082019050611eb26000830184611a0e565b92915050565b6000602082019050611ecd6000830184611a1d565b92915050565b60006080820190508181036000830152611eed8187611a65565b9050611efc6020830186611e04565b8181036040830152611f0e8185611a65565b9050611f1d606083018461194e565b95945050505050565b60006080820190508181036000830152611f408187611acf565b9050611f4f6020830186611e04565b611f5c604083018561196c565b611f696060830184611e04565b95945050505050565b60006060820190508181036000830152611f8c8186611acf565b9050611f9b6020830185611e04565b611fa86040830184611e04565b949350505050565b60006020820190508181036000830152611fc981611b5e565b9050919050565b60006020820190508181036000830152611fe981611b9e565b9050919050565b6000602082019050818103600083015261200981611c04565b9050919050565b6000602082019050818103600083015261202981611c6a565b9050919050565b6000602082019050818103600083015261204981611cd0565b9050919050565b6000602082019050818103600083015261206981611d36565b9050919050565b6000604051905081810181811067ffffffffffffffff8211171561209357600080fd5b8060405250919050565b600067ffffffffffffffff8211156120b457600080fd5b601f19601f8301169050602081019050919050565b6000819050602082019050919050565b60008190508160005260206000209050919050565b600081519050919050565b600081519050919050565b6000602082019050919050565b600082825260208201905092915050565b600082825260208201905092915050565b600082825260208201905092915050565b600081905092915050565b600061215a82612177565b9050919050565b60008115159050919050565b6000819050919050565b600073ffffffffffffffffffffffffffffffffffffffff82169050919050565b6000819050919050565b60006121ac826121d7565b9050919050565b60006121be826121c5565b9050919050565b60006121d082612177565b9050919050565b60006121e2826121e9565b9050919050565b60006121f482612177565b9050919050565b82818337600083830152505050565b60005b8381101561222857808201518184015260208101905061220d565b83811115612237576000848401525b50505050565b6000601f19601f8301169050919050565b6122578161214f565b811461226257600080fd5b50565b61226e8161216d565b811461227957600080fd5b50565b61228581612197565b811461229057600080fd5b5056fea2646970667358221220396cf81e378d058719455490d8a0adae0ad3ac8dc4a2f04a7951730c829ccf7064736f6c63430007000033",
  "linkReferences": {},
  "deployedLinkReferences": {}
}