{
  "_format": "hh-sol-artifact-1",
  "contractName": "EventManager",
  "sourceName": "contracts/EventManager.sol",
  "abi": [
    {
      "inputs": [
        {
          "internalType": "contract ENS",
          "name": "ensAddress",
          "type": "address"
        }
      ],
      "stateMutability": "nonpayable",
      "type": "constructor"
    },
    {
      "anonymous": false,
      "inputs": [
        {
          "indexed": false,
          "internalType": "string",
          "name": "eventName",
          "type": "string"
        },
        {
          "indexed": false,
          "internalType": "uint256",
          "name": "eventDate",
          "type": "uint256"
        },
        {
          "indexed": false,
          "internalType": "address",
          "name": "attendee",
          "type": "address"
        },
        {
          "indexed": false,
          "internalType": "uint256",
          "name": "timestamp",
          "type": "uint256"
        }
      ],
      "name": "AttendanceConfirmed",
      "type": "event"
    },
    {
      "anonymous": false,
      "inputs": [
        {
          "indexed": false,
          "internalType": "string",
          "name": "name",
          "type": "string"
        },
        {
          "indexed": false,
          "internalType": "uint256",
          "name": "date",
          "type": "uint256"
        },
        {
          "indexed": false,
          "internalType": "string",
          "name": "ensName",
          "type": "string"
        },
        {
          "indexed": false,
          "internalType": "address",
          "name": "organizer",
          "type": "address"
        },
        {
          "indexed": false,
          "internalType": "string",
          "name": "organizerName",
          "type": "string"
        },
        {
          "indexed": false,
          "internalType": "string",
          "name": "organizerEmail",
          "type": "string"
        }
      ],
      "name": "EventAdded",
      "type": "event"
    },
    {
      "anonymous": false,
      "inputs": [
        {
          "indexed": true,
          "internalType": "address",
          "name": "attendee",
          "type": "address"
        },
        {
          "indexed": false,
          "internalType": "string",
          "name": "eventName",
          "type": "string"
        },
        {
          "indexed": false,
          "internalType": "uint256",
          "name": "eventDate",
          "type": "uint256"
        },
        {
          "indexed": false,
          "internalType": "uint256",
          "name": "timestamp",
          "type": "uint256"
        }
      ],
      "name": "Registration",
      "type": "event"
    },
    {
      "inputs": [
        {
          "internalType": "string",
          "name": "name",
          "type": "string"
        },
        {
          "internalType": "uint256",
          "name": "date",
          "type": "uint256"
        },
        {
          "internalType": "string",
          "name": "ensName",
          "type": "string"
        },
        {
          "internalType": "string",
          "name": "organizerName",
          "type": "string"
        },
        {
          "internalType": "string",
          "name": "organizerEmail",
          "type": "string"
        }
      ],
      "name": "addEventWithENS",
      "outputs": [],
      "stateMutability": "nonpayable",
      "type": "function"
    },
    {
      "inputs": [
        {
          "internalType": "address",
          "name": "",
          "type": "address"
        },
        {
          "internalType": "bytes32",
          "name": "",
          "type": "bytes32"
        }
      ],
      "name": "attended",
      "outputs": [
        {
          "internalType": "bool",
          "name": "",
          "type": "bool"
        }
      ],
      "stateMutability": "view",
      "type": "function"
    },
    {
      "inputs": [],
      "name": "becomeOrganizer",
      "outputs": [],
      "stateMutability": "nonpayable",
      "type": "function"
    },
    {
      "inputs": [
        {
          "internalType": "string",
          "name": "ensName",
          "type": "string"
        },
        {
          "internalType": "address",
          "name": "attendee",
          "type": "address"
        }
      ],
      "name": "checkAttendance",
      "outputs": [
        {
          "internalType": "bool",
          "name": "",
          "type": "bool"
        }
      ],
      "stateMutability": "view",
      "type": "function"
    },
    {
      "inputs": [
        {
          "internalType": "string",
          "name": "ensName",
          "type": "string"
        }
      ],
      "name": "confirmAttendance",
      "outputs": [],
      "stateMutability": "nonpayable",
      "type": "function"
    },
    {
      "inputs": [],
      "name": "ens",
      "outputs": [
        {
          "internalType": "contract ENS",
          "name": "",
          "type": "address"
        }
      ],
      "stateMutability": "view",
      "type": "function"
    },
    {
      "inputs": [
        {
          "internalType": "address",
          "name": "attendee",
          "type": "address"
        }
      ],
      "name": "getEventsAttendedByUser",
      "outputs": [
        {
          "components": [
            {
              "internalType": "string",
              "name": "name",
              "type": "string"
            },
            {
              "internalType": "uint256",
              "name": "date",
              "type": "uint256"
            },
            {
              "components": [
                {
                  "internalType": "address",
                  "name": "organizerAddress",
                  "type": "address"
                },
                {
                  "internalType": "string",
                  "name": "organizerName",
                  "type": "string"
                },
                {
                  "internalType": "string",
                  "name": "organizerEmail",
                  "type": "string"
                }
              ],
              "internalType": "struct EventManager.EventOrganizer",
              "name": "organizer",
              "type": "tuple"
            },
            {
              "internalType": "bytes32",
              "name": "ensNameHash",
              "type": "bytes32"
            }
          ],
          "internalType": "struct EventManager.Event[]",
          "name": "",
          "type": "tuple[]"
        }
      ],
      "stateMutability": "view",
      "type": "function"
    },
    {
      "inputs": [
        {
          "internalType": "address",
          "name": "organizerAddress",
          "type": "address"
        }
      ],
      "name": "getEventsOrganizedByUser",
      "outputs": [
        {
          "components": [
            {
              "internalType": "string",
              "name": "name",
              "type": "string"
            },
            {
              "internalType": "uint256",
              "name": "date",
              "type": "uint256"
            },
            {
              "components": [
                {
                  "internalType": "address",
                  "name": "organizerAddress",
                  "type": "address"
                },
                {
                  "internalType": "string",
                  "name": "organizerName",
                  "type": "string"
                },
                {
                  "internalType": "string",
                  "name": "organizerEmail",
                  "type": "string"
                }
              ],
              "internalType": "struct EventManager.EventOrganizer",
              "name": "organizer",
              "type": "tuple"
            },
            {
              "internalType": "bytes32",
              "name": "ensNameHash",
              "type": "bytes32"
            }
          ],
          "internalType": "struct EventManager.Event[]",
          "name": "",
          "type": "tuple[]"
        }
      ],
      "stateMutability": "view",
      "type": "function"
    },
    {
      "inputs": [
        {
          "internalType": "address",
          "name": "",
          "type": "address"
        }
      ],
      "name": "organizers",
      "outputs": [
        {
          "internalType": "bool",
          "name": "",
          "type": "bool"
        }
      ],
      "stateMutability": "view",
      "type": "function"
    },
    {
      "inputs": [
        {
          "internalType": "string",
          "name": "ensName",
          "type": "string"
        }
      ],
      "name": "register",
      "outputs": [],
      "stateMutability": "nonpayable",
      "type": "function"
    },
    {
      "inputs": [
        {
          "internalType": "address",
          "name": "",
          "type": "address"
        },
        {
          "internalType": "bytes32",
          "name": "",
          "type": "bytes32"
        }
      ],
      "name": "registered",
      "outputs": [
        {
          "internalType": "bool",
          "name": "",
          "type": "bool"
        }
      ],
      "stateMutability": "view",
      "type": "function"
    },
    {
      "inputs": [
        {
          "internalType": "string",
          "name": "ensName",
          "type": "string"
        }
      ],
      "name": "resolveENSName",
      "outputs": [
        {
          "internalType": "address",
          "name": "",
          "type": "address"
        }
      ],
      "stateMutability": "view",
      "type": "function"
    }
  ],
  "bytecode": "0x60806040523480156200001157600080fd5b506040516200222638038062002226833981810160405281019062000037919062000096565b80600460006101000a81548173ffffffffffffffffffffffffffffffffffffffff021916908373ffffffffffffffffffffffffffffffffffffffff1602179055505062000124565b60008151905062000090816200010a565b92915050565b600060208284031215620000a957600080fd5b6000620000b9848285016200007f565b91505092915050565b6000620000cf82620000ea565b9050919050565b6000620000e382620000c2565b9050919050565b600073ffffffffffffffffffffffffffffffffffffffff82169050919050565b6200011581620000d6565b81146200012157600080fd5b50565b6120f280620001346000396000f3fe608060405234801561001057600080fd5b50600436106100b45760003560e01c8063bd73c29811610071578063bd73c298146101a1578063c4945483146101d1578063e0db6b4e14610201578063ece0c6981461021d578063f2c298be14610239578063fd98fde814610255576100b4565b80630544c5b9146100b957806307b17fc9146100e95780633f15457f146100f35780635ce7a9d314610111578063ad3926bf14610141578063b017050e14610171575b600080fd5b6100d360048036038101906100ce91906115fe565b610285565b6040516100e09190611cc1565b60405180910390f35b6100f16102a5565b005b6100fb6102fe565b6040516101089190611cf7565b60405180910390f35b61012b600480360381019061012691906116cd565b610324565b6040516101389190611cc1565b60405180910390f35b61015b600480360381019061015691906115fe565b6103b7565b6040516101689190611c9f565b60405180910390f35b61018b60048036038101906101869190611650565b61075e565b6040516101989190611cc1565b60405180910390f35b6101bb60048036038101906101b6919061168c565b61078d565b6040516101c89190611c84565b60405180910390f35b6101eb60048036038101906101e69190611650565b61086c565b6040516101f89190611cc1565b60405180910390f35b61021b6004803603810190610216919061168c565b61089b565b005b61023760048036038101906102329190611721565b610a7f565b005b610253600480360381019061024e919061168c565b610c46565b005b61026f600480360381019061026a91906115fe565b610f79565b60405161027c9190611c9f565b60405180910390f35b60016020528060005260406000206000915054906101000a900460ff1681565b60018060003373ffffffffffffffffffffffffffffffffffffffff1673ffffffffffffffffffffffffffffffffffffffff16815260200190815260200160002060006101000a81548160ff021916908315150217905550565b600460009054906101000a900473ffffffffffffffffffffffffffffffffffffffff1681565b600080836040516020016103389190611c6d565b604051602081830303815290604052805190602001209050600360008473ffffffffffffffffffffffffffffffffffffffff1673ffffffffffffffffffffffffffffffffffffffff168152602001908152602001600020600082815260200190815260200160002060009054906101000a900460ff1691505092915050565b60608060008054905067ffffffffffffffff811180156103d657600080fd5b5060405190808252806020026020018201604052801561041057816020015b6103fd611451565b8152602001906001900390816103f55790505b5090506000805b600080549050811015610750578473ffffffffffffffffffffffffffffffffffffffff166000828154811061044857fe5b906000526020600020906006020160020160000160009054906101000a900473ffffffffffffffffffffffffffffffffffffffff1673ffffffffffffffffffffffffffffffffffffffff16141561074357600081815481106104a657fe5b9060005260206000209060060201604051806080016040529081600082018054600181600116156101000203166002900480601f0160208091040260200160405190810160405280929190818152602001828054600181600116156101000203166002900480156105585780601f1061052d57610100808354040283529160200191610558565b820191906000526020600020905b81548152906001019060200180831161053b57829003601f168201915b5050505050815260200160018201548152602001600282016040518060600160405290816000820160009054906101000a900473ffffffffffffffffffffffffffffffffffffffff1673ffffffffffffffffffffffffffffffffffffffff1673ffffffffffffffffffffffffffffffffffffffff168152602001600182018054600181600116156101000203166002900480601f01602080910402602001604051908101604052809291908181526020018280546001816001161561010002031660029004801561066a5780601f1061063f5761010080835404028352916020019161066a565b820191906000526020600020905b81548152906001019060200180831161064d57829003601f168201915b50505050508152602001600282018054600181600116156101000203166002900480601f01602080910402602001604051908101604052809291908181526020018280546001816001161561010002031660029004801561070c5780601f106106e15761010080835404028352916020019161070c565b820191906000526020600020905b8154815290600101906020018083116106ef57829003601f168201915b505050505081525050815260200160058201548152505083838151811061072f57fe5b602002602001018190525081806001019250505b8080600101915050610417565b508082528192505050919050565b60026020528160005260406000206020528060005260406000206000915091509054906101000a900460ff1681565b600080826040516020016107a19190611c6d565b604051602081830303815290604052805190602001209050600460009054906101000a900473ffffffffffffffffffffffffffffffffffffffff1673ffffffffffffffffffffffffffffffffffffffff16630178b8bf826040518263ffffffff1660e01b81526004016108149190611cdc565b60206040518083038186803b15801561082c57600080fd5b505afa158015610840573d6000803e3d6000fd5b505050506040513d601f19601f820116820180604052508101906108649190611627565b915050919050565b60036020528160005260406000206020528060005260406000206000915091509054906101000a900460ff1681565b6000816040516020016108ae9190611c6d565b60405160208183030381529060405280519060200120905060006108d18261132b565b90503373ffffffffffffffffffffffffffffffffffffffff168160020160000160009054906101000a900473ffffffffffffffffffffffffffffffffffffffff1673ffffffffffffffffffffffffffffffffffffffff16148061098e5750600360003373ffffffffffffffffffffffffffffffffffffffff1673ffffffffffffffffffffffffffffffffffffffff168152602001908152602001600020600083815260200190815260200160002060009054906101000a900460ff165b6109cd576040517f08c379a00000000000000000000000000000000000000000000000000000000081526004016109c490611e79565b60405180910390fd5b6001600360003373ffffffffffffffffffffffffffffffffffffffff1673ffffffffffffffffffffffffffffffffffffffff168152602001908152602001600020600084815260200190815260200160002060006101000a81548160ff0219169083151502179055507f9d717e61abcfc0965e51aedfc48c4c6e0d9dceb3a2a83e65491e9b3cf538483e8160000182600101543342604051610a729493929190611d8f565b60405180910390a1505050565b600083604051602001610a929190611c6d565b604051602081830303815290604052805190602001209050610ab2611482565b60405180606001604052803373ffffffffffffffffffffffffffffffffffffffff168152602001858152602001848152509050610aed611451565b604051806080016040528089815260200188815260200183815260200184815250905060008190806001815401808255809150506001900390600052602060002090600602016000909190919091506000820151816000019080519060200190610b589291906114b9565b506020820151816001015560408201518160020160008201518160000160006101000a81548173ffffffffffffffffffffffffffffffffffffffff021916908373ffffffffffffffffffffffffffffffffffffffff1602179055506020820151816001019080519060200190610bcf9291906114b9565b506040820151816002019080519060200190610bec9291906114b9565b5050506060820151816005015550507ff979dd0a3464d282b718171e9960d555c27d4672c961577941dbbebd1861df74888888338989604051610c3496959493929190611d12565b60405180910390a15050505050505050565b600260003373ffffffffffffffffffffffffffffffffffffffff1673ffffffffffffffffffffffffffffffffffffffff168152602001908152602001600020600082604051602001610c989190611c6d565b60405160208183030381529060405280519060200120815260200190815260200160002060009054906101000a900460ff1615610d0a576040517f08c379a0000000000000000000000000000000000000000000000000000000008152600401610d0190611e59565b60405180910390fd5b600081604051602001610d1d9190611c6d565b6040516020818303038152906040528051906020012090506000610d408361078d565b9050600073ffffffffffffffffffffffffffffffffffffffff168173ffffffffffffffffffffffffffffffffffffffff161415610db2576040517f08c379a0000000000000000000000000000000000000000000000000000000008152600401610da990611e19565b60405180910390fd5b6000610dbd8361132b565b90508173ffffffffffffffffffffffffffffffffffffffff168160020160000160009054906101000a900473ffffffffffffffffffffffffffffffffffffffff1673ffffffffffffffffffffffffffffffffffffffff161480610e7257503373ffffffffffffffffffffffffffffffffffffffff168160020160000160009054906101000a900473ffffffffffffffffffffffffffffffffffffffff1673ffffffffffffffffffffffffffffffffffffffff16145b610eb1576040517f08c379a0000000000000000000000000000000000000000000000000000000008152600401610ea890611e39565b60405180910390fd5b6001600260003373ffffffffffffffffffffffffffffffffffffffff1673ffffffffffffffffffffffffffffffffffffffff168152602001908152602001600020600085815260200190815260200160002060006101000a81548160ff0219169083151502179055503373ffffffffffffffffffffffffffffffffffffffff167faf04b51ca30ff4ad0b7f3df919ccb0a822bcacc646acbb14e9575c570d55344a82600001836001015442604051610f6b93929190611ddb565b60405180910390a250505050565b60608060008054905067ffffffffffffffff81118015610f9857600080fd5b50604051908082528060200260200182016040528015610fd257816020015b610fbf611451565b815260200190600190039081610fb75790505b5090506000805b60008054905081101561131d57600360008673ffffffffffffffffffffffffffffffffffffffff1673ffffffffffffffffffffffffffffffffffffffff168152602001908152602001600020600080838154811061103357fe5b906000526020600020906006020160050154815260200190815260200160002060009054906101000a900460ff1615611310576000818154811061107357fe5b9060005260206000209060060201604051806080016040529081600082018054600181600116156101000203166002900480601f0160208091040260200160405190810160405280929190818152602001828054600181600116156101000203166002900480156111255780601f106110fa57610100808354040283529160200191611125565b820191906000526020600020905b81548152906001019060200180831161110857829003601f168201915b5050505050815260200160018201548152602001600282016040518060600160405290816000820160009054906101000a900473ffffffffffffffffffffffffffffffffffffffff1673ffffffffffffffffffffffffffffffffffffffff1673ffffffffffffffffffffffffffffffffffffffff168152602001600182018054600181600116156101000203166002900480601f0160208091040260200160405190810160405280929190818152602001828054600181600116156101000203166002900480156112375780601f1061120c57610100808354040283529160200191611237565b820191906000526020600020905b81548152906001019060200180831161121a57829003601f168201915b50505050508152602001600282018054600181600116156101000203166002900480601f0160208091040260200160405190810160405280929190818152602001828054600181600116156101000203166002900480156112d95780601f106112ae576101008083540402835291602001916112d9565b820191906000526020600020905b8154815290600101906020018083116112bc57829003601f168201915b50505050508152505081526020016005820154815250508383815181106112fc57fe5b602002602001018190525081806001019250505b8080600101915050610fd9565b508082528192505050919050565b600080600090505b60008054905081101561141057826000828154811061134e57fe5b9060005260206000209060060201600501541480156113db5750600073ffffffffffffffffffffffffffffffffffffffff166000828154811061138d57fe5b906000526020600020906006020160020160000160009054906101000a900473ffffffffffffffffffffffffffffffffffffffff1673ffffffffffffffffffffffffffffffffffffffff1614155b1561140357600081815481106113ed57fe5b906000526020600020906006020191505061144c565b8080600101915050611333565b506040517f08c379a000000000000000000000000000000000000000000000000000000000815260040161144390611e19565b60405180910390fd5b919050565b60405180608001604052806060815260200160008152602001611472611482565b8152602001600080191681525090565b6040518060600160405280600073ffffffffffffffffffffffffffffffffffffffff16815260200160608152602001606081525090565b828054600181600116156101000203166002900490600052602060002090601f016020900481019282601f106114fa57805160ff1916838001178555611528565b82800160010185558215611528579182015b8281111561152757825182559160200191906001019061150c565b5b5090506115359190611539565b5090565b5b8082111561155257600081600090555060010161153a565b5090565b60008135905061156581612077565b92915050565b60008151905061157a81612077565b92915050565b60008135905061158f8161208e565b92915050565b600082601f8301126115a657600080fd5b81356115b96115b482611ec6565b611e99565b915080825260208301602083018583830111156115d557600080fd5b6115e0838284612024565b50505092915050565b6000813590506115f8816120a5565b92915050565b60006020828403121561161057600080fd5b600061161e84828501611556565b91505092915050565b60006020828403121561163957600080fd5b60006116478482850161156b565b91505092915050565b6000806040838503121561166357600080fd5b600061167185828601611556565b925050602061168285828601611580565b9150509250929050565b60006020828403121561169e57600080fd5b600082013567ffffffffffffffff8111156116b857600080fd5b6116c484828501611595565b91505092915050565b600080604083850312156116e057600080fd5b600083013567ffffffffffffffff8111156116fa57600080fd5b61170685828601611595565b925050602061171785828601611556565b9150509250929050565b600080600080600060a0868803121561173957600080fd5b600086013567ffffffffffffffff81111561175357600080fd5b61175f88828901611595565b9550506020611770888289016115e9565b945050604086013567ffffffffffffffff81111561178d57600080fd5b61179988828901611595565b935050606086013567ffffffffffffffff8111156117b657600080fd5b6117c288828901611595565b925050608086013567ffffffffffffffff8111156117df57600080fd5b6117eb88828901611595565b9150509295509295909350565b60006118048383611be5565b905092915050565b61181581611fca565b82525050565b61182481611f78565b82525050565b61183381611f78565b82525050565b600061184482611f17565b61184e8185611f3a565b93508360208202850161186085611ef2565b8060005b8581101561189c578484038952815161187d85826117f8565b945061188883611f2d565b925060208a01995050600181019050611864565b50829750879550505050505092915050565b6118b781611f8a565b82525050565b6118c681611f96565b82525050565b6118d581611f96565b82525050565b6118e481611fdc565b82525050565b60006118f582611f22565b6118ff8185611f4b565b935061190f818560208601612033565b61191881612066565b840191505092915050565b600061192e82611f22565b6119388185611f5c565b9350611948818560208601612033565b61195181612066565b840191505092915050565b600061196782611f22565b6119718185611f6d565b9350611981818560208601612033565b80840191505092915050565b6000815460018116600081146119aa57600181146119d057611a14565b607f60028304166119bb8187611f5c565b955060ff198316865260208601935050611a14565b600282046119de8187611f5c565b95506119e985611f02565b60005b82811015611a0b578154818901526001820191506020810190506119ec565b80880195505050505b505092915050565b6000611a29601083611f5c565b91507f4576656e74206e6f7420666f756e642e000000000000000000000000000000006000830152602082019050919050565b6000611a69602383611f5c565b91507f596f752063616e6e6f7420726567697374657220666f7220746869732065766560008301527f6e742e00000000000000000000000000000000000000000000000000000000006020830152604082019050919050565b6000611acf602a83611f5c565b91507f596f752061726520616c7265616479207265676973746572656420666f72207460008301527f686973206576656e742e000000000000000000000000000000000000000000006020830152604082019050919050565b6000611b35602d83611f5c565b91507f596f752063616e6e6f7420636f6e6669726d20617474656e64616e636520666f60008301527f722074686973206576656e742e000000000000000000000000000000000000006020830152604082019050919050565b6000606083016000830151611ba6600086018261181b565b5060208301518482036020860152611bbe82826118ea565b91505060408301518482036040860152611bd882826118ea565b9150508091505092915050565b60006080830160008301518482036000860152611c0282826118ea565b9150506020830151611c176020860182611c4f565b5060408301518482036040860152611c2f8282611b8e565b9150506060830151611c4460608601826118bd565b508091505092915050565b611c5881611fc0565b82525050565b611c6781611fc0565b82525050565b6000611c79828461195c565b915081905092915050565b6000602082019050611c99600083018461182a565b92915050565b60006020820190508181036000830152611cb98184611839565b905092915050565b6000602082019050611cd660008301846118ae565b92915050565b6000602082019050611cf160008301846118cc565b92915050565b6000602082019050611d0c60008301846118db565b92915050565b600060c0820190508181036000830152611d2c8189611923565b9050611d3b6020830188611c5e565b8181036040830152611d4d8187611923565b9050611d5c606083018661180c565b8181036080830152611d6e8185611923565b905081810360a0830152611d828184611923565b9050979650505050505050565b60006080820190508181036000830152611da9818761198d565b9050611db86020830186611c5e565b611dc5604083018561180c565b611dd26060830184611c5e565b95945050505050565b60006060820190508181036000830152611df5818661198d565b9050611e046020830185611c5e565b611e116040830184611c5e565b949350505050565b60006020820190508181036000830152611e3281611a1c565b9050919050565b60006020820190508181036000830152611e5281611a5c565b9050919050565b60006020820190508181036000830152611e7281611ac2565b9050919050565b60006020820190508181036000830152611e9281611b28565b9050919050565b6000604051905081810181811067ffffffffffffffff82111715611ebc57600080fd5b8060405250919050565b600067ffffffffffffffff821115611edd57600080fd5b601f19601f8301169050602081019050919050565b6000819050602082019050919050565b60008190508160005260206000209050919050565b600081519050919050565b600081519050919050565b6000602082019050919050565b600082825260208201905092915050565b600082825260208201905092915050565b600082825260208201905092915050565b600081905092915050565b6000611f8382611fa0565b9050919050565b60008115159050919050565b6000819050919050565b600073ffffffffffffffffffffffffffffffffffffffff82169050919050565b6000819050919050565b6000611fd582612000565b9050919050565b6000611fe782611fee565b9050919050565b6000611ff982611fa0565b9050919050565b600061200b82612012565b9050919050565b600061201d82611fa0565b9050919050565b82818337600083830152505050565b60005b83811015612051578082015181840152602081019050612036565b83811115612060576000848401525b50505050565b6000601f19601f8301169050919050565b61208081611f78565b811461208b57600080fd5b50565b61209781611f96565b81146120a257600080fd5b50565b6120ae81611fc0565b81146120b957600080fd5b5056fea26469706673582212208d45de364ad95fd156500fcf959748203186f356d403f632cc4aa168c842003464736f6c63430007000033",
  "linkReferences": {},
  "deployedLinkReferences": {}
}