{
  "_format": "hh-sol-artifact-1",
  "contractName": "EventManager",
  "sourceName": "contracts/EventManager.sol",
  "abi": [
    {
      "inputs": [
        {
          "internalType": "contract ENS",
          "name": "ensAddress",
          "type": "address"
        }
      ],
      "stateMutability": "nonpayable",
      "type": "constructor"
    },
    {
      "anonymous": false,
      "inputs": [
        {
          "indexed": false,
          "internalType": "string",
          "name": "eventName",
          "type": "string"
        },
        {
          "indexed": false,
          "internalType": "uint256",
          "name": "eventDate",
          "type": "uint256"
        },
        {
          "indexed": false,
          "internalType": "address",
          "name": "attendee",
          "type": "address"
        },
        {
          "indexed": false,
          "internalType": "uint256",
          "name": "timestamp",
          "type": "uint256"
        }
      ],
      "name": "AttendanceConfirmed",
      "type": "event"
    },
    {
      "anonymous": false,
      "inputs": [
        {
          "indexed": false,
          "internalType": "string",
          "name": "name",
          "type": "string"
        },
        {
          "indexed": false,
          "internalType": "uint256",
          "name": "date",
          "type": "uint256"
        },
        {
          "indexed": false,
          "internalType": "string",
          "name": "ensName",
          "type": "string"
        },
        {
          "indexed": false,
          "internalType": "address",
          "name": "organizer",
          "type": "address"
        }
      ],
      "name": "EventAdded",
      "type": "event"
    },
    {
      "anonymous": false,
      "inputs": [
        {
          "indexed": true,
          "internalType": "address",
          "name": "attendee",
          "type": "address"
        },
        {
          "indexed": false,
          "internalType": "string",
          "name": "eventName",
          "type": "string"
        },
        {
          "indexed": false,
          "internalType": "uint256",
          "name": "eventDate",
          "type": "uint256"
        },
        {
          "indexed": false,
          "internalType": "uint256",
          "name": "timestamp",
          "type": "uint256"
        }
      ],
      "name": "Registration",
      "type": "event"
    },
    {
      "inputs": [
        {
          "internalType": "string",
          "name": "name",
          "type": "string"
        },
        {
          "internalType": "uint256",
          "name": "date",
          "type": "uint256"
        },
        {
          "internalType": "string",
          "name": "ensName",
          "type": "string"
        }
      ],
      "name": "addEventWithENS",
      "outputs": [],
      "stateMutability": "nonpayable",
      "type": "function"
    },
    {
      "inputs": [
        {
          "internalType": "address",
          "name": "",
          "type": "address"
        },
        {
          "internalType": "bytes32",
          "name": "",
          "type": "bytes32"
        }
      ],
      "name": "attended",
      "outputs": [
        {
          "internalType": "bool",
          "name": "",
          "type": "bool"
        }
      ],
      "stateMutability": "view",
      "type": "function"
    },
    {
      "inputs": [],
      "name": "becomeOrganizer",
      "outputs": [],
      "stateMutability": "nonpayable",
      "type": "function"
    },
    {
      "inputs": [
        {
          "internalType": "string",
          "name": "ensName",
          "type": "string"
        },
        {
          "internalType": "address",
          "name": "attendee",
          "type": "address"
        }
      ],
      "name": "checkAttendance",
      "outputs": [
        {
          "internalType": "bool",
          "name": "",
          "type": "bool"
        }
      ],
      "stateMutability": "view",
      "type": "function"
    },
    {
      "inputs": [
        {
          "internalType": "string",
          "name": "ensName",
          "type": "string"
        },
        {
          "internalType": "address",
          "name": "attendee",
          "type": "address"
        }
      ],
      "name": "confirmAttendance",
      "outputs": [],
      "stateMutability": "nonpayable",
      "type": "function"
    },
    {
      "inputs": [],
      "name": "ens",
      "outputs": [
        {
          "internalType": "contract ENS",
          "name": "",
          "type": "address"
        }
      ],
      "stateMutability": "view",
      "type": "function"
    },
    {
      "inputs": [
        {
          "internalType": "address",
          "name": "attendee",
          "type": "address"
        }
      ],
      "name": "getEventsAttendedByUser",
      "outputs": [
        {
          "components": [
            {
              "internalType": "string",
              "name": "name",
              "type": "string"
            },
            {
              "internalType": "uint256",
              "name": "date",
              "type": "uint256"
            },
            {
              "components": [
                {
                  "internalType": "address",
                  "name": "organizerAddress",
                  "type": "address"
                }
              ],
              "internalType": "struct EventManager.EventOrganizer",
              "name": "organizer",
              "type": "tuple"
            },
            {
              "internalType": "bytes32",
              "name": "ensNameHash",
              "type": "bytes32"
            }
          ],
          "internalType": "struct EventManager.Event[]",
          "name": "",
          "type": "tuple[]"
        }
      ],
      "stateMutability": "view",
      "type": "function"
    },
    {
      "inputs": [
        {
          "internalType": "address",
          "name": "organizerAddress",
          "type": "address"
        }
      ],
      "name": "getEventsOrganizedByUser",
      "outputs": [
        {
          "components": [
            {
              "internalType": "string",
              "name": "name",
              "type": "string"
            },
            {
              "internalType": "uint256",
              "name": "date",
              "type": "uint256"
            },
            {
              "components": [
                {
                  "internalType": "address",
                  "name": "organizerAddress",
                  "type": "address"
                }
              ],
              "internalType": "struct EventManager.EventOrganizer",
              "name": "organizer",
              "type": "tuple"
            },
            {
              "internalType": "bytes32",
              "name": "ensNameHash",
              "type": "bytes32"
            }
          ],
          "internalType": "struct EventManager.Event[]",
          "name": "",
          "type": "tuple[]"
        }
      ],
      "stateMutability": "view",
      "type": "function"
    },
    {
      "inputs": [
        {
          "internalType": "address",
          "name": "attendee",
          "type": "address"
        }
      ],
      "name": "getEventsRegisteredByUser",
      "outputs": [
        {
          "components": [
            {
              "internalType": "string",
              "name": "name",
              "type": "string"
            },
            {
              "internalType": "uint256",
              "name": "date",
              "type": "uint256"
            },
            {
              "components": [
                {
                  "internalType": "address",
                  "name": "organizerAddress",
                  "type": "address"
                }
              ],
              "internalType": "struct EventManager.EventOrganizer",
              "name": "organizer",
              "type": "tuple"
            },
            {
              "internalType": "bytes32",
              "name": "ensNameHash",
              "type": "bytes32"
            }
          ],
          "internalType": "struct EventManager.Event[]",
          "name": "",
          "type": "tuple[]"
        }
      ],
      "stateMutability": "view",
      "type": "function"
    },
    {
      "inputs": [
        {
          "internalType": "address",
          "name": "",
          "type": "address"
        }
      ],
      "name": "organizers",
      "outputs": [
        {
          "internalType": "bool",
          "name": "",
          "type": "bool"
        }
      ],
      "stateMutability": "view",
      "type": "function"
    },
    {
      "inputs": [
        {
          "internalType": "string",
          "name": "ensName",
          "type": "string"
        }
      ],
      "name": "register",
      "outputs": [],
      "stateMutability": "nonpayable",
      "type": "function"
    },
    {
      "inputs": [
        {
          "internalType": "address",
          "name": "",
          "type": "address"
        },
        {
          "internalType": "bytes32",
          "name": "",
          "type": "bytes32"
        }
      ],
      "name": "registered",
      "outputs": [
        {
          "internalType": "bool",
          "name": "",
          "type": "bool"
        }
      ],
      "stateMutability": "view",
      "type": "function"
    },
    {
      "inputs": [
        {
          "internalType": "string",
          "name": "ensName",
          "type": "string"
        }
      ],
      "name": "resolveENSName",
      "outputs": [
        {
          "internalType": "address",
          "name": "",
          "type": "address"
        }
      ],
      "stateMutability": "view",
      "type": "function"
    }
  ],
  "bytecode": "0x60806040523480156200001157600080fd5b506040516200231938038062002319833981810160405281019062000037919062000096565b80600460006101000a81548173ffffffffffffffffffffffffffffffffffffffff021916908373ffffffffffffffffffffffffffffffffffffffff1602179055505062000124565b60008151905062000090816200010a565b92915050565b600060208284031215620000a957600080fd5b6000620000b9848285016200007f565b91505092915050565b6000620000cf82620000ea565b9050919050565b6000620000e382620000c2565b9050919050565b600073ffffffffffffffffffffffffffffffffffffffff82169050919050565b6200011581620000d6565b81146200012157600080fd5b50565b6121e580620001346000396000f3fe608060405234801561001057600080fd5b50600436106100cf5760003560e01c8063ad3926bf1161008c578063bd73c29811610066578063bd73c29814610224578063c494548314610254578063f2c298be14610284578063fd98fde8146102a0576100cf565b8063ad3926bf146101a8578063b017050e146101d8578063b378f42014610208576100cf565b80630544c5b9146100d457806307b17fc9146101045780633f15457f1461010e5780635ce7a9d31461012c5780635d7341ea1461015c5780639cbf1bf81461018c575b600080fd5b6100ee60048036038101906100e991906116a9565b6102d0565b6040516100fb9190611d9e565b60405180910390f35b61010c6102f0565b005b610116610349565b6040516101239190611dd4565b60405180910390f35b61014660048036038101906101419190611778565b61036f565b6040516101539190611d9e565b60405180910390f35b610176600480360381019061017191906116a9565b610402565b6040516101839190611d7c565b60405180910390f35b6101a660048036038101906101a19190611778565b61070e565b005b6101c260048036038101906101bd91906116a9565b61092c565b6040516101cf9190611d7c565b60405180910390f35b6101f260048036038101906101ed91906116fb565b610b8f565b6040516101ff9190611d9e565b60405180910390f35b610222600480360381019061021d91906117cc565b610bbe565b005b61023e60048036038101906102399190611737565b610db7565b60405161024b9190611d61565b60405180910390f35b61026e600480360381019061026991906116fb565b610e96565b60405161027b9190611d9e565b60405180910390f35b61029e60048036038101906102999190611737565b610ec5565b005b6102ba60048036038101906102b591906116a9565b611176565b6040516102c79190611d7c565b60405180910390f35b60016020528060005260406000206000915054906101000a900460ff1681565b60018060003373ffffffffffffffffffffffffffffffffffffffff1673ffffffffffffffffffffffffffffffffffffffff16815260200190815260200160002060006101000a81548160ff021916908315150217905550565b600460009054906101000a900473ffffffffffffffffffffffffffffffffffffffff1681565b600080836040516020016103839190611d4a565b604051602081830303815290604052805190602001209050600360008473ffffffffffffffffffffffffffffffffffffffff1673ffffffffffffffffffffffffffffffffffffffff168152602001908152602001600020600082815260200190815260200160002060009054906101000a900460ff1691505092915050565b60608060008054905067ffffffffffffffff8111801561042157600080fd5b5060405190808252806020026020018201604052801561045b57816020015b61044861150a565b8152602001906001900390816104405790505b5090506000805b60008054905081101561066857600080828154811061047d57fe5b9060005260206000209060040201600301549050600260008773ffffffffffffffffffffffffffffffffffffffff1673ffffffffffffffffffffffffffffffffffffffff168152602001908152602001600020600082815260200190815260200160002060009054906101000a900460ff161561065a576000828154811061050157fe5b9060005260206000209060040201604051806080016040529081600082018054600181600116156101000203166002900480601f0160208091040260200160405190810160405280929190818152602001828054600181600116156101000203166002900480156105b35780601f10610588576101008083540402835291602001916105b3565b820191906000526020600020905b81548152906001019060200180831161059657829003601f168201915b5050505050815260200160018201548152602001600282016040518060200160405290816000820160009054906101000a900473ffffffffffffffffffffffffffffffffffffffff1673ffffffffffffffffffffffffffffffffffffffff1673ffffffffffffffffffffffffffffffffffffffff1681525050815260200160038201548152505084848151811061064657fe5b602002602001018190525082806001019350505b508080600101915050610462565b5060608167ffffffffffffffff8111801561068257600080fd5b506040519080825280602002602001820160405280156106bc57816020015b6106a961150a565b8152602001906001900390816106a15790505b50905060005b82811015610702578381815181106106d657fe5b60200260200101518282815181106106ea57fe5b602002602001018190525080806001019150506106c2565b50809350505050919050565b6000826040516020016107219190611d4a565b6040516020818303038152906040528051906020012090506000610744826113e4565b90503373ffffffffffffffffffffffffffffffffffffffff168160020160000160009054906101000a900473ffffffffffffffffffffffffffffffffffffffff1673ffffffffffffffffffffffffffffffffffffffff16146107db576040517f08c379a00000000000000000000000000000000000000000000000000000000081526004016107d290611eec565b60405180910390fd5b600360008473ffffffffffffffffffffffffffffffffffffffff1673ffffffffffffffffffffffffffffffffffffffff168152602001908152602001600020600083815260200190815260200160002060009054906101000a900460ff1615610879576040517f08c379a000000000000000000000000000000000000000000000000000000000815260040161087090611f6c565b60405180910390fd5b6001600360008573ffffffffffffffffffffffffffffffffffffffff1673ffffffffffffffffffffffffffffffffffffffff168152602001908152602001600020600084815260200190815260200160002060006101000a81548160ff0219169083151502179055507f9d717e61abcfc0965e51aedfc48c4c6e0d9dceb3a2a83e65491e9b3cf538483e816000018260010154854260405161091e9493929190611e42565b60405180910390a150505050565b60608060008054905067ffffffffffffffff8111801561094b57600080fd5b5060405190808252806020026020018201604052801561098557816020015b61097261150a565b81526020019060019003908161096a5790505b5090506000805b600080549050811015610b81578473ffffffffffffffffffffffffffffffffffffffff16600082815481106109bd57fe5b906000526020600020906004020160020160000160009054906101000a900473ffffffffffffffffffffffffffffffffffffffff1673ffffffffffffffffffffffffffffffffffffffff161415610b745760008181548110610a1b57fe5b9060005260206000209060040201604051806080016040529081600082018054600181600116156101000203166002900480601f016020809104026020016040519081016040528092919081815260200182805460018160011615610100020316600290048015610acd5780601f10610aa257610100808354040283529160200191610acd565b820191906000526020600020905b815481529060010190602001808311610ab057829003601f168201915b5050505050815260200160018201548152602001600282016040518060200160405290816000820160009054906101000a900473ffffffffffffffffffffffffffffffffffffffff1673ffffffffffffffffffffffffffffffffffffffff1673ffffffffffffffffffffffffffffffffffffffff16815250508152602001600382015481525050838381518110610b6057fe5b602002602001018190525081806001019250505b808060010191505061098c565b508082528192505050919050565b60026020528160005260406000206020528060005260406000206000915091509054906101000a900460ff1681565b600081604051602001610bd19190611d4a565b604051602081830303815290604052805190602001209050610bf161153b565b60405180602001604052803373ffffffffffffffffffffffffffffffffffffffff1681525090506000610c2384610db7565b9050600073ffffffffffffffffffffffffffffffffffffffff168173ffffffffffffffffffffffffffffffffffffffff161415610c95576040517f08c379a0000000000000000000000000000000000000000000000000000000008152600401610c8c90611f0c565b60405180910390fd5b610c9d61150a565b604051806080016040528088815260200187815260200184815260200185815250905060008190806001815401808255809150506001900390600052602060002090600402016000909190919091506000820151816000019080519060200190610d08929190611564565b506020820151816001015560408201518160020160008201518160000160006101000a81548173ffffffffffffffffffffffffffffffffffffffff021916908373ffffffffffffffffffffffffffffffffffffffff16021790555050506060820151816003015550507ff4770ba19a4feb33e2d8a7a806832c07adf309ec819fe712a9aeef7dcbde5dad87878733604051610da69493929190611def565b60405180910390a150505050505050565b60008082604051602001610dcb9190611d4a565b604051602081830303815290604052805190602001209050600460009054906101000a900473ffffffffffffffffffffffffffffffffffffffff1673ffffffffffffffffffffffffffffffffffffffff16630178b8bf826040518263ffffffff1660e01b8152600401610e3e9190611db9565b60206040518083038186803b158015610e5657600080fd5b505afa158015610e6a573d6000803e3d6000fd5b505050506040513d601f19601f82011682018060405250810190610e8e91906116d2565b915050919050565b60036020528160005260406000206020528060005260406000206000915091509054906101000a900460ff1681565b600081604051602001610ed89190611d4a565b604051602081830303815290604052805190602001209050600260003373ffffffffffffffffffffffffffffffffffffffff1673ffffffffffffffffffffffffffffffffffffffff168152602001908152602001600020600082815260200190815260200160002060009054906101000a900460ff1615610f8e576040517f08c379a0000000000000000000000000000000000000000000000000000000008152600401610f8590611f2c565b60405180910390fd5b6000610f9983610db7565b9050600073ffffffffffffffffffffffffffffffffffffffff168173ffffffffffffffffffffffffffffffffffffffff16141561100b576040517f08c379a000000000000000000000000000000000000000000000000000000000815260040161100290611ecc565b60405180910390fd5b6000611016836113e4565b90503373ffffffffffffffffffffffffffffffffffffffff168160020160000160009054906101000a900473ffffffffffffffffffffffffffffffffffffffff1673ffffffffffffffffffffffffffffffffffffffff1614156110ae576040517f08c379a00000000000000000000000000000000000000000000000000000000081526004016110a590611f4c565b60405180910390fd5b6001600260003373ffffffffffffffffffffffffffffffffffffffff1673ffffffffffffffffffffffffffffffffffffffff168152602001908152602001600020600085815260200190815260200160002060006101000a81548160ff0219169083151502179055503373ffffffffffffffffffffffffffffffffffffffff167faf04b51ca30ff4ad0b7f3df919ccb0a822bcacc646acbb14e9575c570d55344a8260000183600101544260405161116893929190611e8e565b60405180910390a250505050565b60608060008054905067ffffffffffffffff8111801561119557600080fd5b506040519080825280602002602001820160405280156111cf57816020015b6111bc61150a565b8152602001906001900390816111b45790505b5090506000805b6000805490508110156113d657600360008673ffffffffffffffffffffffffffffffffffffffff1673ffffffffffffffffffffffffffffffffffffffff168152602001908152602001600020600080838154811061123057fe5b906000526020600020906004020160030154815260200190815260200160002060009054906101000a900460ff16156113c9576000818154811061127057fe5b9060005260206000209060040201604051806080016040529081600082018054600181600116156101000203166002900480601f0160208091040260200160405190810160405280929190818152602001828054600181600116156101000203166002900480156113225780601f106112f757610100808354040283529160200191611322565b820191906000526020600020905b81548152906001019060200180831161130557829003601f168201915b5050505050815260200160018201548152602001600282016040518060200160405290816000820160009054906101000a900473ffffffffffffffffffffffffffffffffffffffff1673ffffffffffffffffffffffffffffffffffffffff1673ffffffffffffffffffffffffffffffffffffffff168152505081526020016003820154815250508383815181106113b557fe5b602002602001018190525081806001019250505b80806001019150506111d6565b508082528192505050919050565b600080600090505b6000805490508110156114c957826000828154811061140757fe5b9060005260206000209060040201600301541480156114945750600073ffffffffffffffffffffffffffffffffffffffff166000828154811061144657fe5b906000526020600020906004020160020160000160009054906101000a900473ffffffffffffffffffffffffffffffffffffffff1673ffffffffffffffffffffffffffffffffffffffff1614155b156114bc57600081815481106114a657fe5b9060005260206000209060040201915050611505565b80806001019150506113ec565b506040517f08c379a00000000000000000000000000000000000000000000000000000000081526004016114fc90611ecc565b60405180910390fd5b919050565b6040518060800160405280606081526020016000815260200161152b61153b565b8152602001600080191681525090565b6040518060200160405280600073ffffffffffffffffffffffffffffffffffffffff1681525090565b828054600181600116156101000203166002900490600052602060002090601f016020900481019282601f106115a557805160ff19168380011785556115d3565b828001600101855582156115d3579182015b828111156115d25782518255916020019190600101906115b7565b5b5090506115e091906115e4565b5090565b5b808211156115fd5760008160009055506001016115e5565b5090565b6000813590506116108161216a565b92915050565b6000815190506116258161216a565b92915050565b60008135905061163a81612181565b92915050565b600082601f83011261165157600080fd5b813561166461165f82611fb9565b611f8c565b9150808252602083016020830185838301111561168057600080fd5b61168b838284612117565b50505092915050565b6000813590506116a381612198565b92915050565b6000602082840312156116bb57600080fd5b60006116c984828501611601565b91505092915050565b6000602082840312156116e457600080fd5b60006116f284828501611616565b91505092915050565b6000806040838503121561170e57600080fd5b600061171c85828601611601565b925050602061172d8582860161162b565b9150509250929050565b60006020828403121561174957600080fd5b600082013567ffffffffffffffff81111561176357600080fd5b61176f84828501611640565b91505092915050565b6000806040838503121561178b57600080fd5b600083013567ffffffffffffffff8111156117a557600080fd5b6117b185828601611640565b92505060206117c285828601611601565b9150509250929050565b6000806000606084860312156117e157600080fd5b600084013567ffffffffffffffff8111156117fb57600080fd5b61180786828701611640565b935050602061181886828701611694565b925050604084013567ffffffffffffffff81111561183557600080fd5b61184186828701611640565b9150509250925092565b60006118578383611cc9565b905092915050565b611868816120bd565b82525050565b6118778161206b565b82525050565b6118868161206b565b82525050565b60006118978261200a565b6118a1818561202d565b9350836020820285016118b385611fe5565b8060005b858110156118ef57848403895281516118d0858261184b565b94506118db83612020565b925060208a019950506001810190506118b7565b50829750879550505050505092915050565b61190a8161207d565b82525050565b61191981612089565b82525050565b61192881612089565b82525050565b611937816120cf565b82525050565b600061194882612015565b611952818561203e565b9350611962818560208601612126565b61196b81612159565b840191505092915050565b600061198182612015565b61198b818561204f565b935061199b818560208601612126565b6119a481612159565b840191505092915050565b60006119ba82612015565b6119c48185612060565b93506119d4818560208601612126565b80840191505092915050565b6000815460018116600081146119fd5760018114611a2357611a67565b607f6002830416611a0e818761204f565b955060ff198316865260208601935050611a67565b60028204611a31818761204f565b9550611a3c85611ff5565b60005b82811015611a5e57815481890152600182019150602081019050611a3f565b80880195505050505b505092915050565b6000611a7c60108361204f565b91507f4576656e74206e6f7420666f756e642e000000000000000000000000000000006000830152602082019050919050565b6000611abc602a8361204f565b91507f4f6e6c7920746865206f7267616e697a65722063616e20636f6e6669726d206160008301527f7474656e64616e63652e000000000000000000000000000000000000000000006020830152604082019050919050565b6000611b2260288361204f565b91507f454e53206e616d6520646f6573206e6f74207265736f6c766520746f20616e2060008301527f616464726573732e0000000000000000000000000000000000000000000000006020830152604082019050919050565b6000611b88602a8361204f565b91507f596f752061726520616c7265616479207265676973746572656420666f72207460008301527f686973206576656e742e000000000000000000000000000000000000000000006020830152604082019050919050565b6000611bee60308361204f565b91507f4f7267616e697a6572732063616e6e6f7420726567697374657220666f72207460008301527f68656972206f776e206576656e74732e000000000000000000000000000000006020830152604082019050919050565b6000611c54603d8361204f565b91507f54686520617474656e6465652068617320616c726561647920636f6e6669726d60008301527f656420617474656e64616e636520666f722074686973206576656e742e0000006020830152604082019050919050565b602082016000820151611cc3600085018261186e565b50505050565b60006080830160008301518482036000860152611ce6828261193d565b9150506020830151611cfb6020860182611d2c565b506040830151611d0e6040860182611cad565b506060830151611d216060860182611910565b508091505092915050565b611d35816120b3565b82525050565b611d44816120b3565b82525050565b6000611d5682846119af565b915081905092915050565b6000602082019050611d76600083018461187d565b92915050565b60006020820190508181036000830152611d96818461188c565b905092915050565b6000602082019050611db36000830184611901565b92915050565b6000602082019050611dce600083018461191f565b92915050565b6000602082019050611de9600083018461192e565b92915050565b60006080820190508181036000830152611e098187611976565b9050611e186020830186611d3b565b8181036040830152611e2a8185611976565b9050611e39606083018461185f565b95945050505050565b60006080820190508181036000830152611e5c81876119e0565b9050611e6b6020830186611d3b565b611e78604083018561187d565b611e856060830184611d3b565b95945050505050565b60006060820190508181036000830152611ea881866119e0565b9050611eb76020830185611d3b565b611ec46040830184611d3b565b949350505050565b60006020820190508181036000830152611ee581611a6f565b9050919050565b60006020820190508181036000830152611f0581611aaf565b9050919050565b60006020820190508181036000830152611f2581611b15565b9050919050565b60006020820190508181036000830152611f4581611b7b565b9050919050565b60006020820190508181036000830152611f6581611be1565b9050919050565b60006020820190508181036000830152611f8581611c47565b9050919050565b6000604051905081810181811067ffffffffffffffff82111715611faf57600080fd5b8060405250919050565b600067ffffffffffffffff821115611fd057600080fd5b601f19601f8301169050602081019050919050565b6000819050602082019050919050565b60008190508160005260206000209050919050565b600081519050919050565b600081519050919050565b6000602082019050919050565b600082825260208201905092915050565b600082825260208201905092915050565b600082825260208201905092915050565b600081905092915050565b600061207682612093565b9050919050565b60008115159050919050565b6000819050919050565b600073ffffffffffffffffffffffffffffffffffffffff82169050919050565b6000819050919050565b60006120c8826120f3565b9050919050565b60006120da826120e1565b9050919050565b60006120ec82612093565b9050919050565b60006120fe82612105565b9050919050565b600061211082612093565b9050919050565b82818337600083830152505050565b60005b83811015612144578082015181840152602081019050612129565b83811115612153576000848401525b50505050565b6000601f19601f8301169050919050565b6121738161206b565b811461217e57600080fd5b50565b61218a81612089565b811461219557600080fd5b50565b6121a1816120b3565b81146121ac57600080fd5b5056fea2646970667358221220a9f2822a3f81d28cb4fad5cc14afba1f59d3a288b79c617d77776cb8ef795c9564736f6c63430007000033",
  "linkReferences": {},
  "deployedLinkReferences": {}
}